:020000040800F2
:10000000686100205D0200082B100008E10E000866
:1000100029100008D9030008D913000800000000C7
:100020000000000000000000000000009D0100082A
:10003000DB03000800000000F9010008ED110008D2
:1000400077020008770200087702000877020008AC
:10005000770200087702000877020008770200089C
:10006000770200087702000877020008770200088C
:10007000770200087702000877020008770200087C
:10008000770200087702000877020008770200086C
:10009000770200087702000877020008770200085C
:1000A00077020008011300087702000877020008B1
:1000B000770200087702000877020008770200083C
:1000C000770200087702000877020008770200082C
:1000D000770200087702000877020008770200081C
:1000E000770200087702000877020008770200080C
:1000F00077020008770200087702000877020008FC
:1001000077020008770200087702000877020008EB
:1001100077020008770200087702000877020008DB
:1001200077020008770200087702000877020008CB
:1001300077020008770200087702000877020008BB
:1001400077020008770200087702000877020008AB
:10015000770200087702000877020008770200089B
:10016000770200087702000877020008770200088B
:1001700077020008770200087702000800000000FC
:100180007702000877020008DFF80CD000F012F9BF
:1001900000480047C5160008686100202C4B19680C
:1001A0000868B0E8F04F80F30988BFF36F8F4FF015
:1001B000000080F3118870470000000008480068C4
:1001C000006880F308884FF0000080F3148862B65E
:1001D00061B6BFF34F8FBFF36F8F00DF00BF00BF6B
:1001E00008ED00E0DFF80C00016841F470010160E7
:1001F000704700BF88ED00E0EFF30980BFF36F8F19
:10020000134B1A681EF0100F08BF20ED108A20E96A
:10021000F04F106009B44FF0500080F31188BFF325
:100220004F8FBFF36F8F02F0B3F94FF0000080F3F0
:10023000118809BC19680868B0E8F04F1EF0100F6B
:1002400008BFB0EC108A80F30988BFF36F8F704746
:100250003C000020EFF3058070470000064880470F
:1002600006480047FEE7FEE7FEE7FEE7FEE7FEE79B
:10027000FEE7FEE7FEE7FEE7AD1200088901000891
:100280002DE9F05F0546002092469B4688460646CB
:10029000814640241BE0284641464746224600F05E
:1002A00079F853465A46C01A914110D31146184660
:1002B000224600F060F82D1A67EB01084F462246EF
:1002C0000120002100F057F817EB00094E41201ED5
:1002D000A4F10104DFDC484631462A464346BDE826
:1002E000F09F40EA01039B0703D009E008C9121FF1
:1002F00008C0042AFAD203E011F8013B00F8013BE0
:10030000521EF9D27047D2B201E000F8012B491E0B
:10031000FBD270470022F6E710B513460A460446A2
:100320001946FFF7F0FF204610BD421C10F8011BD4
:100330000029FBD1801A7047034611F8012B00F801
:10034000012B002AF9D11846704730B50B460146FB
:1003500000202022012409E021FA02F59D4205D364
:1003600003FA02F5491B04FA02F52844151EA2F10E
:100370000102F1DC30BD202A04DB203A00FA02F150
:10038000002070479140C2F1200320FA03F3194383
:1003900090407047202A04DB203A21FA02F0002125
:1003A000704721FA02F3D040C2F120029140084385
:1003B00019467047064C074D06E0E06840F001031F
:1003C00094E8070098471034AC42F6D3FFF7E0FEFC
:1003D0000032000820320008FEE770477047000036
:1003E0002DE9F84F0022DFF89091DFF88C8109F1B8
:1003F00008094FF0010E4FF00F0C09F1040A0EFA34
:1004000002F60B683340B34271D14C68022C01D024
:10041000122C11D1D40800EB84073D6A5407E40E76
:100420000CFA04FB25EA0B05D1F810B00BFA04FB1B
:100430004BEA050BC7F820B0076854000325A54018
:10044000AF4391F804B00BF0030B0BFA04FB4BEA3B
:10045000070BC0F800B04F68012F05D0022F03D062
:10046000112F01D0122F11D18768AF43D1F80CB0F2
:100470000BFA04FB4BEA070BC0F808B04768B74318
:100480000E79C6F3001696403E434660C668AE43FA
:100490008D68A5403543C5604C68E40065D5374C90
:1004A000256845F480452560246804F48044009460
:1004B000334C22F003052544D5F808789407260F1D
:1004C0000CFA06F4A7432F4CA04201D1002424E0EB
:1004D0002D4CA04201D101241FE02C4CA04201D19F
:1004E00002241AE02A4CA04202D1032415E03CE089
:1004F000284CA04201D104240FE0274CA04201D196
:1005000005240AE0254CA04201D1062405E0244C34
:10051000A04201D1072400E00824B4403C43C5F8C0
:100520000848D8F800409C434D68ED0300D51C43B3
:10053000C8F80040104D2D1D2C689C434E68B60332
:1005400000D51C432C60D9F800409C434D68ED0257
:1005500000D51C43C9F80040DAF800409C434D68C0
:10056000AD0200D51C43CAF80040521C102AFFF40B
:1005700046AFBDE8F88F0000003C0140443802401F
:100580000030014000000240000402400008024028
:10059000000C02400010024000140240001802400B
:1005A000001C02400069084201D001207047002071
:1005B0007047426931EA020201D081617047090443
:1005C00081617047002A01D081617047090481610F
:1005D0007047000001488068704700002C00002030
:1005E0000248816802781144816070472C00002025
:1005F00010B50B48016841F400710160016841F4D5
:1006000080610160016841F480710160032000F0A5
:100610008DF8002000F006F800F03EF8002010BD34
:10062000003C024010B588B001460022192000F0BD
:100630005DF8192000F04CF800241348016841F0DF
:1006400001010160006800F00100019002A903A807
:1006500000F020F900F042F940000C49B0FBF1F144
:10066000491E0C480A4A026040F2E732C26041600B
:100670000461846000F040FB10B1012008B010BD9F
:10068000044800F056FBF9E74438024040420F00AE
:10069000000001403404002082B00C48016841F49D
:1006A00080410160006800F4804001900748001F0D
:1006B000016841F080510160006800F080500190B5
:1006C00000220F21901E02B000F010B84438024002
:1006D000002809DB00F01F02012191404009800041
:1006E00000F1E020C0F8001170470000F0B40D46A2
:1006F0000D4B1B68C3F30223C3F10704042C00D97C
:100700000424191D072901D2002300E0DB1E012665
:1007100006FA04F1491E294099409E40761E164073
:100720003143F0BC00F07EBE0CED00E000F00701AC
:10073000054A10684FF6FF03184040EA01200349BC
:1007400008431060704700000CED00E00000FA055F
:100750002DE9F04704460D46002C13D0DFF8249114
:10076000D9F80000EFB200F00F00A8420CD289F8CF
:100770000070D9F8000000F00F00A84204D001205A
:10078000BDE8F0870120FBE720683F4E810712D5C6
:10079000400703D5306840F4E0503060207800070F
:1007A00003D5306840F4604030603068A16820F0C4
:1007B000F000084330602078C00731D032496068CB
:1007C0000839012808D002280BD0032809D009686D
:1007D00089070BD40120D3E70968890306D40120D7
:1007E000CEE70968890101D40120C9E7316821F009
:1007F000030101433160FFF7EDFE804641F2883A84
:1008000007E0FFF7E7FEA0EB0800504501D9032001
:10081000B6E73068616800F00C00B0EB810FF0D1F2
:10082000D9F8000000F00F00A84209D989F800703B
:10083000D9F8000000F00F00A84201D001209FE786
:100840002078400705D53068E16820F4E05008437F
:1008500030602078000706D53068216920F46040B8
:1008600040EAC100306000F049F83168074AC1F33E
:100870000311515CC840064908600020FFF7D2FE12
:1008800000207DE7003C0240083802408431000827
:10089000380000200F2202600B4A136803F00303A4
:1008A0004360136803F0F0038360136803F4E053BC
:1008B000C360126802F46042D20802610348006813
:1008C00000F00F000860704708380240003C02400A
:1008D00001480068704700003800002000B5FFF7AD
:1008E000F7FF04490968044AC1F34231515CC8402A
:1008F00000BD0000083802409431000810B51748C8
:10090000006810F00C01164816D04310042912D0CC
:10091000082911D1114C241F216801F03F022168E0
:1009200049020AD52068C0F38810A0FB0301002308
:10093000FFF7A6FC09E0184610BD21680023C1F3AB
:100940008811A1FB0001FFF79BFC2168C1F3014165
:10095000491C4900B0FBF1F010BD0000083802400E
:100960000024F4002DE9F84F0446002C10D0207824
:10097000DC4DC00757D0DB4808300168C1F3810166
:1009800001290DD00068C0F38100022803D00EE0D9
:100990000120BDE8F88FD348001D0068400206D54D
:1009A000286880033FD5606870BB0120F1E760686C
:1009B000B0F5803F10D0B0F5A02F12D0286820F4F9
:1009C00080302860286820F4802028606068E0B1CA
:1009D000FFF700FE064614E0286840F480302860E7
:1009E000F4E7286840F480202860286840F48030CC
:1009F0002860EBE7FFF7EEFD801B642801D9032098
:100A0000C7E728688003F5D50DE0FFF7E3FD06464C
:100A100006E0FFF7DFFD801B642801D90320B8E75B
:100A200028688003F5D42078AF4F80074FF0000886
:100A300049D5AC480830016811F00C0F09D00068A6
:100A4000C0F38100022814D1A648001D00684002AE
:100A50000FD42868800704D5E068012801D0012060
:100A600097E72868216920F0F80040EAC100286073
:100A700029E0E068B8B101203860FFF7ABFD064619
:100A800006E0FFF7A7FD801B022801D9032080E7BD
:100A900028688007F5D52868216920F0F80040EA29
:100AA000C10028600FE0C7F80080FFF793FD0646FD
:100AB00006E0FFF78FFD801B022801D9032068E7BD
:100AC00028688007F5D42078000729D5DFF814922C
:100AD0008648616909F1740989B101210160FFF754
:100AE00079FD064606E0FFF775FD801B022801D957
:100AF00003204EE7D9F800008007F4D510E0C0F8D5
:100B00000080FFF767FD064606E0FFF763FD801BE8
:100B1000022801D903203CE7D9F800008007F4D46B
:100B20002078400772D50026DFF8B8A10AF1400A04
:100B3000DAF80000C0000BD4DAF8000040F0805072
:100B4000CAF80000DAF8000000F08050009001269A
:100B5000DFF89CB1DBF80000C00515D4DBF800001D
:100B600040F48070CBF80000FFF734FD814607E0C9
:100B7000FFF730FDA0EB0900022801D9032008E7A8
:100B8000DBF80000C005F3D5DFF858B1A0680BF121
:100B9000700B012813D0052818D0DBF8000020F0D6
:100BA0000100CBF80000DBF8000020F00400CBF8D7
:100BB0000000A06830B3FFF70DFD81461DE0DBF8B3
:100BC000000040F00100CBF80000F2E7DBF8000085
:100BD00040F00400CBF80000DBF8000040F001001A
:100BE000CBF80000E5E7FFF7F5FCA0EB090141F2C7
:100BF0008830814201D90320CBE6DBF80000800772
:100C0000F1D512E0FFF7E6FC81460AE015E0FFF7B8
:100C1000E1FCA0EB090141F28830814201D90320B7
:100C2000B7E6DBF800008007F1D4012E05D1DAF831
:100C3000000020F08050CAF80000A069C0B3294924
:100C400008310968C1F38101022949D0022805D081
:100C5000C7F86080FFF7BEFC04463CE0C7F8608040
:100C6000FFF7B8FC064606E0FFF7B4FC801B02283D
:100C700001D903208DE628688001F5D4D4E9070165
:100C80000843616AA26A4FF0FF33890103EB520205
:100C900041EA0241084394F82C1040EA01611148EE
:100CA000001D016001203866FFF794FC044607E050
:100CB00014E0FFF78FFC001B022801D9032068E62F
:100CC00028688001F5D509E0FFF784FC001B0228A5
:100CD00001D903205DE628688001F5D4002058E69C
:100CE000012056E60038024000004742800E47428D
:100CF000007000407047704710B50446002C03D0C8
:100D000094F83D0010B107E0012010BD002084F8E8
:100D10003C00204600F00CF8022084F83D00211D24
:100D2000206800F0F3FA012084F83D00002010BD97
:100D300070470168CA6842F00102CA6000688168B1
:100D400001F00701062903D0016841F001010160AB
:100D500000207047704770B50446206801694FF065
:100D60000005C943890716D4C168C943890712D44D
:100D7000E91E01610120207720688069800703D087
:100D80002046FFF7E7FF05E0204600F09BF82046ED
:100D900000F099F8257720680169C943490718D4FC
:100DA000C168C943490714D46FF0040101610220EE
:100DB00020772068806910F4407F03D02046FFF739
:100DC000C9FF05E0204600F07DF8204600F07BF8E2
:100DD000257720680169C943090717D4C168C94349
:100DE000090713D46FF008010161042020772068FF
:100DF000C069800703D02046FFF7ACFF05E020461E
:100E000000F060F8204600F05EF825772068016960
:100E1000C943C90618D4C168C943C90614D46FF0C0
:100E200010010161082020772068C06910F4407F1C
:100E300003D02046FFF78EFF05E0204600F042F881
:100E4000204600F040F8257720680169C943C907AA
:100E500008D1C168C943C90704D1891E0161204670
:100E600000F032F820680169C943090609D4C16855
:100E7000C943090605D46FF0800101612046FFF7E0
:100E800039FF20680169C943490609D4C168C943CB
:100E9000490605D46FF040010161204600F01EF8BC
:100EA00020680169C94389060BD4C168C943890612
:100EB00007D46FF0200101612046BDE87040FFF7C4
:100EC0001ABF70BD7047704700680349884201D15E
:100ED000FFF786BB7047000000000140704700002C
:100EE00008B52B4F4FF48048002241463846FFF7A3
:100EF00069FB284D6E000624009502E00098401E14
:100F0000009000980028F9D141463846FFF751FB80
:100F1000641E002CF0D1009602E00098401E009064
:100F200000980028F9D10624009602E00098401E9F
:100F3000009000980028F9D141463846FFF739FB68
:100F4000641E002CF0D1009602E00098401E009034
:100F500000980028F9D10624009502E00098401E70
:100F6000009000980028F9D141463846FFF721FB50
:100F7000641E002CF0D10620009602E00099491E64
:100F8000009100990029F9D1401E0028F4D1B2E760
:100F9000000C024040420F00F0B587B0142102A8B7
:100FA000FFF7B8F900241D48016841F08001016095
:100FB000016801F080010191016841F001010160C7
:100FC000016801F001010191016841F0080101602F
:100FD000016801F008010191016841F0020101601E
:100FE000006800F0020001900D4F4FF470450022A0
:100FF00029463846FFF7E6FA012602960394049440
:1010000002A90848FFF7ECF90295039604940594A9
:1010100002A93846FFF7E4F907B0F0BD30380240C6
:10102000000C024000000240FEE7704788B0074C09
:101030004FF47A75201D00F093FC1C22044901A88E
:10104000FFF74FF9284600F0B7FBF3E7A4000020B4
:101050004C31000886B0144C64226846616A00F086
:10106000D9FB9DE8070003AB07C30398102807D0FE
:101070000EA000F0B3F94FF4FA6000F09DFBEBE72F
:101080000BA000F0ABF90CA0049900F0A7F96422C2
:101090006846616A00F0BEFB9DE8070003AB07C32A
:1010A00003981028EFD0E6E7040000202E0000008F
:1010B0000A56616C75653A0020256900054D4FF4AC
:1010C000805421462846FFF774FA642000F074FB30
:1010D000F7E70000000C0240054D4FF48044214624
:1010E0002846FFF766FA962000F066FBF7E7000057
:1010F000000C0240054D4FF4004421462846FFF7FE
:1011000058FAD22000F058FBF7E70000000C02402C
:101110000A4E0B4C4FF400554CF2503729463046DE
:10112000FFF747FA00F055FB01463A46606A00F0C7
:10113000BBFB642000F040FBF0E70000000C024025
:101140000400002088B0144D144C01212846FFF7FC
:1011500029FA58B12088012819D001202080E068A0
:1011600000F003FC0EA000F039F910E0208870B107
:10117000002020801C220F4901A8FFF7B2F80021AF
:1011800001A800F0C1FBE0600BA000F027F964208B
:1011900000F012FBD9E7000000000240040000202C
:1011A0005461736B20332064656C657465640D0A4B
:1011B00000000000683100085461736B2033206325
:1011C0007265617465640D0A000000000446054DF7
:1011D000201D00F003F904A000F000F9E86900F018
:1011E000C4FBF5E7040000200A00000010B5502001
:1011F00080F31188BFF34F8FBFF36F8F01F0D8FDDD
:1012000018B104494FF080500860002080F3118825
:1012100010BD000004ED00E030B593B0302107A808
:10122000FFF778F8142102A8FFF774F800251D488D
:10123000016841F080510160006800F08050019029
:101240001948016841F480410160006800F4804061
:101250000190012007900004089002240D94800161
:101260000E9004200F90A82110911194129007A8BD
:10127000FFF778FB08B1FFF7B1F80F200290039455
:1012800004954FF4A05005904FF48050069005212E
:1012900002A8FFF75DFA002801D0FFF79FF813B00E
:1012A00030BD000040380240007000401048016826
:1012B00041F4700101600F48016841F001010160D3
:1012C0000C4A00210832116002680B4B1A40026080
:1012D000031D0A4A1A60026822F48022026005484F
:1012E0000C300160024958068039086070470000E0
:1012F00088ED00E000380240FFFFF6FE10300024C9
:101300000148FFF728BD0000340400202DE9F0411A
:101310000268264D264E274FDFF89CC0274B4FF022
:101320008048A84209D0404507D0B04205D0B84215
:1013300003D0604501D0984203D122F070044A687E
:101340002243A8421BD0404519D0B04217D0B84222
:1013500015D0604513D0984211D0194CA0420ED040
:10136000184CA0420BD0184CA04208D0174CA042F9
:1013700005D0174CA04202D0164CA04203D122F453
:101380004074CA6822434C6922F080022243026002
:101390008A68C2620A688262A84201D0984201D17A
:1013A0000969016301214161BDE8F081000001404C
:1013B0000004004000080040000C00400004014010
:1013C0000040014000440140004801400018004036
:1013D000001C004000200040FEE700000FB4054B59
:1013E00010B503A9044A029800F03CF810BC5DF85F
:1013F00014FB000095160008000000200FB4084BF5
:1014000010B504A902AA039800F02CF8044602A91A
:10141000002000F003F9204610BC5DF814FB00002A
:101420001D1600080907090E002804DB00F1E02062
:1014300080F80014704700F00F0000F1E02080F801
:10144000141D704702E008C8121F08C1002AFAD113
:1014500070477047002001E001C1121F002AFBD134
:10146000704700002DE9FF4F8BB09A460F460546A6
:10147000002606E025280BD052460D9990476D1C9A
:10148000761C28780028F5D10FB03046BDE8F08FE3
:101490000024A0460122604900E0044315F8013F02
:1014A000203B02FA03F00842F7D128782E2817D102
:1014B00015F8010F44F004042A280ED06FF02F0213
:1014C0002878A0F1300109290AD808EB880102EB3D
:1014D000410100EB01086D1CF2E757F8048B6D1C0D
:1014E000287869283ED006DC0028CDD063280BD0B0
:1014F000642804D136E0732810D075284BD05246AA
:101500000D999047761C85E017F8040B8DF80000C4
:1015100000208DF80100E946012003E057F8049B04
:101520004FF0FF3061074FF0000401D40AE0641C63
:1015300044450DDA8442FADB19F804100029F6D18B
:1015400006E0641C8442FCDB19F804100029F8D181
:10155000264404E019F8010B52460D999047641E89
:10156000F8D257E001CF4FF00A0B002802DA4042D0
:101570002D2102E0210504D52B218DF82410012115
:1015800003E0E10705D02021F7E70DF120090891DC
:101590000CE00021F9E701CF4FF00A0BF9E75946BB
:1015A000FEF7D3FE01F1300209F8012D0028F6D133
:1015B000ADEB090000F1200B600701D44FF00108EA
:1015C000D84502DDA8EB0B0000E000208046002497
:1015D00006E009A85246005D0D999047641C761CF0
:1015E00008988442F5DB04E0302052460D9990477C
:1015F000761CB8F10001A8F10108F5DC05E019F846
:10160000010B52460D999047761CBBF10001ABF1DE
:10161000010BF4DC6D1C34E7092801000A68531C37
:101620000B6010707047704770B50546002D05D0EF
:10163000164E3068854209D1002070BD502080F3DD
:101640001188BFF34F8FBFF36F8FFEE700F070FD7F
:101650006C6900F08DFD7068844202D0B0688442ED
:1016600001D1022070BD0A48844205D1A86A08B1A0
:10167000022070BD032070BD05481438844202D09A
:101680000CB1012070BD042070BD00003C000020A2
:101690005005002005490968C90105D54FF0604192
:1016A0000A68002AFCD0087070470000FCED00E0DA
:1016B00000207047EFF30580002801D0012070471B
:1016C00000207047BCB0FEF793FFFFF7A5FDFFF7C2
:1016D00063FC344890E80E00C068CDE939233891A6
:1016E0003B90002138A800F080F82F4C60621C224B
:1016F0002C49103131A8FEF7F4FD002131A800F08B
:1017000003F960601C2227492C312AA8FEF7E9FD65
:1017100000212AA800F0F8F8A0601C2221494831D5
:1017200023A8FEF7DEFD002123A800F0EDF8E0601D
:101730001C221C4964311CA8FEF7D3FD00211CA803
:1017400000F0E2F820611C221649803115A8FEF74E
:10175000C8FD002115A800F0D7F860611C221149CE
:101760009C310EA8FEF7BDFD00210EA800F0CCF8BC
:10177000A0611C220B49B83107A8FEF7B2FD002179
:1017800007A800F0C1F8E0611C220649D431684680
:10179000FEF7A7FD0021684600F0B6F8206200F0D1
:1017A00013F8FEE75C30000804000020014600202A
:1017B000842900D0C81C704710B5002800D1012032
:1017C00000F056FD002010BD10B500F093FE002083
:1017D00010BD10B5FFF76EFF18B1BDE8104001F065
:1017E000DFBABDE8104001F0D5BA38B5D0E9004104
:1017F0008268002A07D0C3682BB1002000902046E1
:1018000000F0A1FF38BD2046BDE83840002200F0BE
:1018100075BF00002DE9FF4105460E4602960027E0
:101820000197002E1ED003970024501C21D002B136
:101830001446FFF73FFF69464FF01008F8B103AABE
:10184000091D304601F0ACF9012815D00097039826
:10185000F8B114494FF080500860BFF34F8FBFF3C9
:101860006F8F16E080200090DDE9011207C5BDE80A
:10187000FF814FF0FF34DCE7CDF80080E7E7224638
:10188000091D304601F0EEF8012806D044B1402091
:1018900000909DE8070007C5E9E7CDF80080F8E76C
:1018A0000020F5E704ED00E037B582B005461446A8
:1018B00000200190002C00D10124FFF7FBFEA8B10D
:1018C000002301AA03A9284601F06CF8012802D0E0
:1018D000FF2005B030BD019890B10A494FF080500B
:1018E0000860BFF34F8FBFF36F8F09E000232246DC
:1018F00003A9284600F0A4FF012801D0FF20E8E753
:101900000020E6E704ED00E07FB504460D4661697E
:10191000B4F90800002910D0A16971B1FFF746FFA2
:10192000D4E90521CDE901210090D4E900102B462E
:10193000226901F0F3F9039010E0FFF737FF03A9E4
:10194000CDE90001208A2B4682B2D4E9001001F0D3
:10195000B3F9012802D0002004B070BD0398FBE762
:1019600010B500F047FD002010BD10B500F0A8FC38
:10197000002010BD2DE9F04104460F46174E756951
:101980003068001D00F02EFB38B9306890F82C103C
:1019900001208840B1698143B161601C07D137B132
:1019A0003168BDE8F041091D0D4800F0B5BB2C447D
:1019B00030684460AC4206D23168B068091DBDE8A9
:1019C000F04100F091BB31687068091D00F08CFB9C
:1019D000306B844200D23463BDE8F0813C000020CB
:1019E0005005002070B5044600F0A2FB1D4D28698B
:1019F000401C2861286810B1E86938B10CE02C60FF
:101A00002869012808D100F057F905E02868E16A43
:101A1000C06A884200D82C60E86A401CE8626064B2
:101A2000E06A0121AA6981401143A9610E4900EBD6
:101A3000800001EB8000211D00F06EFB00F098FBA0
:101A4000E86900280CD02868E16AC06A884207D299
:101A500006494FF080500860BFF34F8FBFF36F8F80
:101A600070BD00003C0000207404002004ED00E084
:101A700070B50C4D0C4E11E000F05AFBF068C468D4
:101A8000201D00F0AFFA2869401E2861E868401E5A
:101A9000E86000F06DFB204600F053F8E86800288D
:101AA000EAD170BD3C0000203C05002030B40B465C
:101AB000026C002A0CD0C1681144C1604468A14284
:101AC00001D30168C160C16830BC1846FEF709BC8B
:101AD00030BC70472DE9F041044617460026A56B3F
:101AE000226C002A10D0C7B1E068FEF7FAFBE1686B
:101AF000206C091AE1602268914202D26168081ADA
:101B0000E060022F16D017E02068A8B9606801F0E5
:101B1000B5F90646002060600EE0A068FEF7E1FB24
:101B2000216CA0680844A0606168884204D32068E2
:101B3000A06001E005B16D1E6D1CA5633046BDE8D7
:101B4000F08110B5044694F85D0000280BD0012800
:101B500011D0022814D0502080F31188BFF34F8F8A
:101B6000BFF36F8FFEE7206B00F018FB2046BDE847
:101B7000104000F013BB2046BDE8104000F00EBB43
:101B800010BD00004FF470510F48420706D0C01D31
:101B900020F007000C49411AC1F570510B4A106042
:101BA000002353600144083921F00701103A116005
:101BB0004B600B600B1A436001604068906050609E
:101BC0004FF00040D0607047640500209000002076
:101BD000074E4FF08054074DFFF74AFF3068012849
:101BE000FAD92C60BFF34F8FBFF36F8FF4E700007B
:101BF0007404002004ED00E070B51D46049C00292B
:101C000009D02260E06321640121204600F0D2FD6A
:101C100084F84C5070BD2460F4E72DE9F04781460C
:101C2000DDE908580A9C0E4617469A46B900A522D7
:101C3000206BFEF768FB206B7F1E00EB870020F017
:101C40000707780707D0502080F31188BFF34F8F24
:101C5000BFF36F8FFEE700202218315C82F834104A
:101C6000315C11B1401C1028F6D3002684F8436083
:101C7000072D00D30625E562E5642665201D00F0EA
:101C800030FA04F1180000F02CFA2461C5F10700C5
:101C9000A06164626665A66584F85C605246494648
:101CA000384600F08DF92060B8F1000F01D0C8F877
:101CB0000040BDE8F087000070B50024124D04EB31
:101CC000840005EB800000F001FA641C072CF6D3B9
:101CD0000D488C3000F0FAF90B48A03000F0F6F90E
:101CE0000948B43000F0F2F90748C83000F0EEF9C6
:101CF0000548DC3000F0EAF9034904488C314160C2
:101D00001431816070BD0000740400203C0000208C
:101D100030B5134900E011460A688242FBD34B6894
:101D20005C18844203D140681844486008460D6836
:101D300044682318AB420DD1094B103B1B689A42F3
:101D400006D05268224442600A681268026002E0CB
:101D5000036000E00260814200D0086030BD0000F6
:101D60009000002010B5044600F0E2F9A06B20B10D
:101D7000002400F0FDF9204610BD0124F9E710B55C
:101D8000044600F0D5F9A06BE16B884201D1012433
:101D900000E0002400F0ECF9204610BD2DE9F047EA
:101DA00080460C46914600262068002821D0214616
:101DB00048684068486001F10807B84201D14068AE
:101DC00048604868D0F80CA0606845686560BD420E
:101DD00001D1696861606068C56806EBC60008EB00
:101DE00080014B460122284600F0C0FA761C55457A
:101DF000EAD13046BDE8F087074841680968002904
:101E000005D04168C968C9684968016370474FF0E7
:101E1000FF310163704700003C000020002101E019
:101E2000401C491C0278A52AFAD0880880B2704765
:101E300009484068401C07D0502080F31188BFF348
:101E40004F8FBFF36F8FFEE7502080F31188BFF3F1
:101E50004F8FBFF36F8FFEE7980000202DE9F04110
:101E6000044600F065F994F9455004F1240609E0B0
:101E7000606A48B1304601F04DF808B100F01AFB35
:101E80006D1E6DB2002DF3DC4FF0FF3684F8456017
:101E900000F06EF900F04CF994F9445004F1100789
:101EA00009E0206948B1384601F034F808B100F083
:101EB00001FB6D1E6DB2002DF3DC84F84460BDE8BB
:101EC000F04100F055B910B504462046FEF734FA4B
:101ED0002046FEF72AFA202101E02154401C0F2859
:101EE000FBD300212154204410BD00002DE9F04116
:101EF0000546002600F044FB304F386808B9FFF76C
:101F000041FEF86805424AD18DB1083568070ED008
:101F100005F00700C0F108000544680707D050200D
:101F200080F31188BFF34F8FBFF36F8FFEE7B5B318
:101F30007868854233D8214910310846046801E0A9
:101F4000214604466068A84202D220680028F7D1E2
:101F50003868844223D00E680836206808606068BC
:101F6000411B10290ED96019420707D0502080F379
:101F70001188BFF34F8FBFF36F8FFEE7416065603D
:101F8000FFF7C6FE61687868401A7860BA689042C8
:101F900000D2B860F868014361600020206000F062
:101FA000F7FF700707D0502080F31188BFF34F8FE1
:101FB000BFF36F8FFEE73046BDE8F0818000002060
:101FC00024384FF08073036221F00101C16104499C
:101FD000816142606FF0020140F8201970470000F3
:101FE000311E00080169D0E901329A60D0E901236D
:101FF0005A604A68824201D182684A6000220261C6
:102000000868401E08600868704700002DE9F04726
:1020100006460B4617460024072500F0B1FADFF804
:102020009080D8F8100083423CD3DFF888906D1E72
:1020300005EB850009EB800104EBC40006EB800092
:102040000122FFF7ABFE0444002DF0D104EBC400E5
:1020500006EB80000222D8F80410FFF79FFE04442C
:1020600004EBC40006EB80000222D8F80810FFF74A
:1020700095FE04440F4904EBC40006EB80000422E3
:10208000C831FFF78BFE04440A4904EBC40006EB99
:1020900080000322DC31FFF781FE044417B1FFF713
:1020A00007FB386000F074FF2046BDE8F0870000B1
:1020B0003C00002074040020034B036003F1600027
:1020C0000860802010607047D401002000F10801F2
:1020D00041604FF0FF328260C16001610021016008
:1020E000704700210161704730B50C68621C02D056
:1020F00000F1080202E0026904E01A4653681D6814
:10210000A542FAD953684B6099608A6051600861B2
:102110000168491C016030BD42684A6093688B6069
:1021200093685960916008610168491C01607047BB
:10213000502080F31188BFF34F8FBFF36F8F0A4990
:102140004868401C486001280CD10848006810F01D
:10215000FF0F07D0502080F31188BFF34F8FBFF3DC
:102160006F8FFEE7704700009800002004ED00E04C
:1021700009494868002806D0401E4860002801D15F
:1021800080F311887047502080F31188BFF34F8F80
:10219000BFF36F8FFEE700009800002070B50028A5
:1021A00027D008380446134D6068E968084207D113
:1021B000502080F31188BFF34F8FBFF36F8FFEE77E
:1021C00022683AB1502080F31188BFF34F8FBFF3DC
:1021D0006F8FFEE78843606000F0D2F9606869683D
:1021E000084468602046FFF793FDBDE8704000F0AA
:1021F000CFBE70BD800000204FF0E02000210161C3
:10220000816105494FF47A720968B1FBF2F1491E08
:1022100041610721016170473800002010B5FEF7C9
:1022200019F8114910280ED300F1E02090F8F003BE
:102230000A78904207D2502080F31188BFF34F8F65
:10224000BFF36F8FFEE709480068896800F4E0601B
:10225000884207D9502080F31188BFF34F8FBFF316
:102260006F8FFEE710BD0000980000200CED00E02D
:1022700010B502460020002A12D00F48806B38B1FA
:10228000502080F31188BFF34F8FBFF36F8FFEE7AD
:1022900000F076F900211046FFF76CFB00F078FEA5
:1022A000002807D105494FF080500860BFF34F8FD9
:1022B000BFF36F8F10BD00003C00002004ED00E074
:1022C00070B50446FFF734FF254D04B92C68201D76
:1022D000FFF788FE58B9E06A224A00EB800152F805
:1022E000211021B901218140A8698843A861A06A11
:1022F00018B104F11800FFF775FEE86A401CE862A7
:102300002868844208D11748211DC830FFF704FF10
:10231000E868401CE86007E02869401E2861204604
:10232000FFF70FFCFFF768FDFFF722FFE8690028C1
:1023300014D02868844211D1A86B38B1502080F3A2
:102340001188BFF34F8FBFF36F8FFEE706494FF041
:1023500080500860BFF34F8FBFF36F8F70BD0000D8
:102360003C0000207404002004ED00E02DE9F04161
:102370000C4616461A49002816D00546256005F178
:1023800034006060E86A2061286BE061686CA060DE
:10239000E86C6061686DA0610027052B12D00868A9
:1023A000854203D1277311E00D68E7E72373032B00
:1023B0000CD100F0E5F8A86A08B10220207300F003
:1023C000E7FD03E02846FFF72FF920732EB1286BB5
:1023D000FFF724FD2084BDE8F0812784FBE700009F
:1023E0003C00002002498A6A0260496941607047E6
:1023F0003C0000207FB5064600243470284801695F
:102400000391006900EBC0008000FFF76FFD0546F7
:10241000280043D000220399FFF7F8FD03900294AF
:1024200032E0029800EBC00005EB8000017B05293B
:102430000ED2DFE801F0030507090B00582408E07D
:10244000522406E0422404E0532402E0442400E045
:10245000002441683046FFF736FD0646029800EB3F
:10246000C00005EB80008168028CCDE90021036982
:1024700022460CA13046FEF7C1FF3046FDF755FF5E
:1024800006440298401C0290DDE902018842C8D34C
:1024900004B02846BDE87040FFF780BE7FBD000055
:1024A0003C00002009256309257509257509257556
:1024B0000D0A000001490120486270473C000020DD
:1024C00010B50C4600280AD0094909681831FFF7F1
:1024D0000BFE2046BDE810400121FFF74BBA50200B
:1024E00080F31188BFF34F8FBFF36F8FFEE70000BB
:1024F0003C00002010B586B000240594049403AA83
:1025000004A905A8FFF7D8FDDDE90410CDE90041D5
:102510000290002316A11848039A00F0FFFB174908
:10252000486308B1012000E00020012809D0401CC8
:102530001BD1502080F31188BFF34F8FBFF36F8FF3
:10254000FEE7502080F31188BFF34F8FBFF36F8FEA
:102550004FF0FF3008630120C8614C61FFF763F85A
:1025600006B0BDE8104000F04FB806B010BD000046
:1025700049444C4500000000D11B00083C000020ED
:102580000248816B491C8163704700003C000020B9
:1025900010B51B4CA06B002802D00120606210BD5A
:1025A00000206062FFF784F82064E26B904204D957
:1025B0002168821A4B6D1A444A65E063A069B0FA3B
:1025C00080F0C0F11F000F4900EB800051F820207F
:1025D00072B101EB800041684968416000F1080276
:1025E000914201D1496841604068C068206010BDD7
:1025F000502080F31188BFF34F8FBFF36F8FFEE73A
:102600003C000020740400201CB537480168374A9C
:10261000914207D1502080F31188BFF34F8FBFF351
:102620006F8FFEE700683149491E884207D150206C
:1026300080F31188BFF34F8FBFF36F8FFEE72C49F4
:1026400008780190FF200870087800909DF800003D
:102650009DF8002000F0F000904207D0502080F359
:102660001188BFF34F8FBFF36F8FFEE79DF8000017
:10267000204B00F0500018700720986006E0986822
:10268000401E98609DF80000400000909DF80000FA
:102690000006F4D49868032807D0502080F31188EE
:1026A000BFF34F8FBFF36F8FFEE74FF4407098601A
:1026B000019808700C482030016841F470010160F5
:1026C000016841F070410160FFF796FD00205860FD
:1026D000FDF788FD0848016841F040410160FDF7C1
:1026E0006DFD00201CBD000000ED00E071C20F4137
:1026F00000E400E09800002034EF00E0F8B5054663
:102700000E461746002D14D0DEB105FB06F0503002
:10271000FFF7ECFB044654B104F15002002084F8AA
:1027200046003B46314628460094FFF765FA2046AE
:10273000F8BD502080F31188BFF34F8FBFF36F8F28
:10274000FEE70020E3E738B5049D002804D05BB124
:1027500002B189B1C2B120E0502080F31188BFF3EB
:102760004F8FBFF36F8FFEE7502080F31188BFF3C8
:102770004F8FBFF36F8FFEE7502080F31188BFF3B8
:102780004F8FBFF36F8FFEE739B1502080F3118870
:10279000BFF34F8FBFF36F8FFEE7502400941C46AA
:1027A000012384F846302B460094FFF725FA204693
:1027B00038BD000070B504460D46002C25D0FFF74B
:1027C000B7FCD4E90F20216802FB001161600021F1
:1027D000A1632168A160E06B2268216C401E00FBB0
:1027E0000121E1604FF0FF3084F8440084F8450097
:1027F00004F110008DB1FFF769FC04F12400FFF72C
:1028000065FCFFF7B5FC012070BD502080F31188F6
:10281000BFF34F8FBFF36F8FFEE721690029F0D020
:1028200000F078FB0028ECD004494FF0805008609D
:10283000BFF34F8FBFF36F8FE3E7000004ED00E0BD
:102840002DE9FF4782B004468A461E460025002C2B
:1028500003D0BAF1000F08D011E0502080F31188A6
:10286000BFF34F8FBFF36F8FFEE7206C38B150205E
:1028700080F31188BFF34F8FBFF36F8FFEE7022EF7
:102880000AD1E06B012807D0502080F31188BFF3F4
:102890004F8FBFF36F8FFEE700F06EFA48B90498D0
:1028A00038B1502080F31188BFF34F8FBFF36F8F83
:1028B000FEE74FF000094FF08057DFF8E480FFF7A4
:1028C00037FCA06BE16B884205D3022E03D004983D
:1028D00008B325B327E0324651462046FFF7FAF801
:1028E000616A59B104F1240000F014FB68B1C8F822
:1028F0000070BFF34F8FBFF36F8F06E028B1C8F8A9
:102900000070BFF34F8FBFF36F8FFFF731FC0120D3
:1029100006B0BDE8F087FFF72BFC0020F8E768461B
:10292000FFF760FD0125FFF723FCFFF729FEFFF706
:10293000FFFB94F94400401C01D184F8449094F9C1
:102940004500401C01D184F84590FFF711FC04A913
:10295000684600F073F930B12046FFF77FFA00F0C7
:1029600017FB0020D4E72046FFF709FA90B104F1E5
:1029700010000499FFF7A4FD2046FFF76FFA00F05E
:1029800007FB00289BD1C8F80070BFF34F8FBFF33F
:102990006F8F94E72046FFF761FA00F0F9FA8EE7AF
:1029A00004ED00E02DE9F0470446894690461F46B5
:1029B000002C03D0B9F1000F08D011E0502080F3B3
:1029C0001188BFF34F8FBFF36F8FFEE7206C38B1D4
:1029D000502080F31188BFF34F8FBFF36F8FFEE756
:1029E000022F0AD1E06B012807D0502080F3118814
:1029F000BFF34F8FBFF36F8FFEE7FFF70FFC502041
:102A0000EFF3118680F31188BFF34F8FBFF36F8F01
:102A1000A06BE16B884206D3022F04D0002086F31E
:102A20001188BDE8F08794F945503A46494620465A
:102A3000FFF750F8681C04D06D1C84F84550012045
:102A4000EDE7606A0028FAD004F1240000F062FA91
:102A50000028F4D0B8F1000FF1D00120C8F8000030
:102A6000EDE700002DE9F74783B004468A460026CB
:102A7000002C03D0BAF1000F08D011E0502080F3F1
:102A80001188BFF34F8FBFF36F8FFEE7206C38B113
:102A9000502080F31188BFF34F8FBFF36F8FFEE795
:102AA00000F06AF948B9059838B1502080F31188D0
:102AB000BFF34F8FBFF36F8FFEE700274FF08058B3
:102AC000DFF8D890FFF734FBA56BC5B1514620461F
:102AD000FEF7ECFF6D1EA563206950B104F11000F4
:102AE00000F018FA28B1C9F80080BFF34F8FBFF388
:102AF0006F8FFFF73DFB012006B0BDE8F08705981A
:102B000008B126B107E0FFF733FB0020F4E701A886
:102B1000FFF768FC0126FFF72BFBFFF731FDFFF7FE
:102B200007FB94F94400401C01D184F8447094F9E7
:102B30004500401C01D184F84570FFF719FB05A939
:102B400001A800F07BF858B12046FFF787F900F0A4
:102B50001FFA2046FFF706F90028B3D00020CBE784
:102B60002046FFF7FFF890B104F124000599FFF724
:102B7000A7FC2046FFF772F900F00AFA0028A1D15D
:102B8000C9F80080BFF34F8FBFF36F8F9AE72046DD
:102B9000FFF764F900F0FCF994E7000004ED00E0B1
:102BA0002DE9F047044689469046002C03D0B9F140
:102BB000000F08D011E0502080F31188BFF34F8F31
:102BC000BFF36F8FFEE7206C38B1502080F311887F
:102BD000BFF34F8FBFF36F8FFEE7FFF71FFB502050
:102BE000EFF3118780F31188BFF34F8FBFF36F8F1F
:102BF000A66BF6B194F9445049462046FEF756FFBD
:102C0000761EA663681C04D06D1C84F84450012015
:102C100010E020690028FAD004F1100000F07AF9E1
:102C20000028F4D0B8F1000FF1D00120C8F800005E
:102C3000EDE7002087F31188BDE8F0872DE9F0412A
:102C400005460C46002D11D0C4B1FFF771FA194E9C
:102C500070696B68C11A2268571C17D02F68B66A52
:102C6000B74215D0834213D801241DE0502080F3D1
:102C70001188BFF34F8FBFF36F8FFEE7502080F3B3
:102C80001188BFF34F8FBFF36F8FFEE700240BE077
:102C90008A4206D9501A20602846FFF7A3FB002479
:102CA00002E0002020600124FFF762FA2046BDE820
:102CB000F08100003C0000202DE9FF5F8146DDE946
:102CC0000E788A4616469B46B000FFF70FF9054678
:102CD00028000AD06020FFF709F904460CB12563EB
:102CE00004E02846FFF75AFA00E000249CB10020D7
:102CF00084F85D00CDE90240CDE900785B463246BC
:102D000051464846FEF789FF2046FEF76BFE01203C
:102D100004B0BDE8F09F4FF0FF30F9E7F0B585B0A3
:102D20000746DDE90A600C9C002815D0E4B1602557
:102D300003952063022084F85D00002004ADCDE9F6
:102D40000240CDE900653846FEF767FF2046FEF7F2
:102D500049FE049805B0F0BD502080F31188BFF300
:102D60004F8FBFF36F8FFEE7502080F31188BFF3C2
:102D70004F8FBFF36F8FFEE70548C169002903D06D
:102D8000806B18B100207047012070470220704707
:102D90003C00002001484069704700003C000020D2
:102DA00010B5FFF73BFA0148406910BD3C00002018
:102DB0002DE9F04100262F4FB86B002808D0386A63
:102DC000401C3862786A00B101263046BDE8F081C7
:102DD0007D696D1C7D619DB97868006838B15020AF
:102DE00080F31188BFF34F8FBFF36F8FFEE77868D2
:102DF000B9687960B860B86A401CB862FEF7FCFF39
:102E0000386BDFF8748085420DD37868006838B17C
:102E10007868C068C468606885420ED2386302E092
:102E20004FF0FF3038633868C06A00EB800058F814
:102E300020000128C6D90126C4E7201DFFF7D2F8DB
:102E4000A06A18B104F11800FFF7CCF8E06A01217C
:102E5000BA6981401143B96100EB800008EB800042
:102E6000211DFFF759F9E06A3968C96A8842CCD355
:102E70000126CAE73C0000207404002070B5044617
:102E80000020002C41D0214D29688C4207D05020D1
:102E900080F31188BFF34F8FBFF36F8FFEE7216D73
:102EA00071B1491E2165E36CE26A9A422DD0002976
:102EB0002BD1201DFFF796F8154A012140B112E0F1
:102EC000502080F31188BFF34F8FBFF36F8FFEE761
:102ED000E06A00EB800352F8233023B901FA00F3D3
:102EE000A8699843A861E06CE062C0F10700A061A6
:102EF000E06AAB6981401943A96100EB800002EBF5
:102F00008000211DFFF708F9012070BD3C00002062
:102F1000740400202DE9F041C068C468002C15D06D
:102F200004F118000746FFF75DF8174DAA6B01265C
:102F3000A2B139461548FFF7EFF8E06A2968C96A77
:102F400088421ED901206E62BDE8F081502080F3D6
:102F50001188BFF34F8FBFF36F8FFEE7201DFFF780
:102F600041F8E06AAA6906FA00F11143A96107492C
:102F700000EB8000B43901EB8000211DFFF7CCF895
:102F8000DBE70020E0E700003C00002028050020EF
:102F90002DE9F041002400272D4DA86B002807D013
:102FA000FFF7C6F8A86B401EA863A86B40B14AE0C3
:102FB000502080F31188BFF34F8FBFF36F8FFEE770
:102FC0002869E8B3DFF88C8001261EE0D8F80C00F1
:102FD000C46804F11800FFF705F8201DFFF702F898
:102FE000E06AAA6906FA00F11143A961194900EBE8
:102FF0008000B43901EB8000211DFFF78DF8E06AF5
:103000002968C96A884200D36E62D8F80000002897
:10301000DCD10CB1FEF7F0FE2C6A44B1FFF7C8FE1C
:1030200000B16E62641E002CF8D100202862686A2C
:1030300030B10127084938070860BFF34F8F00E01F
:1030400001E0BFF36F8FFFF793F83846BDE8F081DA
:103050003C0000202805002004ED00E010000000E6
:10306000040000000000000000000000F43100082F
:103070002D1000080000000000000000800000008B
:1030800000000000000000009C310008BD10000896
:10309000FDFF0000000000008000000000000000B4
:1030A00000000000A8310008D9100008FDFF000052
:1030B0000000000080000000000000000000000090
:1030C000B4310008F5100008FDFF0000000000000A
:1030D000800000000000000000000000C031000877
:1030E00011110008FDFF000000000000800000003A
:1030F0000000000000000000CC310008451100086D
:10310000FDFF000000000000800000000000000043
:1031100000000000D8310008CD11000801000000B7
:10312000000000008000000000000000000000001F
:10313000E831000855100008010000000000000000
:10314000800000000000000000000000D8310008EE
:10315000CD11000800000000000000008000000009
:103160000000000000000000A8310008D91000088D
:10317000FDFF0000000000008000000000000000D3
:103180000000000000000000000000000102030435
:103190000607080900000000010203046D7954616C
:1031A000736B3032000000006D795461736B303303
:1031B000000000006D795461736B30340000000032
:1031C0006D795461736B3035000000006D79546186
:1031D000736B303600000000735072696E74665F66
:1031E0005441534B37000000517565756550726945
:1031F0006E74660064656661756C745461736B000F
:103200002032000800000020A40000004414000840
:10321000C4320008A4000020C46000005414000858
:10322000000000000000000000000000000000009E
:10323000000000000000000000000000000000008E
:10324000000000000000000000000000010000007D
:1032500010000000000000000024F4000000000046
:10326000000000000000000000000000000000005E
:10327000000000000000000000000000000000004E
:10328000000000000000000000000000000000003E
:10329000000000000000000000000000000000002E
:1032A000000000000000000000000000000000001E
:1032B000000000000000000000000000AAAAAAAA66
:0432C000000000000A
:040000050800018965
:00000001FF
