:020000040800F2
:10000000386000205D0200080B100008C10E0008D7
:1000100009100008B903000891130008000000004F
:100020000000000000000000000000009D0100082A
:10003000BB03000800000000F9010008A51100083A
:1000400077020008770200087702000877020008AC
:10005000770200087702000877020008770200089C
:10006000770200087702000877020008770200088C
:10007000770200087702000877020008770200087C
:10008000770200087702000877020008770200086C
:10009000770200087702000877020008770200085C
:1000A00077020008B91200087702000877020008FA
:1000B000770200087702000877020008770200083C
:1000C000770200087702000877020008770200082C
:1000D000770200087702000877020008770200081C
:1000E000770200087702000877020008770200080C
:1000F00077020008770200087702000877020008FC
:1001000077020008770200087702000877020008EB
:1001100077020008770200087702000877020008DB
:1001200077020008770200087702000877020008CB
:1001300077020008770200087702000877020008BB
:1001400077020008770200087702000877020008AB
:10015000770200087702000877020008770200089B
:10016000770200087702000877020008770200088B
:1001700077020008770200087702000800000000FC
:100180007702000877020008DFF80CD000F002F9CF
:100190000048004711160008386000202C4B1968F1
:1001A0000868B0E8F04F80F30988BFF36F8F4FF015
:1001B000000080F3118870470000000008480068C4
:1001C000006880F308884FF0000080F3148862B65E
:1001D00061B6BFF34F8FBFF36F8F00DF00BF00BF6B
:1001E00008ED00E0DFF80C00016841F470010160E7
:1001F000704700BF88ED00E0EFF30980BFF36F8F19
:10020000134B1A681EF0100F08BF20ED108A20E96A
:10021000F04F106009B44FF0500080F31188BFF325
:100220004F8FBFF36F8F02F0C3F84FF0000080F3E1
:10023000118809BC19680868B0E8F04F1EF0100F6B
:1002400008BFB0EC108A80F30988BFF36F8F704746
:1002500040000020EFF3058070470000064880470B
:1002600006480047FEE7FEE7FEE7FEE7FEE7FEE79B
:10027000FEE7FEE7FEE7FEE76512000889010008D9
:100280002DE9F05F0546002092469B4688460646CB
:10029000814640241BE0284641464746224600F05E
:1002A00069F853465A46C01A914110D31146184670
:1002B000224600F050F82D1A67EB01084F462246FF
:1002C0000120002100F047F817EB00094E41201EE5
:1002D000A4F10104DFDC484631462A464346BDE826
:1002E000F09F40EA01039B0703D009E008C9121FF1
:1002F00008C0042AFAD203E011F8013B00F8013BE0
:10030000521EF9D27047D2B201E000F8012B491E0B
:10031000FBD270470022F6E710B513460A460446A2
:100320001946FFF7F0FF204610BD30B50B460146D9
:1003300000202022012409E021FA02F59D4205D384
:1003400003FA02F5491B04FA02F52844151EA2F12E
:100350000102F1DC30BD202A04DB203A00FA02F170
:10036000002070479140C2F1200320FA03F31943A3
:1003700090407047202A04DB203A21FA02F0002145
:10038000704721FA02F3D040C2F1200291400843A5
:1003900019467047064C074D06E0E06840F001033F
:1003A00094E8070098471034AC42F6D3FFF7F0FE0C
:1003B0001030000830300008FEE77047704700003A
:1003C0002DE9F84F0022DFF89091DFF88C8109F1D8
:1003D00008094FF0010E4FF00F0C09F1040A0EFA54
:1003E00002F60B683340B34271D14C68022C01D045
:1003F000122C11D1D40800EB84073D6A5407E40E97
:100400000CFA04FB25EA0B05D1F810B00BFA04FB3B
:100410004BEA050BC7F820B0076854000325A54038
:10042000AF4391F804B00BF0030B0BFA04FB4BEA5B
:10043000070BC0F800B04F68012F05D0022F03D082
:10044000112F01D0122F11D18768AF43D1F80CB012
:100450000BFA04FB4BEA070BC0F808B04768B74338
:100460000E79C6F3001696403E434660C668AE431A
:100470008D68A5403543C5604C68E40065D5374CB0
:10048000256845F480452560246804F48044009480
:10049000334C22F003052544D5F808789407260F3D
:1004A0000CFA06F4A7432F4CA04201D1002424E00B
:1004B0002D4CA04201D101241FE02C4CA04201D1BF
:1004C00002241AE02A4CA04202D1032415E03CE0A9
:1004D000284CA04201D104240FE0274CA04201D1B6
:1004E00005240AE0254CA04201D1062405E0244C55
:1004F000A04201D1072400E00824B4403C43C5F8E1
:100500000848D8F800409C434D68ED0300D51C43D3
:10051000C8F80040104D2D1D2C689C434E68B60352
:1005200000D51C432C60D9F800409C434D68ED0277
:1005300000D51C43C9F80040DAF800409C434D68E0
:10054000AD0200D51C43CAF80040521C102AFFF42B
:1005500046AFBDE8F88F0000003C0140443802403F
:100560000030014000000240000402400008024048
:10057000000C02400010024000140240001802402B
:10058000001C02400069084201D001207047002091
:100590007047426931EA020201D081617047090463
:1005A00081617047002A01D081617047090481612F
:1005B000704700000148806870470000300000204C
:1005C0000248816802781144816070473000002041
:1005D00010B50B48016841F400710160016841F4F5
:1005E00080610160016841F480710160032000F0C6
:1005F0008DF8002000F006F800F03EF8002010BD55
:10060000003C024010B588B001460022192000F0DD
:100610005DF8192000F04CF800241348016841F0FF
:1006200001010160006800F00100019002A903A827
:1006300000F020F900F042F940000C49B0FBF1F164
:10064000491E0C480A4A026040F2E732C26041602B
:100650000461846000F040FB10B1012008B010BDBF
:10066000044800F056FBF9E74438024040420F00CE
:10067000000001400803002082B00C48016841F4EA
:1006800080410160006800F4804001900748001F2D
:10069000016841F080510160006800F080500190D5
:1006A00000220F21901E02B000F010B84438024022
:1006B000002809DB00F01F02012191404009800061
:1006C00000F1E020C0F8001170470000F0B40D46C2
:1006D0000D4B1B68C3F30223C3F10704042C00D99C
:1006E0000424191D072901D2002300E0DB1E012686
:1006F00006FA04F1491E294099409E40761E164094
:100700003143F0BC00F06ABE0CED00E000F00701E0
:10071000054A10684FF6FF03184040EA01200349DC
:1007200008431060704700000CED00E00000FA057F
:100730002DE9F04704460D46002C13D0DFF8249134
:10074000D9F80000EFB200F00F00A8420CD289F8EF
:100750000070D9F8000000F00F00A84204D001207A
:10076000BDE8F0870120FBE720683F4E810712D5E6
:10077000400703D5306840F4E0503060207800072F
:1007800003D5306840F4604030603068A16820F0E4
:10079000F000084330602078C00731D032496068EB
:1007A0000839012808D002280BD0032809D009688D
:1007B00089070BD40120D3E70968890306D40120F7
:1007C000CEE70968890101D40120C9E7316821F029
:1007D000030101433160FFF7EDFE804641F2883AA4
:1007E00007E0FFF7E7FEA0EB0800504501D9032022
:1007F000B6E73068616800F00C00B0EB810FF0D113
:10080000D9F8000000F00F00A84209D989F800705B
:10081000D9F8000000F00F00A84201D001209FE7A6
:100820002078400705D53068E16820F4E05008439F
:1008300030602078000706D53068216920F46040D8
:1008400040EAC100306000F049F83168074AC1F35E
:100850000311515CC840064908600020FFF7D2FE32
:1008600000207DE7003C024008380240942F000839
:100870003C0000200F2202600B4A136803F00303C0
:100880004360136803F0F0038360136803F4E053DC
:10089000C360126802F46042D20802610348006833
:1008A00000F00F000860704708380240003C02402A
:1008B00001480068704700003C00002000B5FFF7C9
:1008C000F7FF04490968044AC1F34231515CC8404A
:1008D00000BD000008380240A42F000810B51748DA
:1008E000006810F00C01164816D04310042912D0ED
:1008F000082911D1114C241F216801F03F02216801
:1009000049020AD52068C0F38810A0FB0301002328
:10091000FFF7B6FC09E0184610BD21680023C1F3BB
:100920008811A1FB0001FFF7ABFC2168C1F3014175
:10093000491C4900B0FBF1F010BD0000083802402E
:100940000024F4002DE9F84F0446002C10D0207844
:10095000DC4DC00757D0DB4808300168C1F3810186
:1009600001290DD00068C0F38100022803D00EE0F9
:100970000120BDE8F88FD348001D0068400206D56D
:10098000286880033FD5606870BB0120F1E760688C
:10099000B0F5803F10D0B0F5A02F12D0286820F419
:1009A00080302860286820F4802028606068E0B1EA
:1009B000FFF700FE064614E0286840F48030286007
:1009C000F4E7286840F480202860286840F48030EC
:1009D0002860EBE7FFF7EEFD801B642801D90320B8
:1009E000C7E728688003F5D50DE0FFF7E3FD06466D
:1009F00006E0FFF7DFFD801B642801D90320B8E77C
:100A000028688003F5D42078AF4F80074FF00008A6
:100A100049D5AC480830016811F00C0F09D00068C6
:100A2000C0F38100022814D1A648001D00684002CE
:100A30000FD42868800704D5E068012801D0012080
:100A400097E72868216920F0F80040EAC100286093
:100A500029E0E068B8B101203860FFF7ABFD064639
:100A600006E0FFF7A7FD801B022801D9032080E7DD
:100A700028688007F5D52868216920F0F80040EA49
:100A8000C10028600FE0C7F80080FFF793FD06461D
:100A900006E0FFF78FFD801B022801D9032068E7DD
:100AA00028688007F5D42078000729D5DFF814924C
:100AB0008648616909F1740989B101210160FFF774
:100AC00079FD064606E0FFF775FD801B022801D977
:100AD00003204EE7D9F800008007F4D510E0C0F8F5
:100AE0000080FFF767FD064606E0FFF763FD801B09
:100AF000022801D903203CE7D9F800008007F4D48C
:100B00002078400772D50026DFF8B8A10AF1400A24
:100B1000DAF80000C0000BD4DAF8000040F0805092
:100B2000CAF80000DAF8000000F0805000900126BA
:100B3000DFF89CB1DBF80000C00515D4DBF800003D
:100B400040F48070CBF80000FFF734FD814607E0E9
:100B5000FFF730FDA0EB0900022801D9032008E7C8
:100B6000DBF80000C005F3D5DFF858B1A0680BF141
:100B7000700B012813D0052818D0DBF8000020F0F6
:100B80000100CBF80000DBF8000020F00400CBF8F7
:100B90000000A06830B3FFF70DFD81461DE0DBF8D3
:100BA000000040F00100CBF80000F2E7DBF80000A5
:100BB00040F00400CBF80000DBF8000040F001003A
:100BC000CBF80000E5E7FFF7F5FCA0EB090141F2E7
:100BD0008830814201D90320CBE6DBF80000800792
:100BE000F1D512E0FFF7E6FC81460AE015E0FFF7D9
:100BF000E1FCA0EB090141F28830814201D90320D8
:100C0000B7E6DBF800008007F1D4012E05D1DAF851
:100C1000000020F08050CAF80000A069C0B3294944
:100C200008310968C1F38101022949D0022805D0A1
:100C3000C7F86080FFF7BEFC04463CE0C7F8608060
:100C4000FFF7B8FC064606E0FFF7B4FC801B02285D
:100C500001D903208DE628688001F5D4D4E9070185
:100C60000843616AA26A4FF0FF33890103EB520225
:100C700041EA0241084394F82C1040EA016111480E
:100C8000001D016001203866FFF794FC044607E070
:100C900014E0FFF78FFC001B022801D9032068E64F
:100CA00028688001F5D509E0FFF784FC001B0228C5
:100CB00001D903205DE628688001F5D4002058E6BC
:100CC000012056E60038024000004742800E4742AD
:100CD000007000407047704710B50446002C03D0E8
:100CE00094F83D0010B107E0012010BD002084F809
:100CF0003C00204600F00CF8022084F83D00211D45
:100D0000206800F0DFFA012084F83D00002010BDCB
:100D100070470168CA6842F00102CA6000688168D1
:100D200001F00701062903D0016841F001010160CB
:100D300000207047704770B50446206801694FF085
:100D40000005C943890716D4C168C943890712D46D
:100D5000E91E01610120207720688069800703D0A7
:100D60002046FFF7E7FF05E0204600F09BF820460D
:100D700000F099F8257720680169C943490718D41C
:100D8000C168C943490714D46FF00401016102200E
:100D900020772068806910F4407F03D02046FFF759
:100DA000C9FF05E0204600F07DF8204600F07BF802
:100DB000257720680169C943090717D4C168C94369
:100DC000090713D46FF0080101610420207720681F
:100DD000C069800703D02046FFF7ACFF05E020463E
:100DE00000F060F8204600F05EF825772068016981
:100DF000C943C90618D4C168C943C90614D46FF0E1
:100E000010010161082020772068C06910F4407F3C
:100E100003D02046FFF78EFF05E0204600F042F8A1
:100E2000204600F040F8257720680169C943C907CA
:100E300008D1C168C943C90704D1891E0161204690
:100E400000F032F820680169C943090609D4C16875
:100E5000C943090605D46FF0800101612046FFF700
:100E600039FF20680169C943490609D4C168C943EB
:100E7000490605D46FF040010161204600F01EF8DC
:100E800020680169C94389060BD4C168C943890632
:100E900007D46FF0200101612046BDE87040FFF7E4
:100EA0001ABF70BD7047704700680349884201D17E
:100EB000FFF786BB7047000000000140704700004C
:100EC00008B52B4F4FF48048002241463846FFF7C3
:100ED00069FB284D6E000624009502E00098401E34
:100EE000009000980028F9D141463846FFF751FBA1
:100EF000641E002CF0D1009602E00098401E009085
:100F000000980028F9D10624009602E00098401EBF
:100F1000009000980028F9D141463846FFF739FB88
:100F2000641E002CF0D1009602E00098401E009054
:100F300000980028F9D10624009502E00098401E90
:100F4000009000980028F9D141463846FFF721FB70
:100F5000641E002CF0D10620009602E00099491E84
:100F6000009100990029F9D1401E0028F4D1B2E780
:100F7000000C024040420F00F0B587B0142102A8D7
:100F8000FFF7C8F900241D48016841F080010160A5
:100F9000016801F080010191016841F001010160E7
:100FA000016801F001010191016841F0080101604F
:100FB000016801F008010191016841F0020101603E
:100FC000006800F0020001900D4F4FF470450022C0
:100FD00029463846FFF7E6FA012602960394049460
:100FE00002A90848FFF7ECF90295039604940594CA
:100FF00002A93846FFF7E4F907B0F0BD30380240E7
:10100000000C024000000240FEE770474FF47A7483
:10101000204600F081FBFBE786B0124C4FF0FF3515
:101020002A466846A16A00F0C9FB9DE80B0003AAA6
:101030000BC20398202811D104990BA031F8042B7E
:1010400000F0A8F92A466846A16A00F0B7FB9DE8BF
:10105000070003AB07C303982028EDD0C82000F099
:101060005BFBDDE7040000200A2573256900000012
:10107000054D4FF4805421462846FFF78AFA642034
:1010800000F04AFBF7E70000000C0240054D4FF46A
:10109000804421462846FFF77CFA962000F03CFB6E
:1010A000F7E70000000C0240054D4FF400442146D4
:1010B0002846FFF76EFAD22000F02EFBF7E700007B
:1010C000000C02400F4DDFF840804FF0FF364FF428
:1010D00000573146A86A00F038FB044600F029FBAF
:1010E00020800AA1201D00F065F92146A86A00F0C1
:1010F000AFFB39464046FFF74CFA642000F00CFB8A
:10110000E7E7000004000020000C024068656C6CFA
:101110006F21200088B0144D144C01212846FFF7A0
:1011200031FA58B12088012819D001202080E068C8
:1011300000F067FC0EA000F02DF910E0208870B1DF
:10114000002020801C220F4901A8FFF7CAF80021C7
:1011500001A800F02AFCE0600BA000F01BF964205D
:1011600000F0DAFAD9E70000000002400400002095
:101170005461736B20332064656C657465640D0A7B
:1011800000000000782F00085461736B2033206347
:101190007265617465640D0A00000000012000F0B2
:1011A000BBFAFBE710B5502080F31188BFF34F8FD7
:1011B000BFF36F8F01F00CFD18B104494FF0805060
:1011C0000860002080F3118810BD000004ED00E0ED
:1011D00030B593B0302107A8FFF79CF8142102A87E
:1011E000FFF798F800251D48016841F08051016023
:1011F000006800F0805001901948016841F4804176
:101200000160006800F48040019001200790000414
:10121000089002240D9480010E9004200F90A821C4
:1012200010911194129007A8FFF78CFB08B1FFF7FB
:10123000C5F80F200290039404954FF4A050059038
:101240004FF480500690052102A8FFF771FA00289C
:1012500001D0FFF7B3F813B030BD000040380240B2
:10126000007000401048016841F4700101600F48AF
:10127000016841F0010101600C4A0021083211604F
:1012800002680B4B1A400260031D0A4A1A6002688A
:1012900022F48022026005480C30016002495806A1
:1012A000803908607047000088ED00E00038024097
:1012B000FFFFF6FE103000240148FFF73CBD0000A0
:1012C000080300202DE9F0410268264D264E274FE5
:1012D000DFF89CC0274B4FF08048A84209D040451A
:1012E00007D0B04205D0B84203D0604501D0984243
:1012F00003D122F070044A682243A8421BD0404523
:1013000019D0B04217D0B84215D0604513D09842DA
:1013100011D0194CA0420ED0184CA0420BD0184C42
:10132000A04208D0174CA04205D0174CA04202D0D2
:10133000164CA04203D122F44074CA6822434C697F
:1013400022F08002224302608A68C2620A688262D6
:10135000A84201D0984201D109690163012141618C
:10136000BDE8F0810000014000040040000800409A
:10137000000C0040000401400040014000440140D6
:101380000048014000180040001C004000200040C0
:10139000FEE700000FB4054B10B503A9044A0298FC
:1013A00000F03CF810BC5DF814FB0000E1150008EB
:1013B000000000200FB4084B10B504A902AA03983E
:1013C00000F02CF8044602A9002000F003F92046A2
:1013D00010BC5DF814FB0000D51500080907090EC4
:1013E000002804DB00F1E02080F80014704700F0D2
:1013F0000F0000F1E02080F8141D704702E008C8DB
:10140000121F08C1002AFAD170477047002001E07E
:1014100001C1121F002AFBD1704700002DE9FF4FC8
:101420008BB09A460F460546002606E025280BD0CD
:1014300052460D9990476D1C761C28780028F5D1EE
:101440000FB03046BDE8F08F0024A046012260496D
:1014500000E0044315F8013F203B02FA03F0084284
:10146000F7D128782E2817D115F8010F44F004047D
:101470002A280ED06FF02F022878A0F13001092918
:101480000AD808EB880102EB410100EB01086D1C52
:10149000F2E757F8048B6D1C287869283ED006DCEB
:1014A0000028CDD063280BD0642804D136E07328FF
:1014B00010D075284BD052460D999047761C85E088
:1014C00017F8040B8DF8000000208DF80100E946A4
:1014D000012003E057F8049B4FF0FF3061074FF005
:1014E000000401D40AE0641C44450DDA8442FADBAE
:1014F00019F804100029F6D106E0641C8442FCDBD4
:1015000019F804100029F8D1264404E019F8010B59
:1015100052460D999047641EF8D257E001CF4FF024
:101520000A0B002802DA40422D2102E0210504D5F1
:101530002B218DF82410012103E0E10705D02021A3
:10154000F7E70DF1200908910CE00021F9E701CF40
:101550004FF00A0BF9E75946FEF7E7FE01F13002BA
:1015600009F8012D0028F6D1ADEB090000F1200BA0
:10157000600701D44FF00108D84502DDA8EB0B004D
:1015800000E000208046002406E009A85246005DE5
:101590000D999047641C761C08988442F5DB04E0A2
:1015A000302052460D999047761CB8F10001A8F101
:1015B0000108F5DC05E019F8010B52460D9990473A
:1015C000761CBBF10001ABF1010BF4DC6D1C34E7C0
:1015D000092801000A68531C0B601070704770479F
:1015E00005490968C90105D54FF060410A68002A1C
:1015F000FCD0087070470000FCED00E00020704750
:10160000EFF30580002801D00120704700207047CB
:10161000C0B0FEF7DDFFFFF7DBFDFFF7ADFC394D96
:1016200095E80F00CDE93C01CDE93E2300213CA81F
:1016300000F03EF9344C6062D5E90401CDE938018F
:101640003BA83A90002138A800F086F8A0621C223E
:1016500005F11C0131A8FEF744FE002131A800F07D
:10166000A4F960601C2205F138012AA8FEF739FEB2
:1016700000212AA800F099F9A0601C2205F154016C
:1016800023A8FEF72EFE002123A800F08EF9E060CB
:101690001C2205F170011CA8FEF723FE00211CA8E6
:1016A00000F083F920611C2205F18C0115A8FEF7DA
:1016B00018FE002115A800F078F960611C2205F1E0
:1016C000A8010EA8FEF70DFE00210EA800F06DF98E
:1016D000A0611C2205F1C40107A8FEF702FE00214B
:1016E00007A800F062F9E0611C2205F1E0016846FC
:1016F000FEF7F7FD0021684600F057F9206200F080
:1017000013F8FEE77C2E00080400002001460020AC
:10171000842900D0C81C704710B5002800D10120D2
:1017200000F052FD002010BD10B500F0F3FD0020C8
:1017300010BD10B5FFF764FF18B1BDE8104001F00F
:101740003FBABDE8104001F035BA002802D08068E9
:1017500000F0C2B8002070473EB50446002000905B
:101760000190029020680090606801900C2000F0C9
:10177000BFFBA1680860D0B104600022042120688A
:1017800000F0CCFEA16809684860A168096880B1D2
:10179000684600F0D5F80146A06800688160A0683E
:1017A0000029006802D100F0A5FC00203EBD002009
:1017B0003EBD084600F09EFC00203EBD2DE9FF41E5
:1017C00006460D460295002D1FD0002703970024E2
:1017D000501C21D002B11446FFF712FF69464FF0AA
:1017E0002008F8B103AA091D686801F0E9F801288A
:1017F00015D000970398F8B114494FF08050086055
:10180000BFF34F8FBFF36F8F16E080200090DDE9AC
:10181000011207C6BDE8FF814FF0FF34DCE7CDF8C9
:101820000080E7E72246091D686801F02BF80128CF
:1018300006D044B1402100919DE8070007C6E9E7C2
:10184000CDF80080F8E70021F5E7000004ED00E0A6
:1018500013B582B00446002C0FD000200190FFF792
:10186000CFFEB8B1002301AA03A9606800F0AAFF67
:10187000012804D0FF2004B010BD8020FBE70198B0
:1018800090B10A494FF080500860BFF34F8FBFF30B
:101890006F8F09E000231A4603A9606800F0E0FE9C
:1018A000012801D0FF20E6E70020E4E704ED00E096
:1018B00038B5D0E900418268002A07D0C3682BB14F
:1018C00000200090204600F04EFE38BD2046BDE8C6
:1018D0003840002200F022BE70B5044600250026E4
:1018E000FFF78EFE48B15020EFF3118580F3118889
:1018F000BFF34F8FBFF36F8F01E000F0C5FB0020F7
:10190000A26808E0216901448A4200D80021636886
:101910005B5C43B1401C8242F4D8FFF771FE58B1C2
:1019200085F311880AE0626801205054E26820685B
:1019300001FB02062161F0E700F0C6FB304670BDF6
:101940002DE9F04105466868C01C20F0030714200B
:1019500000F0CEFA0446200024D02868A060E7609A
:1019600000262661286800F0C3FA6060B0B12868DC
:10197000784300F0BDFA206040B1002002E06168C9
:101980000E54401C29688142F9D80BE0606800F0D1
:10199000B1FB204600F0AEFB002403E0204600F03F
:1019A000A9FB00242046BDE8F0817FB504460D4622
:1019B0006169B4F90800002910D0A16971B1FFF77D
:1019C000A5FED4E90521CDE901210090D4E900105C
:1019D0002B46226901F0B2F8039010E0FFF796FE63
:1019E00003A9CDE90001208A2B4682B2D4E9001078
:1019F00001F072F8012802D0002004B070BD0398F5
:101A0000FBE710B500F008FC002010BD2DE9F04107
:101A100004460F46174E75693068001D00F0E4FA61
:101A200038B9306890F82C1001208840B1698143A2
:101A3000B161601C07D137B13168BDE8F041091DC3
:101A40000D4800F015BB2C4430684460AC4206D20F
:101A50003168B068091DBDE8F04100F0F1BA3168A5
:101A60007068091D00F0ECFA306B844200D23463D8
:101A7000BDE8F081400000202404002070B5044639
:101A800000F002FB1D4D2869401C2861286810B138
:101A9000E86938B10CE02C602869012808D100F011
:101AA00057F905E02868E16AC06A884200D82C60CE
:101AB000E86A401CE8626064E06A0121AA6981402A
:101AC0001143A9610E4900EB800001EB8000211D4C
:101AD00000F0CEFA00F0F8FAE86900280CD0286887
:101AE000E16AC06A884207D206494FF08050086018
:101AF000BFF34F8FBFF36F8F70BD00004000002019
:101B00004803002004ED00E070B50C4D0C4E11E0D0
:101B100000F0BAFAF068C468201D00F065FA286980
:101B2000401E2861E868401EE86000F0CDFA2046BB
:101B300000F053F8E8680028EAD170BD40000020AA
:101B40001004002030B40B46026C002A0CD0C1688F
:101B50001144C1604468A14201D30168C160C168F9
:101B600030BC1846FEF7BDBB30BC70472DE9F041D4
:101B7000044617460026A56B226C002A10D0C7B178
:101B8000E068FEF7AEFBE168206C091AE1602268AC
:101B9000914202D26168081AE060022F16D017E065
:101BA0002068A8B9606801F079F8064600206060F6
:101BB0000EE0A068FEF795FB216CA0680844A060C9
:101BC0006168884204D32068A06001E005B16D1E01
:101BD0006D1CA5633046BDE8F08110B5044694F84D
:101BE0005D0000280BD0012811D0022814D050200D
:101BF00080F31188BFF34F8FBFF36F8FFEE7206B29
:101C000000F078FA2046BDE8104000F073BA204694
:101C1000BDE8104000F06EBA10BD00004FF47051E6
:101C20000F48420706D0C01D20F007000C49411A9A
:101C3000C1F570510B4A106000235360014408390C
:101C400021F00701103A11604B600B600B1A4360E2
:101C500001604068906050604FF00040D060704775
:101C60003804002094000020074E4FF08054074DA8
:101C7000FFF74AFF30680128FAD92C60BFF34F8F75
:101C8000BFF36F8FF4E700004803002004ED00E08D
:101C900070B51D46049C002909D02260E0632164D0
:101CA0000121204600F096FC84F84C5070BD246061
:101CB000F4E72DE9F0478146DDE908580A9C0E4615
:101CC00017469A46B900A522206BFEF71CFB206B35
:101CD0007F1E00EB870020F00707780707D0502011
:101CE00080F31188BFF34F8FBFF36F8FFEE70020A3
:101CF0002218315C82F83410315C11B1401C10287C
:101D0000F6D3002684F84360072D00D30625E5624C
:101D1000E5642665201D00F090F904F1180000F03C
:101D20008CF92461C5F10700A06164626665A6654F
:101D300084F85C6052464946384600F043F920601A
:101D4000B8F1000F01D0C8F80040BDE8F0870000EE
:101D500070B50024124D04EB840005EB800000F008
:101D600061F9641C072CF6D30D488C3000F05AF949
:101D70000B48A03000F056F90948B43000F052F991
:101D80000748C83000F04EF90548DC3000F04AF949
:101D9000034904488C3141601431816070BD0000FA
:101DA000480300204000002030B5134900E01146F0
:101DB0000A688242FBD34B685C18844203D14068B6
:101DC0001844486008460D6844682318AB420DD19A
:101DD000094B103B1B689A4206D05268224442606D
:101DE0000A681268026002E0036000E0026081425B
:101DF00000D0086030BD00009400002010B50446FB
:101E000000F042F9A06B20B1002400F05DF92046FB
:101E100010BD0124F9E710B5044600F035F9A06BB8
:101E2000E16B884201D1012400E0002400F04CF96C
:101E3000204610BD074841680968002905D041685F
:101E4000C968C9684968016370474FF0FF31016391
:101E5000704700004000002009484068401C07D03F
:101E6000502080F31188BFF34F8FBFF36F8FFEE7D1
:101E7000502080F31188BFF34F8FBFF36F8FFEE7C1
:101E80009C0000202DE9F041044600F0FDF894F993
:101E9000455004F1240609E0606A48B1304600F07C
:101EA00049FF08B100F016FA6D1E6DB2002DF3DC8B
:101EB0004FF0FF3684F8456000F006F900F0E4F8D2
:101EC00094F9445004F1100709E0206948B13846FC
:101ED00000F030FF08B100F0FDF96D1E6DB2002D6D
:101EE000F3DC84F84460BDE8F04100F0EDB8000098
:101EF0002DE9F0410546002600F052FA304F3868CF
:101F000008B9FFF78BFEF86805424AD18DB1083554
:101F100068070ED005F00700C0F108000544680707
:101F200007D0502080F31188BFF34F8FBFF36F8F1E
:101F3000FEE7B5B37868854233D8214910310846A9
:101F4000046801E0214604466068A84202D2206885
:101F50000028F7D13868844223D00E6808362068FC
:101F600008606068411B10290ED96019420707D02C
:101F7000502080F31188BFF34F8FBFF36F8FFEE7C0
:101F800041606560FFF710FF61687868401A78600B
:101F9000BA68904200D2B860F868014361600020DE
:101FA000206000F005FF700707D0502080F31188F3
:101FB000BFF34F8FBFF36F8FFEE73046BDE8F08170
:101FC0008400002024384FF08073036221F0010167
:101FD000C1610449816142606FF0020140F820193B
:101FE00070470000591E00080169D0E901329A606B
:101FF000D0E901235A604A68824201D182684A606E
:10200000002202610868401E0860086870470000EE
:10201000034B036003F1600008608020106070478C
:10202000A800002000F1080141604FF0FF328260FB
:10203000C1600161002101607047002101617047AA
:1020400030B50C68621C02D000F1080202E002699F
:1020500004E01A4653681D68A542FAD953684B60DC
:1020600099608A60516008610168491C016030BD57
:1020700042684A6093688B60936859609160086118
:102080000168491C01607047502080F31188BFF33C
:102090004F8FBFF36F8F0A494868401C4860012882
:1020A0000CD10848006810F0FF0F07D0502080F3D3
:1020B0001188BFF34F8FBFF36F8FFEE770470000AB
:1020C0009C00002004ED00E009494868002806D083
:1020D000401E4860002801D180F3118870475020CD
:1020E00080F31188BFF34F8FBFF36F8FFEE70000BF
:1020F0009C00002070B5002827D008380446134DF6
:102100006068E968084207D1502080F31188BFF366
:102110004F8FBFF36F8FFEE722683AB1502080F3F4
:102120001188BFF34F8FBFF36F8FFEE78843606066
:1021300000F036F960686968084468602046FFF777
:1021400033FEBDE8704000F033BE70BD8400002057
:102150004FF0E02000210161816105494FF47A725E
:102160000968B1FBF2F1491E416107210161704725
:102170003C00002010B5FEF76DF8114910280ED371
:1021800000F1E02090F8F0030A78904207D2502046
:1021900080F31188BFF34F8FBFF36F8FFEE70948BD
:1021A0000068896800F4E060884207D9502080F315
:1021B0001188BFF34F8FBFF36F8FFEE710BD000094
:1021C0009C0000200CED00E010B502460020002A23
:1021D00012D00F48806B38B1502080F31188BFF3C4
:1021E0004F8FBFF36F8FFEE700F0DAF80021104643
:1021F000FFF70CFC00F0DCFD002807D105494FF08B
:1022000080500860BFF34F8FBFF36F8F10BD000089
:102210004000002004ED00E070B50446FFF734FFF5
:10222000254D04B92C68201DFFF7DEFE58B9E06A81
:10223000224A00EB800152F8211021B9012181408E
:10224000A8698843A861A06A18B104F11800FFF7D3
:10225000CBFEE86A401CE8622868844208D117482F
:10226000211DC830FFF704FFE868401CE86007E064
:102270002869401E28612046FFF7AFFCFFF7DAFD12
:10228000FFF722FFE869002814D02868844211D1A2
:10229000A86B38B1502080F31188BFF34F8FBFF384
:1022A0006F8FFEE706494FF080500860BFF34F8FF5
:1022B000BFF36F8F70BD0000400000204803002076
:1022C00004ED00E002498A6A026049694160704792
:1022D0004000002001490120486270474000002072
:1022E00010B50C4600280AD0094909681831FFF7D3
:1022F000A7FE2046BDE810400121FFF787BB502014
:1023000080F31188BFF34F8FBFF36F8FFEE700009C
:102310004000002010B586B000240594049403AA60
:1023200004A905A8FFF774FEDDE90410CDE900411A
:102330000290002316A11848039A00F0FFFB1749EA
:10234000486308B1012000E00020012809D0401CAA
:102350001BD1502080F31188BFF34F8FBFF36F8FD5
:10236000FEE7502080F31188BFF34F8FBFF36F8FCC
:102370004FF0FF3008630120C8614C61FFF72FF96F
:1023800006B0BDE8104000F04FB806B010BD000028
:1023900049444C4500000000691C00084000002032
:1023A0000248816B491C8163704700004000002097
:1023B00010B51B4CA06B002802D00120606210BD3C
:1023C00000206062FFF71AF92064E26B904204D9A2
:1023D0002168821A4B6D1A444A65E063A069B0FA1D
:1023E00080F0C0F11F000F4900EB800051F8202061
:1023F00072B101EB800041684968416000F1080258
:10240000914201D1496841604068C068206010BDB8
:10241000502080F31188BFF34F8FBFF36F8FFEE71B
:1024200040000020480300201CB537480168374AA7
:10243000914207D1502080F31188BFF34F8FBFF333
:102440006F8FFEE700683149491E884207D150204E
:1024500080F31188BFF34F8FBFF36F8FFEE72C49D6
:1024600008780190FF200870087800909DF800001F
:102470009DF8002000F0F000904207D0502080F33B
:102480001188BFF34F8FBFF36F8FFEE79DF80000F9
:10249000204B00F0500018700720986006E0986804
:1024A000401E98609DF80000400000909DF80000DC
:1024B0000006F4D49868032807D0502080F31188D0
:1024C000BFF34F8FBFF36F8FFEE74FF440709860FC
:1024D000019808700C482030016841F470010160D7
:1024E000016841F070410160FFF732FE0020586042
:1024F000FDF778FE0848016841F040410160FDF7B2
:102500005DFE00201CBD000000ED00E071C20F4127
:1025100000E400E09C00002034EF00E0F8B5054640
:102520000E461746002D14D0DEB105FB06F05030E4
:10253000FFF7DEFC044654B104F15002002084F899
:1025400046003B46314628460094FFF7A1FB204653
:10255000F8BD502080F31188BFF34F8FBFF36F8F0A
:10256000FEE70020E3E738B5049D002804D05BB106
:1025700002B189B1C2B120E0502080F31188BFF3CD
:102580004F8FBFF36F8FFEE7502080F31188BFF3AA
:102590004F8FBFF36F8FFEE7502080F31188BFF39A
:1025A0004F8FBFF36F8FFEE739B1502080F3118852
:1025B000BFF34F8FBFF36F8FFEE7502400941C468C
:1025C000012384F846302B460094FFF761FB204638
:1025D00038BD000070B504460D46002C25D0FFF72D
:1025E00053FDD4E90F20216802FB00116160002136
:1025F000A1632168A160E06B2268216C401E00FB92
:102600000121E1604FF0FF3084F8440084F8450078
:1026100004F110008DB1FFF705FD04F12400FFF770
:1026200001FDFFF751FD012070BD502080F311889E
:10263000BFF34F8FBFF36F8FFEE721690029F0D002
:1026400000F078FB0028ECD004494FF0805008607F
:10265000BFF34F8FBFF36F8FE3E7000004ED00E09F
:102660002DE9FF4782B004468A461E460025002C0D
:1026700003D0BAF1000F08D011E0502080F3118888
:10268000BFF34F8FBFF36F8FFEE7206C38B1502040
:1026900080F31188BFF34F8FBFF36F8FFEE7022ED9
:1026A0000AD1E06B012807D0502080F31188BFF3D6
:1026B0004F8FBFF36F8FFEE700F06EFA48B90498B2
:1026C00038B1502080F31188BFF34F8FBFF36F8F65
:1026D000FEE74FF000094FF08057DFF8E480FFF786
:1026E000D3FCA06BE16B884205D3022E03D0049883
:1026F00008B325B327E0324651462046FFF736FAA5
:10270000616A59B104F1240000F014FB68B1C8F803
:102710000070BFF34F8FBFF36F8F06E028B1C8F88A
:102720000070BFF34F8FBFF36F8FFFF7CDFC012019
:1027300006B0BDE8F087FFF7C7FC0020F8E7684661
:10274000FFF7C0FD0125FFF7BFFCFFF729FEFFF7EC
:102750009BFC94F94400401C01D184F8449094F906
:102760004500401C01D184F84590FFF7ADFC04A959
:10277000684600F073F930B12046FFF783FB00F0A4
:1027800017FB0020D4E72046FFF745FB90B104F18A
:1027900010000499FFF7A4FD2046FFF773FB00F03B
:1027A00007FB00289BD1C8F80070BFF34F8FBFF321
:1027B0006F8F94E72046FFF765FB00F0F9FA8EE78C
:1027C00004ED00E02DE9F0470446894690461F4697
:1027D000002C03D0B9F1000F08D011E0502080F395
:1027E0001188BFF34F8FBFF36F8FFEE7206C38B1B6
:1027F000502080F31188BFF34F8FBFF36F8FFEE738
:10280000022F0AD1E06B012807D0502080F31188F5
:10281000BFF34F8FBFF36F8FFEE7FFF7ABFC502086
:10282000EFF3118680F31188BFF34F8FBFF36F8FE3
:10283000A06BE16B884206D3022F04D0002086F300
:102840001188BDE8F08794F945503A46494620463C
:10285000FFF78CF9681C04D06D1C84F845500120EA
:10286000EDE7606A0028FAD004F1240000F062FA73
:102870000028F4D0B8F1000FF1D00120C8F8000012
:10288000EDE700002DE9F74783B004468A460026AD
:10289000002C03D0BAF1000F08D011E0502080F3D3
:1028A0001188BFF34F8FBFF36F8FFEE7206C38B1F5
:1028B000502080F31188BFF34F8FBFF36F8FFEE777
:1028C00000F06AF948B9059838B1502080F31188B2
:1028D000BFF34F8FBFF36F8FFEE700274FF0805895
:1028E000DFF8D890FFF7D0FBA56BC5B15146204665
:1028F000FFF728F96D1EA563206950B104F110009F
:1029000000F018FA28B1C9F80080BFF34F8FBFF369
:102910006F8FFFF7D9FB012006B0BDE8F08705985F
:1029200008B126B107E0FFF7CFFB0020F4E701A8CC
:10293000FFF7C8FC0126FFF7C7FBFFF731FDFFF7E4
:10294000A3FB94F94400401C01D184F8447094F92D
:102950004500401C01D184F84570FFF7B5FB05A97F
:1029600001A800F07BF858B12046FFF78BFA00F081
:102970001FFA2046FFF742FA0028B3D00020CBE729
:102980002046FFF73BFA90B104F124000599FFF7C8
:10299000A7FC2046FFF776FA00F00AFA0028A1D13A
:1029A000C9F80080BFF34F8FBFF36F8F9AE72046BF
:1029B000FFF768FA00F0FCF994E7000004ED00E08E
:1029C0002DE9F047044689469046002C03D0B9F122
:1029D000000F08D011E0502080F31188BFF34F8F13
:1029E000BFF36F8FFEE7206C38B1502080F3118861
:1029F000BFF34F8FBFF36F8FFEE7FFF7BBFB502096
:102A0000EFF3118780F31188BFF34F8FBFF36F8F00
:102A1000A66BF6B194F9445049462046FFF792F868
:102A2000761EA663681C04D06D1C84F844500120F7
:102A300010E020690028FAD004F1100000F07AF9C3
:102A40000028F4D0B8F1000FF1D00120C8F8000040
:102A5000EDE7002087F31188BDE8F0872DE9F0410C
:102A600005460C46002D11D0C4B1FFF70DFB194EE1
:102A700070696B68C11A2268571C17D02F68B66A34
:102A8000B74215D0834213D801241DE0502080F3B3
:102A90001188BFF34F8FBFF36F8FFEE7502080F395
:102AA0001188BFF34F8FBFF36F8FFEE700240BE059
:102AB0008A4206D9501A20602846FFF703FC0024FA
:102AC00002E0002020600124FFF7FEFA2046BDE866
:102AD000F0810000400000202DE9FF5F8146DDE924
:102AE0000E788A4616469B46B000FFF701FA054667
:102AF00028000AD06020FFF7FBF904460CB12563DB
:102B000004E02846FFF7F6FA00E000249CB100201C
:102B100084F85D00CDE90240CDE900785B4632469D
:102B200051464846FFF7C5F82046FEF7A7FF0120AB
:102B300004B0BDE8F09F4FF0FF30F9E7F0B585B085
:102B40000746DDE90A600C9C002815D0E4B1602539
:102B500003952063022084F85D00002004ADCDE9D8
:102B60000240CDE900653846FFF7A3F82046FEF79E
:102B700085FF049805B0F0BD502080F31188BFF3A5
:102B80004F8FBFF36F8FFEE7502080F31188BFF3A4
:102B90004F8FBFF36F8FFEE70548C169002903D04F
:102BA000806B18B1002070470120704702207047E9
:102BB00040000020014840697047000040000020AC
:102BC00010B5FFF7D7FA0148406910BD400000205A
:102BD0002DE9F04100262F4FB86B002808D0386A45
:102BE000401C3862786A00B101263046BDE8F081A9
:102BF0007D696D1C7D619DB97868006838B1502091
:102C000080F31188BFF34F8FBFF36F8FFEE77868B3
:102C1000B9687960B860B86A401CB862FFF70AF911
:102C2000386BDFF8748085420DD37868006838B15E
:102C30007868C068C468606885420ED2386302E074
:102C40004FF0FF3038633868C06A00EB800058F8F6
:102C500020000128C6D90126C4E7201DFFF7C4F9CA
:102C6000A06A18B104F11800FFF7BEF9E06A01216B
:102C7000BA6981401143B96100EB800008EB800024
:102C8000211DFFF7F5F9E06A3968C96A8842CCD39B
:102C90000126CAE7400000204803002070B5044622
:102CA0000020002C41D0214D29688C4207D05020B3
:102CB00080F31188BFF34F8FBFF36F8FFEE7216D55
:102CC00071B1491E2165E36CE26A9A422DD0002958
:102CD0002BD1201DFFF788F9154A012140B112E0E0
:102CE000502080F31188BFF34F8FBFF36F8FFEE743
:102CF000E06A00EB800352F8233023B901FA00F3B5
:102D0000A8699843A861E06CE062C0F10700A06187
:102D1000E06AAB6981401943A96100EB800002EBD6
:102D20008000211DFFF7A4F9012070BD40000020A4
:102D3000480300202DE9F041C068C468002C15D07C
:102D400004F118000746FFF74FF9174DAA6B01264B
:102D5000A2B139461548FFF78BF9E06A2968C96ABC
:102D600088421ED901206E62BDE8F081502080F3B8
:102D70001188BFF34F8FBFF36F8FFEE7201DFFF762
:102D800033F9E06AAA6906FA00F11143A96107491B
:102D900000EB8000B43901EB8000211DFFF768F9DA
:102DA000DBE70020E0E7000040000020FC030020FB
:102DB0002DE9F041002400272D4DA86B002807D0F5
:102DC000FFF762F9A86B401EA863A86B40B14AE008
:102DD000502080F31188BFF34F8FBFF36F8FFEE752
:102DE0002869E8B3DFF88C8001261EE0D8F80C00D3
:102DF000C46804F11800FFF7F7F8201DFFF7F4F896
:102E0000E06AAA6906FA00F11143A961194900EBC9
:102E10008000B43901EB8000211DFFF729F9E06A39
:102E20002968C96A884200D36E62D8F80000002879
:102E3000DCD10CB1FEF7FEFF2C6A44B1FFF7C8FEEF
:102E400000B16E62641E002CF8D100202862686A0E
:102E500030B10127084938070860BFF34F8F00E001
:102E600001E0BFF36F8FFFF72FF93846BDE8F0811F
:102E700040000020FC03002004ED00E010000000F2
:102E80000400000000000000000000000500000039
:102E90002C00000000000000043000080D100008A5
:102EA00000000000000000008000000000000000A2
:102EB00000000000AC2F000871100008FDFF0000AA
:102EC0000000000080000000000000000000000082
:102ED000B82F00088D100008FDFF00000000000062
:102EE000800000000000000000000000C42F000867
:102EF000A9100008FDFF0000000000008000000095
:102F00000000000000000000D02F0008C5100008DD
:102F1000FDFF000000000000800000000000000035
:102F200000000000DC2F000815110008FDFF000064
:102F30000000000080000000000000000000000011
:102F4000E82F00089D1100080100000000000000AB
:102F5000800000000000000000000000F82F0008C2
:102F600019100008000000000000000080000000B0
:102F70000000000000000000B82F00088D100008BD
:102F8000FDFF0000000000008000000000000000C5
:102F90000000000000000000000000000102030427
:102FA0000607080900000000010203046D7954615E
:102FB000736B3032000000006D795461736B3033F5
:102FC000000000006D795461736B30340000000024
:102FD0006D795461736B3035000000006D79546178
:102FE000736B303600000000735072696E74665F58
:102FF0005441534B37000000517565756550726937
:103000006E74660064656661756C745461736B0000
:103010003030000800000020A8000000FC13000869
:10302000D8300008A8000020905F00000C140008B1
:103030000000000000000000000000000000000090
:103040000000000000000000000000000000000080
:103050000000000000000000000000000000000070
:103060000100000010000000000000000024F40037
:103070000000000000000000000000000000000050
:103080000000000000000000000000000000000040
:103090000000000000000000000000000000000030
:1030A0000000000000000000000000000000000020
:1030B0000000000000000000000000000000000010
:1030C0000000000000000000000000000000000000
:0830D000AAAAAAAA0000000050
:040000050800018965
:00000001FF
