:020000040800F2
:10000000286000205D0200086D120008CD10000875
:10001000691200088D03000879150008000000002F
:100020000000000000000000000000009D0100082A
:100030009103000800000000F901000845130008C2
:1000400077020008770200087702000877020008AC
:10005000770200087702000877020008770200089C
:10006000770200087702000877020008770200088C
:10007000770200087702000877020008770200087C
:10008000770200087702000877020008770200086C
:10009000770200087702000877020008770200085C
:1000A0007702000891140008770200087702000820
:1000B000770200087702000877020008770200083C
:1000C000770200087702000877020008770200082C
:1000D000770200087702000877020008770200081C
:1000E000770200087702000877020008770200080C
:1000F00077020008770200087702000877020008FC
:1001000077020008770200087702000877020008EB
:1001100077020008770200087702000877020008DB
:1001200077020008770200087702000877020008CB
:1001300077020008770200087702000877020008BB
:1001400077020008770200087702000877020008AB
:10015000770200087702000877020008770200089B
:10016000770200087702000877020008770200088B
:1001700077020008770200087702000800000000FC
:100180007702000877020008DFF80CD000F0ECF8E6
:1001900000480047E9150008286000202C4B19682A
:1001A0000868B0E8F04F80F30988BFF36F8F4FF015
:1001B000000080F3118870470000000008480068C4
:1001C000006880F308884FF0000080F3148862B65E
:1001D00061B6BFF34F8FBFF36F8F00DF00BF00BF6B
:1001E00008ED00E0DFF80C00016841F470010160E7
:1001F000704700BF88ED00E0EFF30980BFF36F8F19
:10020000134B1A681EF0100F08BF20ED108A20E96A
:10021000F04F106009B44FF0500080F31188BFF325
:100220004F8FBFF36F8F02F05BF94FF0000080F348
:10023000118809BC19680868B0E8F04F1EF0100F6B
:1002400008BFB0EC108A80F30988BFF36F8F704746
:100250002C000020EFF3058070470000064880471F
:1002600006480047FEE7FEE7FEE7FEE7FEE7FEE79B
:10027000FEE7FEE7FEE7FEE72D140008890100080F
:100280002DE9F05F0546002092469B4688460646CB
:10029000814640241BE0284641464746224600F05E
:1002A00053F853465A46C01A914110D31146184686
:1002B000224600F03AF82D1A67EB01084F46224615
:1002C0000120002100F031F817EB00094E41201EFB
:1002D000A4F10104DFDC484631462A464346BDE826
:1002E000F09F40EA01039B0703D009E008C9121FF1
:1002F00008C0042AFAD203E011F8013B00F8013BE0
:10030000521EF9D27047D2B201E000F8012B491E0B
:10031000FBD270470022F6E710B513460A460446A2
:100320001946FFF7F0FF204610BD202A04DB203AD3
:1003300000FA02F1002070479140C2F1200320FA38
:1003400003F3194390407047202A04DB203A21FA36
:1003500002F00021704721FA02F3D040C2F12002DE
:100360009140084319467047064C074D06E0E06887
:1003700040F0010394E8070098471034AC42F6D3EC
:10038000FFF706FF343500085435000800BFFEE7CC
:1003900070477047F8B502460B4600250024002040
:1003A0000021DCE0012606FA01F51E6806EA0504D4
:1003B000AC4273D15E68022E02D05E68122E13D159
:1003C000CF0802F1200656F827004E07F70E0F2639
:1003D000BE40B0434F07FF0E1E69BE403043CF08FA
:1003E00002F1200646F8270010684F000326BE40A1
:1003F000B0431E7906F003064F00BE403043106044
:100400005E68012E08D05E68022E05D05E68112E4F
:1004100002D05E68122E13D190684F000326BE40B2
:10042000B0434F00DE68BE40304390605068012604
:100430008E40B0431E79C6F300168E4030435060A4
:10044000D0684F000326BE40B0434F009E68BE40B8
:100450003043D0605E6806F08056B6F1805F7DD193
:1004600000BF00260096404E366846F480463E4F58
:100470003E603E46366806F48046009600BF00BFE8
:100480003A4E8F0856F827008E07370F0F26BE40CA
:10049000B043374EB24202D1002624E05EE0354E32
:1004A000B24201D101261EE0334EB24201D10226F2
:1004B00019E0324EB24201D1032614E0304EB2426E
:1004C00001D104260FE02F4EB24201D105260AE0E9
:1004D0002D4EB24201D1062605E02C4EB24201D18A
:1004E000072600E008268F073F0FBE4030431F4E0F
:1004F0008F0846F82700264E3068A0435E6806F451
:100500008036B6F5803F00D12043214E3060361D45
:100510003068A0435E6806F40036B6F5003F00D1AF
:1005200020431B4E361D3060361D3068A0435E6888
:1005300006F48016B6F5801F00D12043144E08360D
:100540003060361D3068A0435E6806F40016B6F5CC
:10055000001F00D120430E4E0C363060491C10297C
:10056000FFF420AFF8BD00004438024008380140D5
:10057000000002400004024000080240000C02405B
:10058000001002400014024000180240001C02400B
:10059000003C0140024613690B400BB1012000E012
:1005A0000020704742690A408A4202D10A048261EF
:1005B00000E0816170470AB1816101E00B04836151
:1005C0007047000001480068704700001C000020D0
:1005D00003480068034909780844014908607047E6
:1005E0001C0000202400002010B50D48006840F4D5
:1005F00000700B4908600846006840F4806008609D
:100600000846006840F480700860032000F0C8F8D5
:10061000002000F007F800F04BF8002010BD0000AB
:10062000003C024070B588B0044600250026002238
:100630002146192000F076F8192000F063F800BF79
:10064000002001901648006840F00100144908603D
:100650000846006800F00100019000BF00BF02A939
:1006600003A800F071F900F097F945000D48B5FBBB
:10067000F0F0461E0C480D49086040F2E7310B4887
:10068000C160466000210161816000F013FC20B967
:10069000064800F02AFC08B070BD0120FBE700000E
:1006A0004438024040420F0000000140F4020020A4
:1006B00008B500BF002000901148006840F4804059
:1006C0000F4908600846006800F48040009000BFB1
:1006D00000BF00BF00200090081F006840F080505D
:1006E000091F08600846006800F08050009000BFB5
:1006F00000BF00220F21901E00F014F808BD00007A
:100700004438024001460846002809DB00F01F0378
:1007100001229A4043099B0003F1E023C3F8002122
:1007200000BF70472DE9F05F80460D461646002752
:1007300000F024FF074639462A46334601F00700F9
:10074000C0F1070ABAF1040F02D94FF0040A01E020
:10075000C0F1070AD14600F1040ABAF1070F02D22C
:100760004FF0000A01E0A0F1030AD4464FF0010A5D
:100770000AFA09FAAAF1010A0AEA020A0AFA0CFAC2
:100780004FF0010B0BFA0CFBABF1010B0BEA030B67
:100790004AEA0B042146404600F0F8FEBDE8F09F0F
:1007A00000BF00F00702064B19684FF6FF0319401F
:1007B000044B0B4343EA0221014B196000BF704711
:1007C0000CED00E00000FA0570B504460D460CB9CA
:1007D000012070BD5848006800F00F00A84209D2FF
:1007E00055490D700846006800F00F00A84201D07E
:1007F0000120EEE7207800F0020002281DD12078C9
:1008000000F00400042805D14C48006840F4E05092
:100810004A490860207800F00800082805D14748B8
:10082000006840F46040454908604448006820F092
:10083000F000A168084341490860207800F00100F9
:10084000A8B36068012807D13C4808380068C0F3A5
:100850004040B8B90120BCE76068022802D0606857
:10086000032807D1354808380068C0F3406048B90C
:100870000120AEE7314808380068C0F3400008B9ED
:100880000120A6E72D48006820F0030061680843B6
:100890002A490860FFF796FE064609E0FFF792FE38
:1008A000801B41F28831884202D9032091E707E09A
:1008B0002248006800F00C006168B0EB810FEDD1B8
:1008C0001D48006800F00F00A84209D91A490D70B0
:1008D0000846006800F00F00A84201D0012078E728
:1008E000207800F00400042807D11448006820F4A0
:1008F000E050E168084311490860207800F00800E2
:10090000082808D10D48006820F46040216940EAB9
:10091000C1000A49086000F04FF808490968C1F3AE
:100920000311074A515CC840064908600020FFF7E0
:1009300079FE00204DE70000003C024008380240EC
:10094000D4340008280000200F2202600D4A1268EB
:1009500002F0030242600B4A126802F0F002826069
:10096000084A126802F4E052C260064A126802F4B1
:100970006042D2080261044A126802F00F020A6063
:100980007047000008380240003C024001480068FF
:10099000704700002800002000B5FFF7F7FF04496A
:1009A0000968C1F34231034A515CC84000BD0000F0
:1009B00008380240E43400082DE9F04700240025FF
:1009C0000026A1462548006800F00C0020B104284C
:1009D00005D008283AD105E0DFF8849039E0DFF847
:1009E000849036E01D48001F006800F03F041B485B
:1009F000001F006800F4800078B11A481749091FE9
:100A00000968C1F38811A0FB01700146224600234A
:100A10003846FFF735FC05460EE011480F49091F1F
:100A20000968C1F38811A0FB01700146224600232A
:100A30003846FFF725FC05460848001F0068C0F34C
:100A40000140401C4600B5FBF6F902E0DFF81090CB
:100A500000BF00BF4846BDE8F087000008380240EC
:100A60000024F40000127A00F8B504460CB9012005
:100A7000F8BD207800F00100002874D0F948006823
:100A800000F00C0004280DD0F648006800F00C00BF
:100A9000082813D1F348001F006800F48000B0F567
:100AA000800F0BD1EF4808380068C0F340400028A1
:100AB00059D06068002856D10120D9E700BF60688E
:100AC000B0F5803F08D1E7480838006840F480302E
:100AD000E449083908601EE06068B0F5A02F0DD128
:100AE000E0480838006840F48020DE490839086092
:100AF0000846006840F4803008600CE0D9480838A7
:100B0000006820F48030D74908390860084600683A
:100B100020F48020086000BF606890B1FFF752FDAC
:100B2000054606E0FFF74EFD401B642801D903206F
:100B30009EE7CC4808380068C0F340400028F1D058
:100B400011E0FFF73FFD054606E0FFF73BFD401BC8
:100B5000642801D903208BE7C24808380068C0F335
:100B600040400028F1D1207800F0020002285FD137
:100B7000BC48006800F00C0058B1BA48006800F0AA
:100B80000C0008281CD1B748001F006800F4800042
:100B9000B0B9B44808380068C0F3400020B1E0683C
:100BA000012801D0012063E7AE480838006820F032
:100BB000F800216940EAC100AA490839086037E015
:100BC000E06800B30120A8490860FFF7FBFC054678
:100BD00006E0FFF7F7FC401B022801D9032047E796
:100BE000A04808380068C0F340000028F1D09D48B4
:100BF0000838006820F0F800216940EAC1009949EE
:100C00000839086014E0002097490860FFF7DAFC13
:100C1000054606E0FFF7D6FC401B022801D9032059
:100C200026E7904808380068C0F340000028F1D15A
:100C3000207800F0080008282CD16069A8B10120B4
:100C40008A490860FFF7BEFC054606E0FFF7BAFCDC
:100C5000401B022801D903200AE782486C30006853
:100C6000C0F340000028F1D014E000207F49086064
:100C7000FFF7A8FC054606E0FFF7A4FC401B02288E
:100C800001D90320F4E677486C300068C0F34000D7
:100C90000028F1D1207800F00400042870D100264B
:100CA00070483830006800F0805090B900BF0020D4
:100CB00000906C483830006840F080506949383105
:100CC00008600846006800F08050009000BF00BF38
:100CD00001266748006800F48070B0B96448006875
:100CE00040F4807062490860FFF76CFC054606E03E
:100CF000FFF768FC401B022801D90320B8E65C48D6
:100D0000006800F480700028F2D000BFA0680128BD
:100D100008D154486830006840F0010051496831FA
:100D200008601DE0A06805280DD14E4868300068B5
:100D300040F004004B49683108600846006840F004
:100D4000010008600CE047486830006820F00100AE
:100D50004449683108600846006820F004000860D3
:100D600000BFA068A8B1FFF72DFC054609E0FFF71A
:100D700029FC401B41F28831884202D9032077E6E2
:100D800026E0384868300068C0F340000028EED004
:100D900013E0FFF717FC054608E0FFF713FC401BC4
:100DA00041F28831884201D9032061E62D4868303C
:100DB0000068C0F340000028EFD1012E07D1294878
:100DC0003830006820F0805026493831086000BF74
:100DD000A069B8B32348006800F00C0008285ED072
:100DE000A069022846D100201F490866FFF7EAFBE8
:100DF000054606E0FFF7E6FB401B022801D9032069
:100E000036E6184808380068C0F340600028F1D181
:100E1000D4E907010843616A40EA81110122A06A0E
:100E2000C2EB500041EA00412C20005D41EA006025
:100E30000C49091F086001200B490866FFF7C2FB37
:100E4000054607E02DE0FFF7BDFB401B022801D956
:100E500003200DE6034808380068C0F3406000280E
:100E6000F1D01EE00838024000004742800E4742A1
:100E70000070004000200C490866FFF7A3FB054600
:100E800006E0FFF79FFB401B022801D90320EFE596
:100E900006480068C0F340600028F2D101E001205C
:100EA000E6E50020E4E5000000004742003802408B
:100EB0007047704710B504460CB9012010BD94F876
:100EC0003D0028B9002084F83C00204600F00CF8D2
:100ED000022084F83D00211D206800F0E1FA012085
:100EE00084F83D000020E9E7704701460868C068C3
:100EF00040F001000B68D8600868806800F00702C5
:100F0000062A05D00868006840F001000B681860E8
:100F100000207047704710B5044620680069C0F390
:100F20004000D8B12068C068C0F34000B0B16FF095
:100F3000020021680861012020772068806900F0A4
:100F4000030018B12046FFF7E5FF05E0204600F05A
:100F5000ADF8204600F0ABF800202077206800694B
:100F6000C0F38000D8B12068C068C0F38000B0B181
:100F70006FF00400216808610220207720688069F2
:100F800000F4407018B12046FFF7C4FF05E020468A
:100F900000F08CF8204600F08AF8002020772068C6
:100FA0000069C0F3C000D8B12068C068C0F3C000B9
:100FB000B0B16FF008002168086104202077206834
:100FC000C06900F0030018B12046FFF7A3FF05E059
:100FD000204600F06BF8204600F069F800202077EA
:100FE00020680069C0F30010D8B12068C068C0F361
:100FF0000010B0B16FF01000216808610820207760
:101000002068C06900F4407018B12046FFF782FFE5
:1010100005E0204600F04AF8204600F048F800209D
:1010200020772068006900F0010058B12068C0688E
:1010300000F0010030B16FF0010021680861204626
:1010400000F036F820680069C0F3C01058B120687D
:10105000C068C0F3C01030B16FF080002168086133
:101060002046FFF725FF20680069C0F3801058B1C3
:101070002068C068C0F3801030B16FF04000216874
:101080000861204600F020F820680069C0F3401095
:1010900058B12068C068C0F3401030B16FF0200034
:1010A000216808612046FFF704FF10BD70477047B4
:1010B00010B5044603492068884201D1FFF788FA39
:1010C00010BD0000000001407047000008B500227C
:1010D0004FF480412E48FFF76EFA58E006240EE0E8
:1010E0002C48009002E00098401E009000980028D4
:1010F000F9D14FF480412648FFF754FA641E002CC2
:10110000EED12548009002E00098401E0090009823
:101110000028F9D106240EE01F48009002E0009854
:10112000401E009000980028F9D14FF480411848E3
:10113000FFF738FA641E002CEED11748009002E049
:101140000098401E009000980028F9D106240EE077
:101150001048009002E00098401E0090009800287F
:10116000F9D14FF480410A48FFF71CFA641E002CA5
:10117000EED1062009E00849009102E00099491EDD
:10118000009100990029F9D1401E0028F3D1A5E76C
:10119000000C024040420F0080841E0000B587B062
:1011A000142102A8FFF7B6F800BF002001902B48D9
:1011B000006840F08000294908600846006800F097
:1011C0008000019000BF00BF00BF002001900846D2
:1011D000006840F0010008600846006800F0010067
:1011E000019000BF00BF00BF0020019008460068CA
:1011F00040F0080008600846006800F00800019010
:1012000000BF00BF00BF002001900846006840F00A
:10121000020008600846006800F00200019000BF6C
:1012200000BF00224FF470410D48FFF7C4F90120C0
:10123000029000200390049002A90A48FFF7AAF840
:101240004FF470400290012003900020049005901C
:1012500002A90348FFF79EF807B000BD30380240EE
:10126000000C02400000024000BFFEE7704700BFD4
:101270004FF47A7000F02BFAFAE7000000BF4FF449
:1012800080510348FFF78EF9642000F020FAF6E75A
:10129000000C024000BF4FF480410348FFF782F981
:1012A000962000F014FAF6E7000C024000BF0B484D
:1012B000006878B14FF47A710848006800F066FA67
:1012C00040B94FF400410648FFF76CF90348006845
:1012D00000F034FAFA2000F0FAF9E8E718000020EC
:1012E000000C024000BF4FF400510448FFF75AF9C8
:1012F0004FF4AF7000F0EBF9F5E70000000C02408E
:1013000000BF01210D48FFF745F950B164210C4899
:10131000006800F03BFA4FF00054A0780A30A0704B
:1013200008E001210548FFF735F918B904480068BD
:1013300000F004FA642000F0CAF9E2E7000002407D
:101340001800002010B500BF502080F31188BFF3B3
:101350004F8FBFF36F8F00BF01F02EFE18B14FF01B
:1013600080500449086000BF002080F3118800BF4E
:1013700010BD000004ED00E000B593B0302107A8D7
:10138000FEF7C8FF142102A8FEF7C4FF00BF00202B
:1013900001902448006840F08050224908600846C7
:1013A000006800F08050019000BF00BF00BF002027
:1013B00001901D48006840F480401B4908600846C1
:1013C000006800F48040019000BF00BF012007903A
:1013D0000004089002200D9041050E9104210F9108
:1013E000A8211091022111910421129107A8FFF761
:1013F0003BFB08B1FEF7CDFF0F20029002200390C7
:10140000002004904FF4A05005904FF480500690B7
:10141000052102A8FFF7D8F908B1FEF7BAFF13B00B
:1014200000BD0000403802400070004014480068D1
:1014300040F47000124908601248006840F0010052
:101440001049086000200F49083108600D48006805
:101450000D4908400B4908600C48091D0860081F29
:10146000006820F48020091F0860002005490C3125
:1014700008604FF000600249803908607047000042
:1014800088ED00E000380240FFFFF6FE1030002437
:1014900010B50248FFF73FFD10BD0000F402002028
:1014A00010B50268294B98420ED0B0F1804F0BD096
:1014B000274B984208D0274B984205D0264B98429C
:1014C00002D0264B984203D122F070024B681A4397
:1014D0001E4B984220D0B0F1804F1DD01C4B98423B
:1014E0001AD01C4B984217D01B4B984214D01B4B60
:1014F000984211D01A4B98420ED01A4B98420BD0FA
:10150000194B984208D0194B984205D0184B984275
:1015100002D0184B984203D122F44072CB681A4390
:1015200022F080034C6943EA040202608B68C362C4
:101530000B688362054B984202D0084B984201D158
:101540000B6903630123436110BD000000000140EB
:101550000004004000080040000C0040000401406E
:101560000040014000440140004801400018004094
:10157000001C00400020004000BFFEE70248006859
:10158000C0F30220704700000CED00E010B5002809
:1015900004DB0A07130E054A135406E00A07140E6B
:1015A000034A00F00F031B1FD45410BD00E400E0F9
:1015B00018ED00E002E008C8121F08C1002AFAD1A5
:1015C00070477047002001E001C1121F002AFBD1C3
:1015D000704770470020704700BFEFF3058008B1E7
:1015E000012070470020FCE7ACB0FEF7FDFFFFF7DD
:1015F000C3FEFFF7D3FD00202A902B9001212AA8DB
:1016000000F076F8264908601C22264923A8FEF738
:1016100068FE002123A800F0EDF8234908601C2291
:1016200020491C311CA8FEF75CFE00211CA800F01C
:10163000E1F81E4908601C221A49383115A8FEF746
:1016400050FE002115A800F0D5F8194908601C22A9
:10165000144954310EA8FEF744FE00210EA800F0F4
:10166000C9F8144908601C220E49703107A8FEF71A
:1016700038FE002107A800F0BDF80F4908601C22C1
:1016800008498C316846FEF72CFE0021684600F0C0
:10169000B1F80A49086000F026F800BFFEE7000034
:1016A000180000202C340008000000200400002056
:1016B000080000200C000020100000201400002072
:1016C00001460020842901D0CA1C1044704770B51F
:1016D000044625460DB1294600E00121084600F0E8
:1016E000C7FD002070BD10B500F098FE002010BDB1
:1016F000F8B504460D46606860B1012D08D103209D
:101700000090002211460120636801F030F8F8BD16
:101710000020FCE7012D0ED103220021012000F062
:10172000F7FF06462EB100231A461946304601F04F
:10173000D9F83046EBE70020E9E7000038B5044669
:10174000002500200090FFF747FF90B16946204632
:1017500001F09CF9012801D0FF2038BD009888B124
:101760004FF0805008490860BFF34F8FBFF36F8F71
:1017700008E000231A461946204601F0B3F8012874
:1017800000D0FF252846E8E704ED00E0F8B506465E
:101790000C46002000900EB98020F8BD0025601C8A
:1017A00008B96D1E03E014B1254605B90125FFF700
:1017B00013FF98B16A460021304601F0D7F901289D
:1017C00001D0FF20E9E7009880B14FF08050084930
:1017D0000860BFF34F8FBFF36F8F07E02946304695
:1017E00001F02AFA012801D0FF20D6E70020D4E733
:1017F00004ED00E07FB504460D46606998B1A0692C
:1018000088B1B4F90800FFF75BFF0646D4E905107C
:10181000CDE9006102902B462269D4E9001001F065
:101820005FFB039013E0B4F90800FFF749FF064699
:1018300003A8CDE90060238A9AB22B46D4E90010B0
:1018400001F01CFB012802D0002004B070BD0398F9
:10185000FBE700002DE9F04105460E461C480768ED
:101860001C480068001D00F0CBFB50B91948006807
:1018700090F82C10012088401749096881431648C8
:101880000160681C38B936B112480168091D134857
:1018900000F000FC1AE07C190E4800684460BC426D
:1018A00007D20C480168091D0D48006800F0D8FBFC
:1018B0000CE008480168091D0A48006800F0D0FBE8
:1018C00009480068844201D207480460BDE8F081FD
:1018D000400000202C0000204400002010040020C4
:1018E00034000020300000205C00002010B50446C9
:1018F00000F0DCFB24480068401C234908602348B2
:10190000006840B9214804600846006801280DD1EC
:1019100000F0B4F90AE01E48006838B91B480068B6
:10192000C06AE16A884201D8184804601948006812
:10193000401C1849086008460068606494F82C1040
:101940000120884014490968084313490860E16A86
:1019500001EB8101114A02EB8100211D00F09AFB8D
:1019600000F0CEFB0A48006868B108480068C06A09
:10197000E16A884207D24FF0805009490860BFF3FE
:101980004F8FBFF36F8F10BD3C0000202C00002054
:1019900048000020580000204400002034030020AC
:1019A00004ED00E010B516E000F080FB0C48C068C4
:1019B000C468201D00F024FB0A480068401E094945
:1019C000086009480068401E0749086000F098FB5D
:1019D000204600F05EF8044800680028E4D110BDFD
:1019E000FC0300203C0000203800002070B50446B5
:1019F0000D46206C70B1216CE0680844E0606168BD
:101A0000E068884201D32068E0602846226CE168E3
:101A1000FEF767FC70BD2DE9F04104460F46154600
:101A20004FF00008A66B206C40B9206860BB60686E
:101A300001F066FB80460020606025E07DB93946F4
:101A4000226CA068FEF74DFC216CA0680844A060E1
:101A5000D4E90110884217D32068A06014E0394609
:101A6000226CE068FEF73DFC216CE068401AE06003
:101A70002168E068884203D2216C6068401AE06007
:101A8000022D01D106B1761E701CA0634046BDE850
:101A9000F08110B5044694F85D0030B9206B00F079
:101AA0004DFB204600F04AFB1AE094F85D00012847
:101AB00003D1204600F042FB12E094F85D000228BA
:101AC00001D1012000E0002050B900BF502080F378
:101AD0001188BFF34F8FBFF36F8F00BF00BFFEE7CA
:101AE00010BD01464A6A22B10A6B1268C2F10700B2
:101AF00000E000207047000030B54FF470531748E5
:101B000000F007042CB1C01D20F00700134C041B8B
:101B10001B1B0246124C22600024114D6C60D01831
:101B2000083820F007000F4C206000240D4D2D6870
:101B30006C600C4D2D682C601146441A4C60094CA9
:101B400024680C60084D4C682C60084D4C682C6073
:101B50004FF00044064D2C6030BD000024040020EE
:101B60007000002078000020800000207C00002011
:101B70008400002000BFFFF715FF06480068012819
:101B8000F9D94FF0805004490860BFF34F8FBFF37D
:101B90006F8FF0E73403002004ED00E02DE9F04101
:101BA00006460D4617469846069C0DB9246000E08F
:101BB0002760E66325640121204600F047FE84F893
:101BC0004C80BDE8F0812DE9F05F82460F469046DB
:101BD0009B460A9E0C9C4FEA8801A522206BFEF7CB
:101BE00092FBA8F10100216B01EB800929F00709A4
:101BF00009F0070008B9012000E0002050B900BF3B
:101C0000502080F31188BFF34F8FBFF36F8F00BF59
:101C100000BFFEE7002507E0795D04F1340041557F
:101C2000785D00B902E06D1C102DF5D300BF0021D6
:101C300043200155072E00D30626E662E664002005
:101C40002065201D00F009FA04F1180000F005FAE3
:101C50002461C6F10700A061646200206065A06590
:101C600084F85C005A465146484600F0B3F92060BB
:101C70000B9808B10B980460BDE8F09F10B50024E4
:101C800007E004EB84010F4A02EB810000F0D8F971
:101C9000641C072CF5D30C4800F0D2F90B4800F077
:101CA000CFF90B4800F0CCF90A4800F0C9F90A480E
:101CB00000F0C6F90448094908600448084908606A
:101CC00010BD000034030020C0030020D403002016
:101CD000E8030020FC030020100400203000002056
:101CE0003400002010B50146164800E00068036883
:101CF0008B42FBD30246436813448B4204D14368B2
:101D00004C682344436001460A464B681344046808
:101D1000A34211D10C4C03682468A34208D04B683D
:101D20000468646823444B6003681B680B6005E02B
:101D3000054B1B680B6001E003680B60884200D014
:101D4000016010BD700000207800002070B50546CD
:101D500000F0ACF9A86B08B9012400E0002400F001
:101D6000CFF9204670BD70B5054600F09FF9A86B0D
:101D7000E96B884201D1012400E0002400F0C0F9A1
:101D8000204670BD0A490968096809B9012100E0C7
:101D9000002121B14FF0FF31064A116006E00449ED
:101DA0000968C968C868034A416811607047000043
:101DB000300000205C0000200E480068401C08B97C
:101DC000012000E0002050B900BF502080F31188AE
:101DD000BFF34F8FBFF36F8F00BF00BFFEE700BFA1
:101DE000502080F31188BFF34F8FBFF36F8F00BF78
:101DF00000BFFEE78800002070B5044600F056F9E9
:101E000094F9455010E0606A08B9012000E0002014
:101E100038B904F1240001F03BFA18B100F062FA7D
:101E200000E003E0681E45B2002DECDC00BFFF209F
:101E300084F8450000F064F900F038F994F9445052
:101E400010E0206908B9012000E0002048B904F141
:101E5000100001F01DFA08B100F044FA681E45B206
:101E600000E001E0002DECDC00BFFF2084F844001E
:101E700000F046F970BD00002DE9F04104464FF036
:101E8000000800F025FB4648006808B9FFF734FE5B
:101E900044480068204000286BD1D4B1083404F0D5
:101EA0000700B0B104F00700C0F10800044404F0DA
:101EB000070008B9012000E0002050B900BF502001
:101EC00080F31188BFF34F8FBFF36F8F00BF00BF48
:101ED000FEE7002C4DD034480068844249D8334E88
:101EE0003046056801E02E462D686868A04202D29F
:101EF00028680028F7D12A480068854239D0306820
:101F000000F10808286830606868001B102819D99B
:101F10002F1907F0070008B9012000E0002050B990
:101F200000BF502080F31188BFF34F8FBFF36F8F36
:101F300000BF00BFFEE76868001B78606C60384631
:101F4000FFF7D0FE184968680968081A1649086042
:101F50000846006816490968884203D2124800689A
:101F6000134908600F4968680968084368600020E1
:101F7000286001F0D9F908F0070008B9012000E055
:101F8000002050B900BF502080F31188BFF34F8F5D
:101F9000BFF36F8F00BF00BFFEE74046BDE8F08192
:101FA00078000020840000207C00002070000020C9
:101FB000800000200648006830B10549096801F139
:101FC0005000096D491C016001480068704700001D
:101FD0002C000020001F4FF080730360001F21F0D1
:101FE00001030360001F054B036014380260001FEB
:101FF0006FF002030360203870470000B91D00082D
:1020000001460A69D1E901309860D1E901035860BD
:102010005068884201D188685060002008611068CB
:10202000401E106010687047034B0360034B0B6049
:10203000802313607047000094000020F40000200B
:1020400000F1080141604FF0FF31816000F10801AB
:10205000C16001610021016070470021016170478A
:1020600010B502460B685C1C0CB9106907E002F160
:10207000080000E04068446824689C42FAD944683B
:102080004C604C68A160886041600A611468641CFF
:10209000146010BD42684A6093688B609368596011
:1020A0009160086103685B1C0360704700BF5020AB
:1020B00080F31188BFF34F8FBFF36F8F00BF0E48BF
:1020C0000068401C0C49086008460068012812D1CD
:1020D0000A480068C0B208B9012000E0002050B9E9
:1020E00000BF502080F31188BFF34F8FBFF36F8F75
:1020F00000BF00BFFEE770478800002004ED00E04D
:102100000D48006850B900BF502080F31188BFF31C
:102110004F8FBFF36F8F00BF00BFFEE70648006818
:10212000401E054908600846006820B9002080F379
:10213000118800BF00BF70478800002070B50646B8
:102140003546002E3FD0083D2C461F49606809687F
:10215000084008B1012000E0002050B900BF502025
:1021600080F31188BFF34F8FBFF36F8F00BF00BFA5
:10217000FEE7206808B9012000E0002050B900BF48
:10218000502080F31188BFF34F8FBFF36F8F00BFD4
:1021900000BFFEE70C4960680968084098B12068F4
:1021A00088B90949606809688843606000F090F95F
:1021B0000649606809680844044908602046FFF73A
:1021C00091FD01F0B1F870BD840000207C0000207A
:1021D00000204FF0E02108618861064800684FF454
:1021E0007A71B0FBF1F0401E4FF0E021486107200A
:1021F000086170472800002070B5FEF72BF80446F0
:10220000102C16D304F1E02090F8F0531548007814
:10221000854201DB012000E0002050B900BF5020C2
:1022200080F31188BFF34F8FBFF36F8F00BF00BFE4
:10223000FEE70D48006800F4E0600C490968884238
:1022400001D8012000E0002050B900BF502080F3E9
:102250001188BFF34F8FBFF36F8F00BF00BFFEE742
:1022600070BD00008C0000200CED00E0900000200C
:1022700070B504460025D4B11248006808B90120A1
:1022800000E0002050B900BF502080F31188BFF358
:102290004F8FBFF36F8F00BF00BFFEE700F018F94C
:1022A00000212046FFF7D6FA01F03EF805463DB979
:1022B0004FF0805004490860BFF34F8FBFF36F8F1A
:1022C00070BD00006400002004ED00E003490968CF
:1022D0000160034909684160704700005400002014
:1022E0004000002001200149086070475000002094
:1022F00070B504460D4654B900BF502080F31188D4
:10230000BFF34F8FBFF36F8F00BF00BFFEE70548DD
:10231000016818312046FFF7A3FE01212846FFF788
:1023200099FA70BD2C0000202DE9F04706460F46B3
:1023300034464FF00109002E67D0206D50B900BF20
:10234000502080F31188BFF34F8FBFF36F8F00BF12
:1023500000BFFEE7E06CB84201D23D4600E0E56C0C
:10236000E06AA84251D0206D01284ED1284800686B
:10237000844201D0012000E0002050B900BF50206D
:1023800080F31188BFF34F8FBFF36F8F00BF00BF83
:10239000FEE7D4F82C80E562A06900F0004010B997
:1023A000C5F10700A06108EB88011A4A02EB810120
:1023B0006069884201D1012000E0002028B3201D7F
:1023C000FFF71EFE78B9E06A00EB8000114951F872
:1023D000200040B994F82C10012088400E4909686B
:1023E00081430D48016094F82C10012088400A496F
:1023F0000968084308490860E16A01EB8101054A60
:1024000002EB8100211DFFF745FEBDE8F0870000CB
:102410002C000020340300204400002010B586B0BA
:1024200000200590049003AA04A905A8FFF7FCFD6D
:102430000022DDE904101346CDE9002102901DA120
:102440001E48039A00F04CFD1D49086008460068CC
:1024500008B1012400E00024012C17D100BF502056
:1024600080F31188BFF34F8FBFF36F8F00BF4FF022
:10247000FF30144908600120134908600020134907
:102480000860FFF7A6F800F08FF810E0601C08B1B4
:10249000012000E0002050B900BF502080F31188D7
:1024A000BFF34F8FBFF36F8F00BF00BFFEE706B0D3
:1024B00010BD000049444C4500000000751B000899
:1024C000600000205C000020480000204000002048
:1024D00002480068401C0149086070476400002001
:1024E00010B52A48006818B10120294908604CE05D
:1024F000002027490860FFF76DF826490860084664
:1025000000682549096888420BD92449096801F106
:102510005400496D1F4A12681F4B1B68D21A1144A0
:1025200001601C4800681C4908601D480068B0FA3A
:1025300080F0C0F11F0101EB81001A4A52F820001F
:1025400008B1012000E0002050B900BF502080F306
:102550001188BFF34F8FBFF36F8F00BF00BFFEE73F
:1025600001EB81020F4B03EB82004268526842602C
:1025700000F108024368934202D142685268426007
:102580004268D268054B1A6000BF10BD640000208D
:10259000500000206C000020680000202C0000206B
:1025A00044000020340300201CB552480068524902
:1025B000884201D0012000E0002050B900BF502027
:1025C00080F31188BFF34F8FBFF36F8F00BF00BF41
:1025D000FEE7484800684849491E884201D001206A
:1025E00000E0002050B900BF502080F31188BFF3F5
:1025F0004F8FBFF36F8F00BF00BFFEE73F49084614
:1026000000780190FF200A4610700846007800907C
:102610009DF8000000F0F0009DF80020904201D1EC
:10262000012000E0002050B900BF502080F3118845
:10263000BFF34F8FBFF36F8F00BF00BFFEE79DF862
:10264000000000F050002E4A107007202D4A106044
:1026500009E02C480068401E2A4A10609DF80000DE
:102660004006000E00909DF8000000F080008028D9
:10267000EFD024480068C0F10700042801D10120F0
:1026800000E0002050B900BF502080F31188BFF354
:102690004F8FBFF36F8F00BF00BFFEE71948006880
:1026A0000002184A10601046008800F4E0601060D4
:1026B000124A019810700F482030006840F47000F2
:1026C0000C49203108600846006840F070400860FE
:1026D000FFF77EFD00200C490860FDF783FD0B48E5
:1026E000006840F0404009490860FDF767FD0020A0
:1026F0001CBD000000ED00E071C20F4100E400E0ED
:102700008C000020900000208800002034EF00E0C2
:102710002DE9F84305460E4690460DB1012000E034
:10272000002050B900BF502080F31188BFF34F8FB5
:10273000BFF36F8F00BF00BFFEE70EB9002701E0B7
:1027400005FB06F707F15000FFF796FB04465CB166
:1027500004F15009002084F8460043464A463146B9
:1027600028460094FFF71AFA2046BDE8F8832DE9C1
:10277000F84380460E4617461D46DDF82090B8F116
:10278000000F01D0012000E0002050B900BF502010
:1027900080F31188BFF34F8FBFF36F8F00BF00BF6F
:1027A000FEE70DB1012000E0002050B900BF50202D
:1027B00080F31188BFF34F8FBFF36F8F00BF00BF4F
:1027C000FEE707B10EB1012000E0002050B900BFC4
:1027D000502080F31188BFF34F8FBFF36F8F00BF7E
:1027E00000BFFEE707B90EB9012000E0002050B994
:1027F00000BF502080F31188BFF34F8FBFF36F8F5E
:1028000000BF00BFFEE7502000900098502801D183
:10281000012000E0002050B900BF502080F3118853
:10282000BFF34F8FBFF36F8F00BF00BFFEE72C4693
:102830004CB1012084F846004B463A4631464046AA
:102840000094FFF7ABF92046BDE8F88370B5054664
:102850000E462C4654B900BF502080F31188BFF3B8
:102860004F8FBFF36F8F00BF00BFFEE7FFF71EFC67
:10287000D4E90F12206801FB020060600020A06311
:102880002068A060E06B401E226C216800FB0210F3
:10289000E060FF2084F8440084F845009EB9206978
:1028A00008B9012000E00020A8B904F1100000F0F0
:1028B000EFFC80B14FF0805009490860BFF34F8FA3
:1028C000BFF36F8F07E004F11000FFF7B9FB04F1CD
:1028D0002400FFF7B5FBFFF713FC012070BD0000DB
:1028E00004ED00E02DE9FF4383B0064688461D460F
:1028F0004FF00009344654B900BF502080F31188CE
:10290000BFF34F8FBFF36F8F00BF00BFFEE7B8F17B
:10291000000F01D1206C08B9012000E0002050B95F
:1029200000BF502080F31188BFF34F8FBFF36F8F2C
:1029300000BF00BFFEE7022D02D1E06B012801D1EC
:10294000012000E0002050B900BF502080F3118822
:10295000BFF34F8FBFF36F8F00BF00BFFEE700F0E4
:102960001BFB08B9059808B9012000E0002050B908
:1029700000BF502080F31188BFF34F8FBFF36F8FDC
:1029800000BF00BFFEE700BFFFF790FBA06BE16B4D
:10299000884201D3022D28D12A4641462046FFF71E
:1029A0003AF80746606A08B9012000E0002068B9DB
:1029B00004F1240000F06CFC88B14FF080503249E3
:1029C0000860BFF34F8FBFF36F8F08E03FB14FF048
:1029D00080502D490860BFF34F8FBFF36F8FFFF713
:1029E0008FFB012007B0BDE8F083059818B9FFF709
:1029F00087FB0020F6E7B9F1000F04D101A8FFF72B
:102A000065FC4FF00109FFF77BFBFFF761FDFFF766
:102A10004DFB94F94400401C10B9002084F8440098
:102A200094F94500401C10B9002084F84500FFF7D8
:102A300067FB05A901A800F0DBF9F0B92046FFF714
:102A400092F9A0B104F110000599FFF751FC20465E
:102A5000FFF7D2F900F068FC002895D14FF08050C4
:102A600009490860BFF34F8FBFF36F8F8CE7204693
:102A7000FFF7C2F900F058FC86E72046FFF7BCF9E3
:102A800000F052FC0020ADE704ED00E02DE9F04736
:102A900006460F46344654B900BF502080F31188D3
:102AA000BFF34F8FBFF36F8F00BF00BFFEE7206CF7
:102AB00008B9012000E0002050B900BF502080F389
:102AC0001188BFF34F8FBFF36F8F00BF00BFFEE7CA
:102AD000206808B9606808B9012000E0002050B9FA
:102AE00000BF502080F31188BFF34F8FBFF36F8F6B
:102AF00000BF00BFFEE7FFF77FFB00BF5021EFF3F1
:102B0000118081F31188BFF34F8FBFF36F8F00BF28
:102B10000546D4F83890E06B48451ED994F945A095
:102B200009F10100A0630AF1010070B9606A08B9F7
:102B3000012000E0002068B904F1240000F0A8FBA7
:102B400040B13FB10120386004E00AF1010040B219
:102B500084F845004FF0010801E04FF0000800BF85
:102B600085F3118800BF4046BDE8F0872DE9F05F8E
:102B7000064689461746344654B900BF502080F3B4
:102B80001188BFF34F8FBFF36F8F00BF00BFFEE709
:102B9000B9F1000F01D1206C08B9012000E000203C
:102BA00050B900BF502080F31188BFF34F8FBFF39F
:102BB0006F8F00BF00BFFEE7FFF71EFB00BF502175
:102BC000EFF3118081F31188BFF34F8FBFF36F8F45
:102BD00000BF0546D4F838A0BAF1000F22D094F90E
:102BE00044B049462046FEF701FFAAF10100A06368
:102BF0000BF1010070B9206908B9012000E0002044
:102C000068B904F1100000F043FB40B13FB101206E
:102C1000386004E00BF1010040B284F844004FF04A
:102C2000010801E04FF0000800BF85F3118800BFE4
:102C30004046BDE8F09F00002DE9F34182B0054613
:102C40004FF000082C46002654B900BF502080F3F6
:102C50001188BFF34F8FBFF36F8F00BF00BFFEE738
:102C6000206C08B9012000E0002050B900BF5020BE
:102C700080F31188BFF34F8FBFF36F8F00BF00BF8A
:102C8000FEE700F089F908B9039808B9012000E0CF
:102C9000002050B900BF502080F31188BFF34F8F40
:102CA000BFF36F8F00BF00BFFEE700BFFFF7FEF965
:102CB000A76BFFB1781EA063206810B9FFF77AF9FF
:102CC0006060206908B9012000E0002060B904F1CB
:102CD000100000F0DDFA38B14FF080504349086031
:102CE000BFF34F8FBFF36F8FFFF70AFA012004B0D5
:102CF000BDE8F081039898B90EB9012000E00020EA
:102D000050B900BF502080F31188BFF34F8FBFF33D
:102D10006F8F00BF00BFFEE7FFF7F2F90020E6E784
:102D2000B8F1000F04D16846FFF7D0FA4FF0010860
:102D3000FFF7E6F9FFF7CCFBFFF7B8F994F9440089
:102D4000401C10B9002084F8440094F94500401C50
:102D500010B9002084F84500FFF7D2F903A96846AE
:102D600000F046F840BB2046FEF7F0FFF0B12068C7
:102D700038B9FFF79BF9606800F026FA0646FFF7BE
:102D8000BFF904F124000399FFF7B2FA2046FFF7D8
:102D900033F800F0C9FA002888D14FF08050134969
:102DA0000860BFF34F8FBFF36F8F7FE72046FFF7B9
:102DB00023F800F0B9FA79E72046FFF71DF800F094
:102DC000B3FA2046FEF7C2FF0028EED05EB1FFF74F
:102DD0006DF92046FEF785FE074639466068FFF725
:102DE000A3FAFFF78DF9002081E7000004ED00E071
:102DF00070B505460C4655B900BF502080F31188C8
:102E0000BFF34F8FBFF36F8F00BF00BFFEE754B912
:102E100000BF502080F31188BFF34F8FBFF36F8F37
:102E200000BF00BFFEE7FFF741F91248026868687B
:102E3000131A2068401C08B9002617E00E492868BC
:102E40000968884204D06868904201D801260DE0E4
:102E50002068984207D92068C01A20602846FFF7EA
:102E600035FA002602E0002020600126FFF748F92D
:102E7000304670BD40000020540000202DE9FF4F77
:102E800085B0804689461746DDE912ABB800FEF7EB
:102E9000F3FF064656B16020FEF7EEFF04460CB184
:102EA000266304E03046FFF749F900E000248CB1C6
:102EB000002084F85D00CDE900ABCDE902403A4640
:102EC00049464046089BFEF77EFE2046FEF70EFD73
:102ED000012501E04FF0FF35284609B0BDE8F08F2D
:102EE0002DE9F04F85B00746884691469A46DDE9C0
:102EF0000EB6109C0EB1012000E0002050B900BFBA
:102F0000502080F31188BFF34F8FBFF36F8F00BF46
:102F100000BFFEE70CB1012000E0002050B900BF67
:102F2000502080F31188BFF34F8FBFF36F8F00BF26
:102F300000BFFEE7602003900398602801D10120C4
:102F400000E0002050B900BF502080F31188BFF38B
:102F50004F8FBFF36F8F00BF00BFFEE7B4B1AEB1BC
:102F600025462C462E63022085F85D00002004A92A
:102F700053464A46CDE900B1CDE9025041463846B4
:102F8000FEF721FE2846FEF7B1FC01E00020049088
:102F9000049805B0BDE8F08F0549096809B901201A
:102FA00005E00449096809B9022000E000207047E3
:102FB00048000020640000202DE9F0414FF0000897
:102FC00044480068002877D143480068451C4248BF
:102FD000056015BB41480068006808B9012000E0A1
:102FE000002050B900BF502080F31188BFF34F8FED
:102FF000BFF36F8F00BF00BFFEE73848076838484F
:103000000068364908603648076036480068401C4A
:1030100034490860FEF7B6FE00BF334800688542B9
:103020003CD300BF2D480068006808B9012000E0CB
:10303000002020B14FF0FF302B4908602DE02748D9
:103040000068C068C4686668B54202D22648066057
:1030500023E0201DFEF7D4FFA06A18B104F1180088
:10306000FEF7CEFF94F82C10012088401F49096814
:1030700008431E490860E16A01EB81011C4A02EB2A
:103080008100211DFFF706F81A49E06A0968C96A3C
:103090008842C7D34FF00108C4E700BF1548006855
:1030A000C06A00EB8000124951F82000012801D9C4
:1030B0004FF0010805E0FFE70F480068401C0E498B
:1030C00008600E48006808B14FF001084046BDE8AE
:1030D000F08100006400002040000020300000204B
:1030E00034000020540000205C0000204400002038
:1030F000340300202C0000204C0000205000002051
:1031000070B505462C460026002D55D02B4800688A
:10311000844201D1012000E0002050B900BF5020BE
:1031200080F31188BFF34F8FBFF36F8F00BF00BFD5
:10313000FEE7206D50B900BF502080F31188BFF327
:103140004F8FBFF36F8F00BF00BFFEE7206D401EA3
:103150002065E16CE06A88422ED0206D60BB201DA6
:10316000FEF74EFF78B9E06A00EB8000144951F891
:10317000200040B994F82C100120884011490968BA
:10318000814310480160E06CE062E06AC0F1070032
:10319000A06194F82C10012088400A49096808436E
:1031A00008490860E16A01EB8101054A02EB8100F0
:1031B000211DFEF76FFF0126304670BD2C00002058
:1031C000340300204400002070B505462C4600263C
:1031D000002D54D02B49E06A0968C96A884247D259
:1031E000A06900F0004028B926480068C06AC0F114
:1031F0000700A061E16A01EB8101234A02EB810132
:103200006069884201D1012000E0002050B3201DF8
:10321000FEF7F6FE78B9E06A00EB80001A4951F833
:10322000200040B994F82C10012088401749096803
:1032300081431648016013480068C06AE06294F850
:103240002C10012088401149096808430F49086083
:10325000E16A01EB81010C4A02EB8100211DFEF7BE
:1032600019FF03E007480068C06AE062012606E033
:103270000449E06C0968C96A884200D201263046D8
:1032800070BD00002C00002034030020440000200A
:1032900070B50646F068C46854B900BF502080F38A
:1032A0001188BFF34F8FBFF36F8F00BF00BFFEE7E2
:1032B00004F11800FEF7A4FE15480068A8B9201D07
:1032C000FEF79EFE94F82C100120884011490968F1
:1032D000084310490860E16A01EB81010E4A02EBE4
:1032E0008100211DFEF7D6FE04E004F118010B4811
:1032F000FEF7D0FE0A49E06A0968C96A884204D923
:10330000012501200749086000E00025284670BD1E
:10331000640000204400002034030020E803002063
:103320002C0000205000002070B5002400263648F4
:10333000006850B900BF502080F31188BFF34F8F51
:10334000BFF36F8F00BF00BFFEE7FEF7AFFE2E4852
:103350000068401E2C4908600846006800284FD1CC
:103360002A48006800284BD024E02948C068C46877
:1033700004F11800FEF744FE201DFEF741FE94F80C
:103380002C1001208840234909680843214908601E
:10339000E16A01EB8101204A02EB8100211DFEF769
:1033A00079FE1E49E06A0968C96A884202D3012091
:1033B0001B4908601648006808B9012000E0002099
:1033C0000028D2D00CB1FEF7DDFC1648056865B1C7
:1033D00000BFFFF7F1FD10B10120114908606D1E1B
:1033E000002DF6D100200F4908600D48006838B163
:1033F000012630070C490860BFF34F8FBFF36F8F72
:10340000FEF77EFE304670BD640000203C000020C8
:10341000E803002044000020340300202C0000209A
:10342000500000204C00002004ED00E0283500088A
:103430006F12000800000000000000008000000083
:103440000000000000000000EC3400087D120008BD
:10345000FDFF0000000000008000000000000000F0
:1034600000000000F834000895120008FDFF00007D
:1034700000000000800000000000000000000000CC
:1034800004350008AD120008FDFF00000000000038
:10349000800000000000000000000000103500085F
:1034A000E5120008FDFF00000000000080000000A1
:1034B00000000000000000001C3500080113000897
:1034C000FDFF000000000000800000000000000080
:1034D00000000000000000000000000001020304E2
:1034E0000607080900000000010203046D79546119
:1034F000736B3032000000006D795461736B3033B0
:10350000000000006D795461736B303400000000DE
:103510006D795461736B3035000000006D79546132
:10352000736B30360000000064656661756C74541E
:1035300061736B0054350008000000209400000007
:10354000B4150008E835000894000020945F0000DE
:10355000C41500080000000000000000000000008A
:10356000000000000000000000000000000000005B
:103570000000000010000000010000000024F40022
:10358000000000000000000000000000000000003B
:10359000000000000000000000000000000000002B
:1035A000000000000000000000000000000000001B
:1035B000000000000000000000000000000000000B
:1035C00000000000000000000000000000000000FB
:1035D000000000000000000000000000AAAAAAAA43
:0835E0000000000000000000E3
:040000050800018965
:00000001FF
