:020000040800F2
:10000000D86900205D020008F912000841110008BB
:10001000F5120008B90300081D16000800000000D2
:100020000000000000000000000000009D0100082A
:10003000BD03000800000000F9010008E9130008F2
:1000400077020008770200087702000877020008AC
:1000500077020008FB120008C103000877020008BD
:10006000770200087702000877020008770200088C
:10007000770200087702000877020008770200087C
:10008000770200087702000877020008770200086C
:10009000770200087702000877020008770200085C
:1000A000770200083515000877020008770200087B
:1000B000770200087702000877020008770200083C
:1000C000770200087702000877020008770200082C
:1000D000770200087702000877020008770200081C
:1000E000770200087702000877020008770200080C
:1000F00077020008770200087702000877020008FC
:1001000077020008770200087702000877020008EB
:1001100077020008770200087702000877020008DB
:1001200077020008770200087702000877020008CB
:1001300077020008770200087702000877020008BB
:1001400077020008770200087702000877020008AB
:10015000770200087702000877020008770200089B
:10016000770200087702000877020008770200088B
:1001700077020008770200087702000800000000FC
:100180007702000877020008DFF80CD000F002F9CF
:10019000004800478D180008D86900202C4B1968CA
:1001A0000868B0E8F04F80F30988BFF36F8F4FF015
:1001B000000080F3118870470000000008480068C4
:1001C000006880F308884FF0000080F3148862B65E
:1001D00061B6BFF34F8FBFF36F8F00DF00BF00BF6B
:1001E00008ED00E0DFF80C00016841F470010160E7
:1001F000704700BF88ED00E0EFF30980BFF36F8F19
:10020000134B1A681EF0100F08BF20ED108A20E96A
:10021000F04F106009B44FF0500080F31188BFF325
:100220004F8FBFF36F8F02F0A9FD4FF0000080F3F6
:10023000118809BC19680868B0E8F04F1EF0100F6B
:1002400008BFB0EC108A80F30988BFF36F8F704746
:100250003C000020EFF3058070470000064880470F
:1002600006480047FEE7FEE7FEE7FEE7FEE7FEE79B
:10027000FEE7FEE7FEE7FEE7D1140008890100086B
:100280002DE9F05F0546002092469B4688460646CB
:10029000814640241BE0284641464746224600F05E
:1002A00069F853465A46C01A914110D31146184670
:1002B000224600F050F82D1A67EB01084F462246FF
:1002C0000120002100F047F817EB00094E41201EE5
:1002D000A4F10104DFDC484631462A464346BDE826
:1002E000F09F40EA01039B0703D009E008C9121FF1
:1002F00008C0042AFAD203E011F8013B00F8013BE0
:10030000521EF9D27047D2B201E000F8012B491E0B
:10031000FBD270470022F6E710B513460A460446A2
:100320001946FFF7F0FF204610BD30B50B460146D9
:1003300000202022012409E021FA02F59D4205D384
:1003400003FA02F5491B04FA02F52844151EA2F12E
:100350000102F1DC30BD202A04DB203A00FA02F170
:10036000002070479140C2F1200320FA03F31943A3
:1003700090407047202A04DB203A21FA02F0002145
:10038000704721FA02F3D040C2F1200291400843A5
:1003900019467047064C074D06E0E06840F001033F
:1003A00094E8070098471034AC42F6D3FFF7F0FE0C
:1003B000683E0008883E000800BFFEE77047000066
:1003C00010B5012000F00AF80121024800F014F9EC
:1003D000044610BD000002407047704710B5044647
:1003E00004480068204020B1024804602046FFF71E
:1003F000F4FF10BD143C0140F8B502460B46002541
:10040000002400200021DCE0012606FA01F51E6828
:1004100006EA0504AC4273D15E68022E02D05E6823
:10042000122E13D1CF0802F1200656F827004E07EE
:10043000F70E0F26BE40B0434F07FF0E1E69BE40A9
:100440003043CF0802F1200646F8270010684F001D
:100450000326BE40B0431E7906F003064F00BE409F
:10046000304310605E68012E08D05E68022E05D011
:100470005E68112E02D05E68122E13D190684F0074
:100480000326BE40B0434F00DE68BE40304390605C
:10049000506801268E40B0431E79C6F300168E4088
:1004A00030435060D0684F000326BE40B0434F0039
:1004B0009E68BE403043D0605E6806F08056B6F15C
:1004C000805F7DD100BF00260096404E366846F41E
:1004D00080463E4F3E603E46366806F480460096B3
:1004E00000BF00BF3A4E8F0856F827008E07370F1F
:1004F0000F26BE40B043374EB24202D1002624E060
:100500005EE0354EB24201D101261EE0334EB242CA
:1005100001D1022619E0324EB24201D1032614E085
:10052000304EB24201D104260FE02F4EB24201D12B
:1005300005260AE02D4EB24201D1062605E02C4EDA
:10054000B24201D1072600E008268F073F0FBE40C8
:1005500030431F4E8F0846F82700264E3068A043D0
:100560005E6806F48036B6F5803F00D12043214E08
:100570003060361D3068A0435E6806F40036B6F57C
:10058000003F00D120431B4E361D3060361D3068C1
:10059000A0435E6806F48016B6F5801F00D12043A4
:1005A000144E08363060361D3068A0435E6806F48D
:1005B0000016B6F5001F00D120430E4E0C363060F9
:1005C000491C1029FFF420AFF8BD00004438024058
:1005D00008380140000002400004024000080240C8
:1005E000000C0240001002400014024000180240BB
:1005F000001C0240003C0140024613690B400BB155
:10060000012000E00020704742690A408A4202D17E
:100610000A04826100E0816170470AB1816101E0F2
:100620000B048361704700000148006870470000B8
:100630002C00002003480068034909780844014958
:10064000086070472C0000203400002010B50D48D1
:10065000006840F400700B4908600846006840F4E8
:10066000806008600846006840F4807008600320DD
:1006700000F0D0F8002000F007F800F04BF8002060
:1006800010BD0000003C024070B588B00446002553
:10069000002600222146192000F07EF8192000F0E3
:1006A0006BF800BF002001901648006840F0010080
:1006B000144908600846006800F00100019000BF7E
:1006C00000BF02A903A800F079F900F09FF94500E6
:1006D0000D48B5FBF0F0461E0C480D49086040F28D
:1006E000E7310B48C160466000210161816000F084
:1006F0001BFC20B9064800F032FC08B070BD012098
:10070000FBE700004438024040420F000000014077
:10071000BC00002008B500BF00200090154800680C
:1007200040F48040134908600846006800F48040A7
:10073000009000BF00BF00BF00200090081F0068AD
:1007400040F08050091F08600846006800F08050A3
:10075000009000BF00BF00220F21901E00F01CF887
:1007600000220521084600F017F8052000F004F8E3
:1007700008BD00004438024001460846002809DB55
:1007800000F01F0301229A4043099B0003F1E0237C
:10079000C3F8002100BF70472DE9F05F80460D4689
:1007A0001646002700F04CFF074639462A463346D6
:1007B00001F00700C0F1070ABAF1040F02D94FF0A7
:1007C000040A01E0C0F1070AD14600F1040ABAF1B7
:1007D000070F02D24FF0000A01E0A0F1030AD4464D
:1007E0004FF0010A0AFA09FAAAF1010A0AEA020A12
:1007F0000AFA0CFA4FF0010B0BFA0CFBABF1010BF0
:100800000BEA030B4AEA0B042146404600F020FFA6
:10081000BDE8F09F00BF00F00702064B19684FF6D5
:10082000FF031940044B0B4343EA0221014B1960BB
:1008300000BF70470CED00E00000FA0570B50446FB
:100840000D460CB9012070BD5848006800F00F003B
:10085000A84209D255490D700846006800F00F0003
:10086000A84201D00120EEE7207800F00200022823
:100870001DD1207800F00400042805D14C48006800
:1008800040F4E0504A490860207800F00800082849
:1008900005D14748006840F4604045490860444835
:1008A000006820F0F000A168084341490860207802
:1008B00000F00100A8B36068012807D13C4808385F
:1008C0000068C0F34040B8B90120BCE76068022866
:1008D00002D06068032807D1354808380068C0F3A3
:1008E000406048B90120AEE7314808380068C0F3DD
:1008F000400008B90120A6E72D48006820F0030059
:10090000616808432A490860FFF78EFE064609E041
:10091000FFF78AFE801B41F28831884202D903200A
:1009200091E707E02248006800F00C006168B0EB36
:10093000810FEDD11D48006800F00F00A84209D9D1
:100940001A490D700846006800F00F00A84201D057
:10095000012078E7207800F00400042807D114482B
:10096000006820F4E050E1680843114908602078ED
:1009700000F00800082808D10D48006820F4604005
:10098000216940EAC1000A49086000F04FF80849AF
:100990000968C1F30311074A515CC8400649086061
:1009A0000020FFF771FE00204DE70000003C0240F0
:1009B00008380240E03D0008380000200F220260A5
:1009C0000D4A126802F0030242600B4A126802F0FC
:1009D000F0028260084A126802F4E052C260064ADD
:1009E000126802F46042D2080261044A126802F0FE
:1009F0000F020A607047000008380240003C0240C5
:100A000001480068704700003800002000B5FFF77B
:100A1000F7FF04490968C1F34231034A515CC840F9
:100A200000BD000008380240F03D00082DE9F04705
:100A3000002400250026A1462548006800F00C008F
:100A400020B1042805D008283AD105E0DFF88490C9
:100A500039E0DFF8849036E01D48001F006800F0A0
:100A60003F041B48001F006800F4800078B11A485A
:100A70001749091F0968C1F38811A0FB01700146DD
:100A8000224600233846FFF7FBFB05460EE01148DF
:100A90000F49091F0968C1F38811A0FB01700146C5
:100AA000224600233846FFF7EBFB05460848001FA7
:100AB0000068C0F30140401C4600B5FBF6F902E0B7
:100AC000DFF8109000BF00BF4846BDE8F087000087
:100AD000083802400024F40000127A00F8B50446F9
:100AE0000CB90120F8BD207800F00100002874D076
:100AF000F948006800F00C0004280DD0F6480068A2
:100B000000F00C00082813D1F348001F006800F41F
:100B10008000B0F5800F0BD1EF4808380068C0F3B3
:100B20004040002859D06068002856D10120D9E7FC
:100B300000BF6068B0F5803F08D1E748083800681A
:100B400040F48030E449083908601EE06068B0F580
:100B5000A02F0DD1E0480838006840F48020DE491D
:100B6000083908600846006840F4803008600CE0EE
:100B7000D9480838006820F48030D749083908601F
:100B80000846006820F48020086000BF606890B1CB
:100B9000FFF74AFD054606E0FFF746FD401B6428C7
:100BA00001D903209EE7CC4808380068C0F34040D4
:100BB0000028F1D011E0FFF737FD054606E0FFF70A
:100BC00033FD401B642801D903208BE7C248083855
:100BD0000068C0F340400028F1D1207800F0020006
:100BE00002285FD1BC48006800F00C0058B1BA4838
:100BF000006800F00C0008281CD1B748001F0068EE
:100C000000F48000B0B9B44808380068C0F3400070
:100C100020B1E068012801D0012063E7AE48083820
:100C2000006820F0F800216940EAC100AA490839AB
:100C3000086037E0E06800B30120A8490860FFF7CA
:100C4000F3FC054606E0FFF7EFFC401B022801D944
:100C5000032047E7A04808380068C0F34000002898
:100C6000F1D09D480838006820F0F800216940EA7A
:100C7000C10099490839086014E0002097490860CC
:100C8000FFF7D2FC054606E0FFF7CEFC401B02282A
:100C900001D9032026E7904808380068C0F34000D7
:100CA0000028F1D1207800F0080008282CD16069D4
:100CB000A8B101208A490860FFF7B6FC054606E0A6
:100CC000FFF7B2FC401B022801D903200AE7824843
:100CD0006C300068C0F340000028F1D014E0002020
:100CE0007F490860FFF7A0FC054606E0FFF79CFC83
:100CF000401B022801D90320F4E677486C300068D5
:100D0000C0F340000028F1D1207800F0040004284E
:100D100070D1002670483830006800F0805090B9DB
:100D200000BF002000906C483830006840F08050D0
:100D30006949383108600846006800F0805000902A
:100D400000BF00BF01266748006800F48070B0B99A
:100D50006448006840F4807062490860FFF764FCF2
:100D6000054606E0FFF760FC401B022801D903207E
:100D7000B8E65C48006800F480700028F2D000BF3C
:100D8000A068012808D154486830006840F001008C
:100D90005149683108601DE0A06805280DD14E4812
:100DA0006830006840F004004B496831086008462C
:100DB000006840F0010008600CE0474868300068B7
:100DC00020F001004449683108600846006820F0BE
:100DD0000400086000BFA068A8B1FFF725FC054625
:100DE00009E0FFF721FC401B41F28831884202D91B
:100DF000032077E626E0384868300068C0F34000FA
:100E00000028EED013E0FFF70FFC054608E0FFF7DF
:100E10000BFC401B41F28831884201D9032061E676
:100E20002D4868300068C0F340000028EFD1012E43
:100E300007D129483830006820F0805026493831E1
:100E4000086000BFA069B8B32348006800F00C0038
:100E500008285ED0A069022846D100201F490866F4
:100E6000FFF7E2FB054606E0FFF7DEFB401B02282A
:100E700001D9032036E6184808380068C0F34060FE
:100E80000028F1D1D4E907010843616A40EA8111E1
:100E90000122A06AC2EB500041EA00412C20005D13
:100EA00041EA00600C49091F086001200B490866EF
:100EB000FFF7BAFB054607E02DE0FFF7B5FB401B47
:100EC000022801D903200DE6034808380068C0F362
:100ED00040600028F1D01EE0083802400000474280
:100EE000800E47420070004000200C490866FFF762
:100EF0009BFB054606E0FFF797FB401B022801D944
:100F00000320EFE506480068C0F340600028F2D1F6
:100F100001E00120E6E50020E4E500000000474292
:100F2000003802407047704710B504460CB90120E4
:100F300010BD94F83D0028B9002084F83C002046FC
:100F400000F00CF8022084F83D00211D206800F01C
:100F5000F9FA012084F83D000020E9E770470146D6
:100F60000868C06840F001000B68D86008688068B5
:100F700000F00702062A05D00868006840F001006A
:100F80000B68186000207047704710B50446206851
:100F90000069C0F34000D8B12068C068C0F34000C9
:100FA000B0B16FF00200216808610120207720684D
:100FB000806900F0030018B12046FFF7E5FF05E067
:100FC000204600F0ADF8204600F0ABF80020207776
:100FD00020680069C0F38000D8B12068C068C0F301
:100FE0008000B0B16FF00400216808610220207712
:100FF0002068806900F4407018B12046FFF7C4FFF4
:1010000005E0204600F08CF8204600F08AF8002029
:10101000207720680069C0F3C000D8B12068C0689C
:10102000C0F3C000B0B16FF008002168086104206F
:1010300020772068C06900F0030018B12046FFF750
:10104000A3FF05E0204600F06BF8204600F069F8A9
:101050000020207720680069C0F30010D8B1206814
:10106000C068C0F30010B0B16FF0100021680861D3
:10107000082020772068C06900F4407018B120462D
:10108000FFF782FF05E0204600F04AF8204600F016
:1010900048F8002020772068006900F0010058B16E
:1010A0002068C06800F0010030B16FF001002168D5
:1010B0000861204600F036F820680069C0F3C010CF
:1010C00058B12068C068C0F3C01030B16FF0800024
:1010D000216808612046FFF725FF20680069C0F3FA
:1010E000801058B12068C068C0F3801030B16FF034
:1010F000400021680861204600F020F8206800695F
:10110000C0F3401058B12068C068C0F3401030B13F
:101110006FF02000216808612046FFF704FF10BD32
:101120007047704710B5044603492068884201D1D2
:10113000FFF780FA10BD000000000140704700007A
:1011400008B500224FF480412E48FFF766FA58E0B8
:1011500006240EE02C48009002E00098401E00900B
:1011600000980028F9D14FF480412648FFF74CFA47
:10117000641E002CEED12548009002E00098401E2D
:10118000009000980028F9D106240EE01F48009036
:1011900002E00098401E009000980028F9D14FF41A
:1011A00080411848FFF730FA641E002CEED1174832
:1011B000009002E00098401E009000980028F9D1AD
:1011C00006240EE01048009002E00098401E0090B7
:1011D00000980028F9D14FF480410A48FFF714FA2B
:1011E000641E002CEED1062009E00849009102E0BF
:1011F0000099491E009100990029F9D1401E00284C
:10120000F3D1A5E7000C024040420F0080841E008D
:1012100000B587B0142102A8FFF77CF800BF0020BA
:1012200001903048006840F080002E490860084670
:10123000006800F08000019000BF00BF00BF0020E8
:1012400001900846006840F0010008600846006808
:1012500000F00100019000BF00BF00BF002001901E
:101260000846006840F0080008600846006800F082
:101270000800019000BF00BF00BF00200190084699
:10128000006840F0020008600846006800F00200B4
:10129000019000BF00BF00224FF470411248FFF7D9
:1012A000BCF901200290114803900020049002A98B
:1012B0000F48FFF7A1F84FF470400290012003900F
:1012C00000200490059002A90748FFF795F8002236
:1012D00005210620FFF760FA0620FFF74DFA07B058
:1012E00000BD000030380240000C02400000311008
:1012F0000000024000BFFEE7704770470EB500BF18
:101300000BA000F08DF9009810280CD100BF0DA0A3
:10131000019900F085F9019810B90BA000F080F94F
:1013200000981028F3D041F2883000F053FBE7E733
:101330000A427574746F6E207374617465733A2019
:1013400000000000256900002000000000BF01210E
:101350000548FFF751F918B901210348FFF74CF987
:10136000642000F037FBF2E70000024000BF4FF4BA
:101370007A7000F02FFBFAE700BF4FF4805103486A
:10138000FFF742F9642000F025FBF6E7000C02406D
:1013900000BF4FF480410348FFF736F9962000F074
:1013A00019FBF6E7000C024000BF0648006820B1B8
:1013B0004FF400410448FFF727F9FA2000F00AFB38
:1013C000F3E7000028000020000C024000BF4FF4AB
:1013D00000510448FFF718F94FF4AF7000F0FAFA23
:1013E000F5E70000000C024010B500BF502080F36C
:1013F0001188BFF34F8FBFF36F8F00BF02F01EFA4B
:1014000018B14FF080500449086000BF002080F3FD
:10141000118800BF10BD000004ED00E000B593B0DE
:10142000302107A8FEF776FF142102A8FEF772FF0D
:1014300000BF002001902448006840F080502249FD
:1014400008600846006800F08050019000BF00BFAF
:1014500000BF002001901D48006840F480401B49F7
:1014600008600846006800F48040019000BF00BF9B
:10147000012007900004089002200D9041050E9174
:1014800004210F91A82110910221119104211291A0
:1014900007A8FFF723FB08B1FEF79EFF0F2002907D
:1014A00002200390002004904FF4A05005904FF4C8
:1014B00080500690052102A8FFF7C0F908B1FEF799
:1014C0008BFF13B000BD00004038024000700040A8
:1014D0001448006840F4700012490860124800681F
:1014E00040F001001049086000200F4908310860F1
:1014F0000D4800680D4908400B4908600C48091D5B
:101500000860081F006820F48020091F0860002080
:1015100005490C3108604FF00060024980390860CD
:101520007047000088ED00E000380240FFFFF6FE43
:101530001030002410B50248FFF727FD10BD000051
:10154000BC00002010B50268294B98420ED0B0F1C3
:10155000804F0BD0274B984208D0274B984205D09C
:10156000264B984202D0264B984203D122F07002BB
:101570004B681A431E4B984220D0B0F1804F1DD0CB
:101580001C4B98421AD01C4B984217D01B4B9842C8
:1015900014D01B4B984211D01A4B98420ED01A4BC4
:1015A00098420BD0194B984208D0194B984205D05D
:1015B000184B984202D0184B984203D122F4407243
:1015C000CB681A4322F080034C6943EA04020260AC
:1015D0008B68C3620B688362054B984202D0084B4C
:1015E000984201D10B6903630123436110BD0000E0
:1015F000000001400004004000080040000C0040D2
:101600000004014000400140004401400048014006
:1016100000180040001C00400020004000BFFEE712
:101620000FB4054B10B503A9044A029800F03CF82A
:1016300010BC5DF814FB00006518000800000020D5
:1016400002480068C0F30220704700000CED00E083
:1016500010B5002804DB0A07130E054A135406E0F0
:101660000A07140E034A00F00F031B1FD45410BDC9
:1016700000E400E018ED00E0EFF311807047EFF3B5
:1016800005807047EFF31080704702E008C8121F12
:1016900008C1002AFAD170477047002001E001C15B
:1016A000121F002AFBD170472DE9FF4F8BB09A46DD
:1016B0000F460546002606E025280BD052460D9918
:1016C00090476D1C761C28780028F5D10FB0304665
:1016D000BDE8F08F0024A0460122604900E00443E9
:1016E00015F8013F203B02FA03F00842F7D12878B1
:1016F0002E2817D115F8010F44F004042A280ED023
:101700006FF02F022878A0F1300109290AD808EBE0
:10171000880102EB410100EB01086D1CF2E757F86C
:10172000048B6D1C287869283ED006DC0028CDD0BB
:1017300063280BD0642804D136E0732810D07528B4
:101740004BD052460D999047761C85E017F8040B54
:101750008DF8000000208DF80100E946012003E02B
:1017600057F8049B4FF0FF3061074FF0000401D49D
:101770000AE0641C44450DDA8442FADB19F80410CF
:101780000029F6D106E0641C8442FCDB19F8041041
:101790000029F8D1264404E019F8010B52460D99AE
:1017A0009047641EF8D257E001CF4FF00A0B002893
:1017B00002DA40422D2102E0210504D52B218DF8CB
:1017C0002410012103E0E10705D02021F7E70DF106
:1017D000200908910CE00021F9E701CF4FF00A0B36
:1017E000F9E75946FEF7A1FD01F1300209F8012D94
:1017F0000028F6D1ADEB090000F1200B600701D401
:101800004FF00108D84502DDA8EB0B0000E00020F6
:101810008046002406E009A85246005D0D999047D5
:10182000641C761C08988442F5DB04E030205246A4
:101830000D999047761CB8F10001A8F10108F5DC7C
:1018400005E019F8010B52460D999047761CBBF143
:101850000001ABF1010BF4DC6D1C34E70928010039
:1018600070470000074A126802F0807242B100BF60
:101870004FF060421268002AFAD04FF060431870AF
:1018800070470000FCED00E000207047CAB0FEF792
:10189000DDFEFFF7C3FDFFF7BBFC00F0B7F83B4BE5
:1018A0000FCB499346AB07C346AA0121084600F077
:1018B0004BF93749086018223449103140A8FEF727
:1018C00010FD40AA0221102000F0E2F83149086022
:1018D00024222E49283137A8FEF703FD37AA00211C
:1018E0002D4800F0A7F92D490860242227494C31E2
:1018F0002EA8FEF7F6FC2EAA0021294800F09AF93E
:101900002849086024222149703125A8FEF7E9FC06
:1019100025AA0021244800F08DF9244908602422DA
:101920001A4994311CA8FEF7DCFC1CAA00212048AF
:1019300000F080F91F49086024221449B83113A827
:10194000FEF7CFFC13AA00211B4800F073F91B49D6
:10195000086024220D49DC310AA8FEF7C2FC0AAA5D
:101960000021174800F066F916490860242216493C
:1019700001A8FEF7B6FC01AA0021144800F05AF9AC
:101980001349086000F062F800BFFEE7BC3C0008A5
:1019900028000020240000206D130008080000200B
:1019A000791300080C00002091130008100000209B
:1019B000A913000814000020CD130008180000200F
:1019C0004D1300081C000020BC3D0008FD1200085B
:1019D0002000002070B50546FFF751FE48B9FFF71B
:1019E00051FE30B908480068022805D1FFF744FECF
:1019F00010B16FF0050404E0002415B1284601F091
:101A0000DBF8204670BD00009400002010B5FFF701
:101A100036FE48B9FFF736FE30B90B480068022899
:101A200005D1FFF729FE10B16FF0050409E0064863
:101A3000006820B9012004490860002401E04FF04B
:101A4000FF34204610BD00009400002010B5FFF7C1
:101A500016FE48B9FFF716FE30B90C480068022898
:101A600005D1FFF709FE10B16FF005040CE007483F
:101A70000068012806D102200449086001F018F925
:101A8000002401E04FF0FF34204610BD94000020F8
:101A90002DE9F84305460E4614464FF00009FFF7BE
:101AA000EEFD00284BD1FFF7EDFD002847D125487A
:101AB0000068022803D1FFF7DFFD00283FD1002D89
:101AC0003DD0002E3BD04FF0FF37BCB1A06858B1DD
:101AD000E068502808D3206930B105FB06F0616941
:101AE000814201D301270AE0A06840B9E06830B91B
:101AF000206920B9606910B9002700E00027012F94
:101B000009D10020009031462846A368226901F0DF
:101B1000DEFA814606E02FB900223146284601F060
:101B2000A7FA8146B9F1000F09D014B1D4F80080AA
:101B300001E04FF000084146484600F0CFFF48461C
:101B4000BDE8F883940000202DE9F84305460F46D0
:101B500014464FF00008FFF792FD002864D1FFF70C
:101B600091FD002860D132480068022803D1FFF7B8
:101B700083FD002858D1002D56D0AF4254D84FF0E5
:101B8000FF3664B1A06820B1E068502801D3012677
:101B900006E0A06820B9E06810B9002600E0002641
:101BA000701C70B3012D23D1012E09D103200090A8
:101BB000002211460120A36801F089FA804605E061
:101BC00003220021012001F053FA8046B8F1000FF2
:101BD0001DD0E7B100231A461946404601F032FBFA
:101BE000012814D0404600F08FFF4FF000080EE0AF
:101BF000012E07D139462846A26801F007FA80462F
:101C000005E011E03946284601F0D2F98046B8F1E6
:101C1000000F09D014B1D4F8009001E04FF0000992
:101C20004946404600F05AFF4046BDE8F8830000B0
:101C3000940000202DE9F04786B08046894614467E
:101C400000200490FFF71BFD00285DD1FFF71AFD6F
:101C5000002859D12D480068022803D1FFF70CFD58
:101C6000002851D1B8F1000F4ED080261825002051
:101C700005900DF1140A471E44B3206808B1D4F84A
:101C800000A0A06900B1A5692DB1382D03D8207935
:101C900000F0010018B1002006B0BDE8F0876069CF
:101CA00008B160698608A06840B1E068602805D383
:101CB000206918B1606908B1012708E0A06830B94F
:101CC000E06820B9206910B9002700E00027012F43
:101CD0000CD12169A0684B463246CDE900510290F3
:101CE0005146404601F038FD04900DE067B904A864
:101CF000B2B24B465146CDE90050404601F0FAFCE5
:101D0000012801D0002004900498C5E79400002029
:101D10002DE9F04105460E4619480768002019498B
:101D2000096881F85E0017480068001D00F092FD08
:101D3000681C38B936B113480168091D124800F013
:101D4000DFFD1AE07C190F4800684460BC4207D2EE
:101D50000C480168091D0D48006800F0B7FD0CE053
:101D600008480168091D0A48006800F0AFFD0948ED
:101D70000068844201D207480460BDE8F081000099
:101D8000500000203C000020EC0500204400002012
:101D9000400000206C00002010B5044600F0BCFD9F
:101DA00024480068401C234908602348006840B963
:101DB000214804600846006801280DD100F0FAF9B6
:101DC0000AE01E48006838B91B480068C06AE16A2A
:101DD000884201D81848046019480068401C184916
:101DE00008600846006860641649E06A096888422D
:101DF00002D91449E06A0860E16A01EB8101124AE4
:101E000002EB8100211D00F07BFD00F0AFFD0B48CF
:101E1000006868B108480068C06AE16A884207D271
:101E20004FF0805009490860BFF34F8FBFF36F8FA9
:101E300010BD00004C0000203C0000205800002095
:101E400068000020540000203C01002004ED00E068
:101E500008B500F061FD12480068E8B9114800F0CB
:101E600025FD114800F022FD0E48104908600E487B
:101E70000F49086000200F4B0F4A102100900A20E4
:101E800001F025F9064908600846006820B10BA159
:101E90000348006800F022FE00F068FD08BD000065
:101EA000880000200006002014060020800000208A
:101EB000840000202806002078060020546D72510E
:101EC0000000000010B516E000F026FD0C48C068C8
:101ED000C468201D00F0BEFC0A480068401E094985
:101EE000086009480068401E0749086000F03EFD90
:101EF000204600F05EF8044800680028E4D110BDD8
:101F0000D80500204C0000204800002070B5044691
:101F10000D46206C70B1216CE0680844E060616897
:101F2000E068884201D32068E0602846226CE168BE
:101F3000FEF7D7F970BD2DE9F04104460F4615466E
:101F40004FF00008A66B206C40B9206860BB606849
:101F500001F016FD80460020606025E07DB939461D
:101F6000226CA068FEF7BDF9216CA0680844A0604F
:101F7000D4E90110884217D32068A06014E03946E4
:101F8000226CE068FEF7ADF9216CE068401AE06071
:101F90002168E068884203D2216C6068401AE060E2
:101FA000022D01D106B1761E701CA0634046BDE82B
:101FB000F08110B5044694F85D0030B9206B00F054
:101FC000F3FC204600F0F0FC1AE094F85D000128D4
:101FD00003D1204600F0E8FC12E094F85D000228EE
:101FE00001D1012000E0002050B900BF502080F353
:101FF0001188BFF34F8FBFF36F8F00BF00BFFEE7A5
:1020000010BD00000146084A126812680AB9012290
:1020100000E000220A600A6822B9034A1268D26806
:10202000106800E0002070478000002030B54FF4B9
:102030007053174800F007042CB1C01D20F00700B2
:10204000134C041B1B1B0246124C22600024114D32
:102050006C60D018083820F007000F4C2060002476
:102060000D4D2D686C600C4D2D682C601146441A86
:102070004C60094C24680C60084D4C682C60084D7D
:102080004C682C604FF00044064D2C6030BD0000C1
:10209000D80D002098000020A0000020A8000020FB
:1020A000A4000020AC00002000BFFFF70BFF064893
:1020B00000680128F9D94FF0805004490860BFF347
:1020C0004F8FBFF36F8FF0E73C01002004ED00E07D
:1020D0002DE9F04106460D4617469846069C0DB977
:1020E000246000E02760E66325640121204601F0BA
:1020F0005DF884F84C80BDE8F0812DE9F05F824600
:102100000F4690469B460A9E0C9C4FEA8801A522EA
:10211000206BFEF7F8F8A8F10100216B01EB8009B4
:1021200029F0070909F0070008B9012000E00020A4
:1021300050B900BF502080F31188BFF34F8FBFF319
:102140006F8F00BF00BFFEE7002507E0795D04F157
:1021500034004155785D00B902E06D1C102DF5D3B7
:1021600000BF002143200155382E00D33726E662F8
:10217000E66400202065201D00F0A5FB04F1180096
:1021800000F0A1FB2461C6F13800A0616462002068
:102190006065A06584F85C0084F85E005A4651468C
:1021A000484600F041FB20600B9808B10B98046092
:1021B000BDE8F09F10B5002407E004EB84010F4A4E
:1021C00002EB810000F072FB641C382CF5D30C4844
:1021D00000F06CFB0B4800F069FB0B4800F066FB5D
:1021E0000A4800F063FB0A4800F060FB0448094914
:1021F000086004480849086010BD00003C01002048
:102200009C050020B0050020C4050020D805002052
:10221000EC050020400000204400002010B50146DD
:10222000164800E0006803688B42FBD3024643680F
:1022300013448B4204D143684C68234443600146F5
:102240000A464B6813440468A34211D10C4C03683E
:102250002468A34208D04B680468646823444B6038
:1022600003681B680B6005E0054B1B680B6001E011
:1022700003680B60884200D0016010BD9800002008
:10228000A00000202DE9F04104460D4616461F46E9
:102290004FF0000865602461B5420CD8F01BA169BD
:1022A000884202D34FF0010811E0211D094800685F
:1022B00000F00CFB0BE0BE4204D2BD4202D34FF053
:1022C000010804E0211D0448006800F0FFFA4046C0
:1022D000BDE8F081840000208000002070B5054634
:1022E00000F01AFBA86B08B9012400E0002400F0FC
:1022F0003DFB204670BD70B5054600F00DFBA86B98
:10230000E96B884201D1012400E0002400F02EFB9B
:10231000204670BDF8B505460F4616480068C068EF
:10232000C468201D00F096FAE06901281DD1A0695B
:1023300041192B463A462046FFF7A4FFA8B10020DA
:1023400003462A4601460090204601F075FC0646E9
:1023500056B900BF502080F31188BFF34F8FBFF3F1
:102360006F8F00BF00BFFEE700BF2046616A88474D
:10237000F8BD000080000020F0B587B082E003982F
:10238000002811DA04AE56B900BF502080F311883E
:10239000BFF34F8FBFF36F8F00BF00BFFEE7D6E9DB
:1023A0000020B168904700BF039800286ADB059CB5
:1023B000606908B9012000E0002010B9201D00F07C
:1023C00049FA02A800F0C0F8054603980A2857D237
:1023D000DFE800F009050731334F0608323400BF4B
:1023E00000BF00BF00BF0498A269811803462A46B7
:1023F0002046FFF747FFE8B12046616A8847E06959
:10240000012817D1002000900498A16942180023E8
:102410001946204601F010FC074657B900BF50206E
:1024200080F31188BFF34F8FBFF36F8F00BF00BFE2
:10243000FEE700BF25E000BF23E000BF0498A061D5
:10244000A06908B1012000E0002050B900BF502071
:1024500080F31188BFF34F8FBFF36F8F00BF00BFB2
:10246000FEE7A06941192B462A462046FFF70AFFDE
:1024700007E094F82C0010B9204600F095FA00E02F
:1024800000BF00BF002203A90448006801F02AF839
:1024900000287FF474AF07B0F0BD00008800002072
:1024A000F8B505460C4600F061FC684600F04CF8B3
:1024B0000646009820BB44B9B54206D801F0FEFAA2
:1024C00031462846FFF726FF1CE03CB10E48006865
:1024D000006808B9012000E000200446A91B22463C
:1024E0000A48006800F042FB01F0E8FA50B94FF0EA
:1024F000805007490860BFF34F8FBFF36F8F01E033
:1025000001F0DCFAF8BD0000840000208800002003
:1025100004ED00E00A490968096809B9012100E0F1
:10252000002121B14FF0FF31064A116006E0044955
:102530000968C968C868034A4168116070470000AB
:10254000400000206C00002070B5044601F070F9D6
:10255000054607480068854204D200F00BF80120C8
:10256000206001E00020206001480560284670BD21
:10257000900000202DE9F84332E024480068C0684C
:10258000056822480068C068C468201D00F062F930
:102590002046616A8847E069012821D1A06946196F
:1025A000AE4207D966602461211D1848006800F01A
:1025B0008DF915E0002003462A460146009020468A
:1025C00001F03AFB074657B900BF502080F311884D
:1025D000BFF34F8FBFF36F8F00BF00BFFEE700BF99
:1025E0000A480068006808B9012000E000200028BF
:1025F000C3D00648D0F80080054800680349086049
:102600000348C0F80080BDE8F88300008000002087
:10261000840000200E480068401C08B9012000E03A
:10262000002050B900BF502080F31188BFF34F8FB6
:10263000BFF36F8F00BF00BFFEE700BF502080F3E5
:102640001188BFF34F8FBFF36F8F00BF00BFFEE74E
:10265000B000002008B500BF6846FFF7D3FC044671
:1026600020460099FFF71CFFFFF786FEF4E770B5E0
:10267000044600F051F994F9455010E0606A08B939
:10268000012000E0002038B904F1240001F0CAF96B
:1026900018B100F0CBFA00E003E0681E45B2002D4F
:1026A000ECDC00BFFF2084F8450000F05FF900F08B
:1026B00033F994F9445010E0206908B9012000E092
:1026C000002048B904F1100001F0ACF908B100F0A5
:1026D000ADFA681E45B200E001E0002DECDC00BF61
:1026E000FF2084F8440000F041F970BD2DE9F0416D
:1026F00004464FF0000800F039FB4648006808B96E
:10270000FFF794FC44480068204000286BD1D4B106
:10271000083404F00700B0B104F00700C0F108006D
:10272000044404F0070008B9012000E0002050B97B
:1027300000BF502080F31188BFF34F8FBFF36F8F1E
:1027400000BF00BFFEE7002C4DD034480068844233
:1027500049D8334E3046056801E02E462D6868683A
:10276000A04202D228680028F7D12A480068854292
:1027700039D0306800F10808286830606868001BAC
:10278000102819D92F1907F0070008B9012000E017
:10279000002050B900BF502080F31188BFF34F8F45
:1027A000BFF36F8F00BF00BFFEE76868001B786053
:1027B0006C603846FFF732FD184968680968081AE6
:1027C000164908600846006816490968884203D21D
:1027D00012480068134908600F496868096808438F
:1027E00068600020286001F069F908F0070008B966
:1027F000012000E0002050B900BF502080F3118874
:10280000BFF34F8FBFF36F8F00BF00BFFEE740469F
:10281000BDE8F081A0000020AC000020A400002052
:1028200098000020A8000020001F4FF08073036074
:10283000001F21F001030360001F054B03601438E3
:102840000260001F6FF00203036020387047000031
:102850001526000801460A69D1E901309860D1E9DE
:10286000010358605068884201D188685060002098
:1028700008611068401E106010687047034B0360C9
:10288000034B0B6080231360704700001807002083
:1028900078070020034B0360034B0B604FF48073F9
:1028A0001360704778090020D809002000F1080162
:1028B00041604FF0FF31816000F10801C1600161AA
:1028C00000210160704700210161704710B5024688
:1028D0000B685C1C0CB9106907E002F1080000E00D
:1028E0004068446824689C42FAD944684C604C684B
:1028F000A160886041600A611468641C146010BDA6
:1029000042684A6093688B6093685960916008617F
:1029100003685B1C0360704700BF502080F3118880
:10292000BFF34F8FBFF36F8F00BF0E480068401C8E
:102930000C49086008460068012812D10A4800685E
:10294000C0B208B9012000E0002050B900BF5020FB
:1029500080F31188BFF34F8FBFF36F8F00BF00BFAD
:10296000FEE77047B000002004ED00E00D4800686D
:1029700050B900BF502080F31188BFF34F8FBFF3D1
:102980006F8F00BF00BFFEE706480068401E054984
:1029900008600846006820B9002080F3118800BF55
:1029A00000BF7047B000002070B506463546002EC7
:1029B0003FD0083D2C461F4960680968084008B1AF
:1029C000012000E0002050B900BF502080F31188A2
:1029D000BFF34F8FBFF36F8F00BF00BFFEE72068CC
:1029E00008B9012000E0002050B900BF502080F35A
:1029F0001188BFF34F8FBFF36F8F00BF00BFFEE79B
:102A00000C4960680968084098B1206888B909498C
:102A1000606809688843606000F0A8F9064960684A
:102A200009680844044908602046FFF7F7FB01F0F5
:102A300045F870BDAC000020A400002000204FF03D
:102A4000E02108618861064800684FF47A71B0FBA4
:102A5000F1F0401E4FF0E021486107200861704707
:102A60003800002070B5FDF7F5FB0446102C16D396
:102A700004F1E02090F8F05315480078854201DB1E
:102A8000012000E0002050B900BF502080F31188E1
:102A9000BFF34F8FBFF36F8F00BF00BFFEE70D483E
:102AA000006800F4E0600C490968884201D8012000
:102AB00000E0002050B900BF502080F31188BFF320
:102AC0004F8FBFF36F8F00BF00BFFEE770BD0000E8
:102AD000B40000200CED00E0B80000200246002009
:102AE0000BE0084B53F8303033B9064B43F8301045
:102AF00003EBC0035A6002E0401C0828F1D300BF7A
:102B000070470000FC00002070B50446254655B90A
:102B100000BF502080F31188BFF34F8FBFF36F8F3A
:102B200000BF00BFFEE7284600F008F895F8460011
:102B300010B92846FFF738FF70BD0000014600209D
:102B40000EE0094A02EBC00252688A4207D1002215
:102B5000054B43F8302003EBC0035A6002E0401CF1
:102B60000828EED300BF7047FC0000202DE9F0419B
:102B700005460E4617462C46FFF7CEFE94F9440054
:102B8000401C10B9002084F8440094F94500401C12
:102B900010B9002084F84500FFF7E8FEA06B28B9C3
:102BA0003A46314604F1240000F062F82046FFF76F
:102BB0005EFDBDE8F081000070B504460025D4B18B
:102BC0001248006808B9012000E0002050B900BF99
:102BD000502080F31188BFF34F8FBFF36F8F00BF7A
:102BE00000BFFEE700F0C2F800212046FFF790F892
:102BF00000F064FF05463DB94FF08050044908607D
:102C0000BFF34F8FBFF36F8F70BD000074000020C3
:102C100004ED00E003490968016003490968416067
:102C2000704700006400002050000020012001498E
:102C3000086070476000002070B504460D4654B926
:102C400000BF502080F31188BFF34F8FBFF36F8F09
:102C500000BF00BFFEE70548016818312046FFF7B6
:102C600035FE01212846FFF753F870BD3C000020D7
:102C700070B505460E46144655B900BF502080F386
:102C80001188BFF34F8FBFF36F8F00BF00BFFEE708
:102C90000648016818312846FFF732FE0CB14FF0A4
:102CA000FF3621463046FFF733F870BD3C00002068
:102CB00010B586B000200590049003AA04A905A8C9
:102CC000FFF7DCFD0022DDE904101346CDE9002109
:102CD00002901FA12048039A00F03EFD1F490860A2
:102CE0000846006808B1012400E00024012C02D14C
:102CF00000F066FF0446012C17D100BF502080F37E
:102D00001188BFF34F8FBFF36F8F00BF4FF0FF30BD
:102D10001349086001201349086000201249086027
:102D2000FEF79EFD00F090F810E0601C08B1012055
:102D300000E0002050B900BF502080F31188BFF39D
:102D40004F8FBFF36F8F00BF00BFFEE706B010BD0F
:102D500049444C4500000000A920000870000020F4
:102D60006C0000205800002050000020024800683D
:102D7000401C0149086070477400002010B52B48C2
:102D8000006818B101202A4908604EE00020284957
:102D90000860FEF779FD2749086008460068264963
:102DA000096888420BD92549096801F15400496D29
:102DB000204A1268204B1B68D21A114401601D483A
:102DC00000681D4908601E4801680CE051B900BF49
:102DD000502080F31188BFF34F8FBFF36F8F00BF78
:102DE00000BFFEE7491E01EB8100164A52F82000A1
:102DF00008B9012000E000200028E7D101EB8102A2
:102E0000104B03EB820042685268426000F10802F6
:102E10004368934202D14268526842604268D26875
:102E2000064B1A600648016000BF10BD7400002008
:102E3000600000207C000020780000203C00002082
:102E4000540000203C0100201CB552480068524943
:102E5000884201D0012000E0002050B900BF50207E
:102E600080F31188BFF34F8FBFF36F8F00BF00BF98
:102E7000FEE7484800684849491E884201D00120C1
:102E800000E0002050B900BF502080F31188BFF34C
:102E90004F8FBFF36F8F00BF00BFFEE73F4908466B
:102EA00000780190FF200A461070084600780090D4
:102EB0009DF8000000F0F0009DF80020904201D144
:102EC000012000E0002050B900BF502080F311889D
:102ED000BFF34F8FBFF36F8F00BF00BFFEE79DF8BA
:102EE000000000F050002E4A107007202D4A10609C
:102EF00009E02C480068401E2A4A10609DF8000036
:102F00004006000E00909DF8000000F08000802830
:102F1000EFD024480068C0F10700042801D1012047
:102F200000E0002050B900BF502080F31188BFF3AB
:102F30004F8FBFF36F8F00BF00BFFEE719480068D7
:102F40000002184A10601046008800F4E06010602B
:102F5000124A019810700F482030006840F4700049
:102F60000C49203108600846006840F07040086055
:102F7000FFF764FD00200C490860FDF733F90B48AA
:102F8000006840F0404009490860FDF717F900204B
:102F90001CBD000000ED00E071C20F4100E400E044
:102FA000B4000020B8000020B000002034EF00E0A2
:102FB00070B505460E460DB1012000E0002050B965
:102FC00000BF502080F31188BFF34F8FBFF36F8F86
:102FD00000BF00BFFEE7AE4201D8012000E00020A4
:102FE00050B900BF502080F31188BFF34F8FBFF35B
:102FF0006F8F00BF00BFFEE702220021284600F0CD
:1030000037F8044604B1A663204670BDF8B50546FE
:103010000E4617460DB1012000E0002050B900BF58
:10302000502080F31188BFF34F8FBFF36F8F00BF25
:1030300000BFFEE7AE4201D8012000E0002050B9F9
:1030400000BF502080F31188BFF34F8FBFF36F8F05
:1030500000BF00BFFEE702203B4600221146009061
:10306000284600F034F8044604B1A6632046F8BDB3
:103070002DE9F84305460E4690460DB1012000E0CB
:10308000002050B900BF502080F31188BFF34F8F4C
:10309000BFF36F8F00BF00BFFEE70EB9002701E04E
:1030A00005FB06F707F15000FFF720FB04465CB173
:1030B00004F15009002084F8460043464A46314650
:1030C00028460094FFF704F82046BDE8F8832DE970
:1030D000F84380460E4617461D46DDF82090B8F1AD
:1030E000000F01D0012000E0002050B900BF5020A7
:1030F00080F31188BFF34F8FBFF36F8F00BF00BF06
:10310000FEE70DB1012000E0002050B900BF5020C3
:1031100080F31188BFF34F8FBFF36F8F00BF00BFE5
:10312000FEE707B10EB1012000E0002050B900BF5A
:10313000502080F31188BFF34F8FBFF36F8F00BF14
:1031400000BFFEE707B90EB9012000E0002050B92A
:1031500000BF502080F31188BFF34F8FBFF36F8FF4
:1031600000BF00BFFEE7502000900098502801D11A
:10317000012000E0002050B900BF502080F31188EA
:10318000BFF34F8FBFF36F8F00BF00BFFEE72C462A
:103190004CB1012084F846004B463A463146404641
:1031A0000094FEF795FF2046BDE8F88370B505460C
:1031B0000E462C4654B900BF502080F31188BFF34F
:1031C0004F8FBFF36F8F00BF00BFFEE7FFF7A4FB79
:1031D000D4E90F12206801FB020060600020A063A8
:1031E0002068A060E06B401E226C216800FB02108A
:1031F000E060FF2084F8440084F845009EB920690F
:1032000008B9012000E00020A8B904F1100000F086
:1032100009FC80B14FF0805009490860BFF34F8F1F
:10322000BFF36F8F07E004F11000FFF73FFB04F1DD
:103230002400FFF73BFBFFF799FB012070BD000066
:1032400004ED00E02DE9FF4383B0064688461D46A5
:103250004FF00009344654B900BF502080F3118864
:10326000BFF34F8FBFF36F8F00BF00BFFEE7B8F112
:10327000000F01D1206C08B9012000E0002050B9F6
:1032800000BF502080F31188BFF34F8FBFF36F8FC3
:1032900000BF00BFFEE7022D02D1E06B012801D183
:1032A000012000E0002050B900BF502080F31188B9
:1032B000BFF34F8FBFF36F8F00BF00BFFEE700F07B
:1032C000A7FA08B9059808B9012000E0002050B914
:1032D00000BF502080F31188BFF34F8FBFF36F8F73
:1032E00000BF00BFFEE700BFFFF716FBA06BE16B5E
:1032F000884201D3022D28D12A4641462046FEF7B6
:103300001AFE0746606A08B9012000E0002068B98B
:1033100004F1240000F086FB88B14FF08050324960
:103320000860BFF34F8FBFF36F8F08E03FB14FF0DE
:1033300080502D490860BFF34F8FBFF36F8FFFF7A9
:1033400015FB012007B0BDE8F083059818B9FFF719
:103350000DFB0020F6E7B9F1000F04D101A8FFF73B
:1033600059FC4FF00109FFF701FBFFF7FFFCFFF7E6
:10337000D3FA94F94400401C10B9002084F84400AA
:1033800094F94500401C10B9002084F84500FFF76F
:10339000EDFA05A901A800F059F9F0B92046FEF7A9
:1033A000AAFFA0B104F110000599FFF745FC2046E3
:1033B000FFF75DF900F082FB002895D14FF08050B7
:1033C00009490860BFF34F8FBFF36F8F8CE720462A
:1033D000FFF74DF900F072FB86E72046FFF747F94B
:1033E00000F06CFB0020ADE704ED00E02DE9F05F9C
:1033F00007468A4690461E463C4654B900BF5020B8
:1034000080F31188BFF34F8FBFF36F8F00BF00BFF2
:10341000FEE7BAF1000F01D1206C08B9012000E0ED
:10342000002050B900BF502080F31188BFF34F8FA8
:10343000BFF36F8F00BF00BFFEE7022E02D1E06B2B
:10344000012801D1012000E0002050B900BF502028
:1034500080F31188BFF34F8FBFF36F8F00BF00BFA2
:10346000FEE7FFF7FFFA00BF5021EFF3118081F371
:103470001188BFF34F8FBFF36F8F00BF0546A06B5E
:10348000E16B884201D3022E23D194F945B0324634
:1034900051462046FEF74FFD0BF1010088B9606AE6
:1034A00008B9012000E0002080B904F1240000F0F8
:1034B000B9FA58B1B8F1000F08D00120C8F80000DF
:1034C00004E00BF1010040B284F845004FF001091F
:1034D00001E04FF0000900BF85F3118800BF4846A6
:1034E000BDE8F09F2DE9F74183B005460E464FF049
:1034F00000082C4654B900BF502080F31188BFF358
:103500004F8FBFF36F8F00BF00BFFEE70EB9206C77
:1035100008B9012000E0002050B900BF502080F31E
:103520001188BFF34F8FBFF36F8F00BF00BFFEE75F
:1035300000F06EF908B9059808B9012000E00020F4
:1035400050B900BF502080F31188BFF34F8FBFF3F5
:103550006F8F00BF00BFFEE700BFFFF7DDF9A76B6D
:10356000F7B131462046FEF7D1FC781EA0632069F2
:1035700008B9012000E0002060B904F1100000F05B
:1035800051FA38B14FF080502F490860BFF34F8F88
:10359000BFF36F8FFFF7EAF9012006B0BDE8F081B5
:1035A000059818B9FFF7E2F90020F6E7B8F1000F27
:1035B00004D101A8FFF72EFB4FF00108FFF7D6F961
:1035C000FFF7D4FBFFF7A8F994F94400401C10B9A9
:1035D000002084F8440094F94500401C10B90020F4
:1035E00084F84500FFF7C2F905A901A800F02EF8FC
:1035F000F0B92046FEF772FEA0B104F1240005994F
:10360000FFF71AFB2046FFF732F800F057FA0028C0
:10361000A3D14FF080500C490860BFF34F8FBFF328
:103620006F8F9AE72046FFF722F800F047FA94E7F9
:103630002046FFF71CF800F041FA2046FEF74EFE48
:1036400000288AD00020A8E704ED00E070B5064607
:103650000C4656B900BF502080F31188BFF34F8F3E
:10366000BFF36F8F00BF00BFFEE754B900BF50200B
:1036700080F31188BFF34F8FBFF36F8F00BF00BF80
:10368000FEE7FFF749F9184802687068131A1748EF
:10369000006890F85E0030B100201449096881F894
:1036A0005E0001251CE02068401C08B9002517E0D9
:1036B0000F4930680968884204D07068904201D888
:1036C00001250DE02068984207D92068C01A2060C3
:1036D0003046FFF79FFA002502E000202060012518
:1036E000FFF744F9284670BD500000203C00002040
:1036F000640000202DE9FF4F85B0804689461746BB
:10370000DDE912ABB800FEF7F1FF064656B16020C6
:10371000FEF7ECFF04460CB1266304E03046FFF7E9
:1037200043F900E000248CB1002084F85D00CDE96D
:1037300000ABCDE902403A4649464046089BFEF7B9
:10374000DCFC2046FEF728FB012501E04FF0FF35A9
:10375000284609B0BDE8F08F2DE9F04F85B0074647
:10376000884691469A46DDE90EB6109C0EB10120BE
:1037700000E0002050B900BF502080F31188BFF353
:103780004F8FBFF36F8F00BF00BFFEE70CB101206A
:1037900000E0002050B900BF502080F31188BFF333
:1037A0004F8FBFF36F8F00BF00BFFEE76020039015
:1037B0000398602801D1012000E0002050B900BF2B
:1037C000502080F31188BFF34F8FBFF36F8F00BF7E
:1037D00000BFFEE7B4B1AEB125462C462E630220F1
:1037E00085F85D00002004A953464A46CDE900B1A2
:1037F000CDE9025041463846FEF77FFC2846FEF7E9
:10380000CBFA01E000200490049805B0BDE8F08FE9
:103810000549096809B9012005E00449096809B9A1
:10382000022000E0002070475800002074000020B3
:103830000149086870470000500000202DE9F04160
:103840004FF0000843480068002876D142480068DD
:10385000451C4148056015BB40480068006808B930
:10386000012000E0002050B900BF502080F31188F3
:10387000BFF34F8FBFF36F8F00BF00BFFEE7374826
:10388000076837480068354908603548076035489B
:103890000068401C33490860FEF73CFE00BF324818
:1038A000006885423BD300BF2C480068006808B917
:1038B000012000E0002020B14FF0FF302A490860CD
:1038C0002CE026480068C068C4686668B54202D229
:1038D0002548066022E0201DFEF7BCFFA06A18B153
:1038E00004F11800FEF7B6FF2049E06A0968884233
:1038F00002D91E49E06A0860E16A01EB81011C4AB5
:1039000002EB8100211DFEF7FBFF1A49E06A0968FE
:10391000C96A8842C8D34FF00108C5E700BF1548FF
:103920000068C06A00EB8000114951F820000128AE
:1039300001D94FF0010805E0FFE70F480068401C7F
:103940000D4908600D48006808B14FF00108404675
:10395000BDE8F081740000205000002040000020ED
:1039600044000020640000206C000020540000206F
:103970003C0100203C0000205C0000206000002092
:1039800070B505462C460026002D43D0224800681D
:10399000844201D1012000E0002050B900BF502036
:1039A00080F31188BFF34F8FBFF36F8F00BF00BF4D
:1039B000FEE7206D50B900BF502080F31188BFF39F
:1039C0004F8FBFF36F8F00BF00BFFEE7206D401E1B
:1039D0002065E16CE06A88421CD0206DD0B9201DC2
:1039E000FEF738FFE06CE062E06AC0F13800A061E9
:1039F0000A49E06A0968884202D90849E06A086011
:103A0000E16A01EB8101064A02EB8100211DFEF70C
:103A100077FF0126304670BD3C0000205400002096
:103A20003C01002070B50646F068C46854B900BF78
:103A3000502080F31188BFF34F8FBFF36F8F00BF0B
:103A400000BFFEE704F11800FEF704FF1548006808
:103A5000A0B9201DFEF7FEFE1349E06A09688842FE
:103A600002D91149E06A0860E16A01EB81010F4A5D
:103A700002EB8100211DFEF743FF04E004F1180171
:103A80000B48FEF73DFF0B49E06A0968C96A8842A6
:103A900004D9012501200849086000E000252846D6
:103AA00070BD000074000020540000203C01002084
:103AB000C40500203C0000206000002070B50024F8
:103AC00000263648006850B900BF502080F31188A6
:103AD000BFF34F8FBFF36F8F00BF00BFFEE7FEF74E
:103AE0001BFF2E480068401E2C49086008460068ED
:103AF00000284ED12A48006800284AD023E02948EF
:103B0000C068C46804F11800FEF7A4FE201DFEF78B
:103B1000A1FE2549E06A0968884202D92249E06A83
:103B20000860E16A01EB8101204A02EB8100211D5E
:103B3000FEF7E6FE1E49E06A0968C96A884202D3B8
:103B400001201C4908601748006808B9012000E0FE
:103B500000200028D3D00CB1FEF7DCFC1648056825
:103B600065B100BFFFF76AFE10B10120114908607E
:103B70006D1E002DF6D100200F4908600D48006829
:103B800038B1012630070D490860BFF34F8FBFF3EE
:103B90006F8FFEF7EBFE304670BD00007400002012
:103BA0004C000020C4050020540000203C010020EF
:103BB0003C000020600000205C00002004ED00E0DC
:103BC00010B586B00024FEF743F916480068D0B15E
:103BD00000200590049003AA04A905A8FEF75AFE48
:103BE0000222DDE904100023CDE9002102900EA19C
:103BF0000F48039AFFF7B0FD0E49086008460068B9
:103C000000B1012400BF54B900BF502080F31188D7
:103C1000BFF34F8FBFF36F8F00BF00BFFEE720469B
:103C200006B010BD88000020546D722053766300EA
:103C3000552600088C0000202DE9FF4704460D465C
:103C400016461F46DDF830804FF0000954B900BF1A
:103C5000502080F31188BFF34F8FBFF36F8F00BFE9
:103C600000BFFEE71448006810B300950196029467
:103C7000062D15DAFFF7CCFD022808D100234246B5
:103C800069460D480068FFF7DDFA814610E0002321
:103C90001A46694608480068FFF7D4FA814607E0EB
:103CA00000233A46694604480068FFF79FFB8146B7
:103CB000484604B0BDE8F08788000020043E0008B4
:103CC000000000000000000000000000F83D0008B7
:103CD00000000000000000000000000000000000E4
:103CE000000000005C3E0008000000000000000032
:103CF000000000000000000080000000180000002C
:103D00000000000000000000143E00080000000059
:103D10000000000000000000000000008000000023
:103D2000010000000000000000000000203E00082C
:103D30000000000000000000000000000000000083
:103D400080000000010000000000000000000000F2
:103D50002C3E0008000000000000000000000000F1
:103D600000000000800000000100000000000000D2
:103D700000000000383E00080000000000000000C5
:103D800000000000000000008000000001000000B2
:103D90000000000000000000443E00080000000099
:103DA0000000000000000000000000008000000093
:103DB000180000000000000000000000503E000855
:103DC00000000000000000000000000000000000F3
:103DD000800000001800000000000000000000004B
:103DE00000000000000000000102030406070809AB
:103DF00000000000010203046D795175657565309E
:103E0000310000006D7942696E61727953656D30E1
:103E1000310000006D795461736B30320000000096
:103E20006D795461736B3033000000006D7954611B
:103E3000736B3034000000006D795461736B303562
:103E400000000000427574746F6E50726F63000062
:103E5000427574746F6E506172736500646566615B
:103E6000756C745461736B00883E0008000000207C
:103E7000BC0000008A160008443F0008BC00002077
:103E80001C6900009A1600080000000000000000F5
:103E90000000000000000000000000000000000022
:103EA0000000000000000000000000000000000012
:103EB00000000000000000001000000001000000F1
:103EC0000024F400000000000000000000000000DA
:103ED00000000000000000000000000000000000E2
:103EE00000000000000000000000000000000000D2
:103EF00000000000000000000000000000000000C2
:103F000000000000000000000000000000000000B1
:103F100000000000000000000000000000000000A1
:103F20000000000000000000000000000000000091
:103F30000000000000000000AAAAAAAA00000000D9
:043F4000000000007D
:040000050800018965
:00000001FF
