:020000040800F2
:10000000F85E0020590200080F100008C50E000815
:100010000D100008D5030008691300080000000057
:100020000000000000000000000000009D0100082A
:10003000D703000800000000F10100088511000846
:1000400073020008730200087302000873020008BC
:1000500073020008730200087302000873020008AC
:10006000730200087302000873020008730200089C
:10007000730200087302000873020008730200088C
:10008000730200087302000873020008730200087C
:10009000730200087302000873020008730200086C
:1000A0007302000899120008730200087302000826
:1000B000730200087302000873020008730200084C
:1000C000730200087302000873020008730200083C
:1000D000730200087302000873020008730200082C
:1000E000730200087302000873020008730200081C
:1000F000730200087302000873020008730200080C
:1001000073020008730200087302000873020008FB
:1001100073020008730200087302000873020008EB
:1001200073020008730200087302000873020008DB
:1001300073020008730200087302000873020008CB
:1001400073020008730200087302000873020008BB
:1001500073020008730200087302000873020008AB
:10016000730200087302000873020008730200089B
:100170007302000873020008730200080000000008
:100180007302000873020008DFF80CD000F010F9C9
:100190000048004725160008F85E00202B4B196820
:1001A0000868B0E8F04F80F30988BFF36F8F4FF015
:1001B000000080F3118870470000000006480068C6
:1001C000006880F3088862B661B6BFF34F8FBFF353
:1001D0006F8F00DF00BF00BF08ED00E0DFF80C000C
:1001E000016841F470010160704700BF88ED00E0D4
:1001F000EFF30980BFF36F8F144B1A681EF0100FD6
:1002000008BF20ED108A20E9F04F106008B44FF0CD
:10021000500080F31188BFF34F8FBFF36F8F01F051
:1002200067FF4FF0000080F3118808BC1968086868
:10023000B0E8F04F1EF0100F08BFB0EC108A80F34A
:100240000988BFF36F8F704700BF00BF34000020E4
:10025000EFF30580704700000648804706480047D6
:10026000FEE7FEE7FEE7FEE7FEE7FEE7FEE7FEE766
:10027000FEE7FEE745120008890100082DE9F05F5E
:100280000546002092469B46884606468146402405
:100290001BE0284641464746224600F079F853467F
:1002A0005A46C01A914110D311461846224600F012
:1002B00060F82D1A67EB01084F4622460120002105
:1002C00000F057F817EB00094E41201EA4F101047D
:1002D000DFDC484631462A464346BDE8F09F40EA07
:1002E00001039B0703D009E008C9121F08C0042AB4
:1002F000FAD203E011F8013B00F8013B521EF9D29B
:100300007047D2B201E000F8012B491EFBD27047C2
:100310000022F6E710B513460A4604461946FFF7D1
:10032000F0FF204610BD421C10F8011B0029FBD134
:10033000801A7047034611F8012B00F8012B002AA0
:10034000F9D11846704730B50B46014600202022EF
:10035000012409E021FA02F59D4205D303FA02F5D2
:10036000491B04FA02F52844151EA2F10102F1DC32
:1003700030BD202A04DB203A00FA02F10020704749
:100380009140C2F1200320FA03F3194390407047D3
:10039000202A04DB203A21FA02F00021704721FADA
:1003A00002F3D040C2F12002914008431946704741
:1003B000064C074D06E0E06840F0010394E80700B2
:1003C00098471034AC42F6D3FFF7E2FE5025000800
:1003D00070250008FEE77047704700002DE9F84FD0
:1003E0000022DFF89091DFF88C8109F108094FF0C5
:1003F000010E4FF00F0C09F1040A0EFA02F60B6819
:100400003340B34271D14C68022C01D0122C11D16F
:10041000D40800EB84073D6A5407E40E0CFA04FB91
:1004200025EA0B05D1F810B00BFA04FB4BEA050BDB
:10043000C7F820B0076854000325A540AF4391F8E2
:1004400004B00BF0030B0BFA04FB4BEA070BC0F8EC
:1004500000B04F68012F05D0022F03D0112F01D01B
:10046000122F11D18768AF43D1F80CB00BFA04FBFF
:100470004BEA070BC0F808B04768B7430E79C6F3DC
:10048000001696403E434660C668AE438D68A54060
:100490003543C5604C68E40065D5374C256845F4A4
:1004A00080452560246804F480440094334C22F095
:1004B00003052544D5F808789407260F0CFA06F4AE
:1004C000A7432F4CA04201D1002424E02D4CA04290
:1004D00001D101241FE02C4CA04201D102241AE0DA
:1004E0002A4CA04202D1032415E03CE0284CA04253
:1004F00001D104240FE0274CA04201D105240AE0D9
:10050000254CA04201D1062405E0244CA04201D193
:10051000072400E00824B4403C43C5F80848D8F854
:1005200000409C434D68ED0300D51C43C8F80040D3
:10053000104D2D1D2C689C434E68B60300D51C43FE
:100540002C60D9F800409C434D68ED0200D51C4357
:10055000C9F80040DAF800409C434D68AD0200D570
:100560001C43CAF80040521C102AFFF446AFBDE8F5
:10057000F88F0000003C0140443802400030014048
:10058000000002400004024000080240000C02404B
:10059000001002400014024000180240001C0240FB
:1005A0000069084201D0012070470020704742696D
:1005B0004A4042617047002A01D0816170470904B6
:1005C0008161704701488068704700002400002066
:1005D000024881680278114481607047240000203D
:1005E00010B50B48016841F400710160016841F4E5
:1005F00080610160016841F480710160032000F0B6
:100600008BF8002000F006F800F03EF8002010BD46
:10061000003C024010B588B001460022192000F0CD
:100620005BF8192000F04CF800241348016841F0F1
:1006300001010160006800F00100019002A903A817
:1006400000F01EF900F040F940000C49B0FBF1F158
:10065000491E0C480A4A026040F2E732C26041601B
:100660000461846000F03EFB10B1012008B010BDB1
:10067000044800F054FBF9E74438024040420F00C0
:1006800000000140CC01002082B00C48016841F418
:1006900080410160006800F4804001900748001F1D
:1006A000016841F080510160006800F080500190C5
:1006B00000220F21901E02B000F00EB84438024014
:1006C00000F01F02012191404009800000F1E0206C
:1006D000C0F8001170470000F0B40D460D4B1B68C8
:1006E000C3F30223C3F10704042C00D90424191D09
:1006F000072901D2002300E0DB1E012606FA04F1DF
:10070000491E294099409E40761E16403143F0BC58
:1007100000F07EBC0CED00E000F00701054A106817
:100720004FF6FF03184040EA0120034908431060D8
:10073000704700000CED00E00000FA052DE9F047DD
:1007400004460D46002C13D0DFF82491D9F80000A0
:10075000EFB200F00F00A8420CD289F80070D9F86F
:10076000000000F00F00A84204D00120BDE8F0878F
:100770000120FBE720683F4E810712D5400703D5D3
:10078000306840F4E05030602078000703D53068CE
:1007900040F4604030603068A16820F0F000084309
:1007A00030602078C00731D03249606808390128AC
:1007B00008D002280BD0032809D0096889070BD478
:1007C0000120D3E70968890306D40120CEE7096830
:1007D000890101D40120C9E7316821F003010143F7
:1007E0003160FFF7EFFE804641F2883A07E0FFF7FD
:1007F000E9FEA0EB0800504501D90320B6E73068B8
:10080000616800F00C00B0EB810FF0D1D9F8000066
:1008100000F00F00A84209D989F80070D9F800004B
:1008200000F00F00A84201D001209FE72078400788
:1008300005D53068E16820F4E05008433060207846
:10084000000706D53068216920F4604040EAC10005
:10085000306000F049F83168074AC1F30311515C78
:10086000C840064908600020FFF7D4FE00207DE75D
:10087000003C024008380240E0240008300000201C
:100880000F2202600B4A136803F0030343601368EE
:1008900003F0F0038360136803F4E053C36012684D
:1008A00002F46042D20802610348006800F00F00C1
:1008B0000860704708380240003C02400148006868
:1008C000704700003000002000B5FFF7F7FF044933
:1008D0000968044AC1F34231515CC84000BD0000C0
:1008E00008380240F024000810B51748006810F0DE
:1008F0000C01164816D04310042912D0082911D132
:10090000114C241F216801F03F02216849020AD5D9
:100910002068C0F38810A0FB03010023FFF7AEFCA2
:1009200009E0184610BD21680023C1F38811A1FB1E
:100930000001FFF7A3FC2168C1F30141491C4900F4
:10094000B0FBF1F010BD0000083802400024F400B4
:100950002DE9F84F0446002C10D02078DC4DC0075C
:1009600057D0DB4808300168C1F3810101290DD05F
:100970000068C0F38100022803D00EE00120BDE82A
:10098000F88FD348001D0068400206D52868800310
:100990003FD5606870BB0120F1E76068B0F5803F2B
:1009A00010D0B0F5A02F12D0286820F48030286035
:1009B000286820F4802028606068E0B1FFF702FE1C
:1009C000064614E0286840F480302860F4E7286880
:1009D00040F480202860286840F480302860EBE7ED
:1009E000FFF7F0FD801B642801D90320C7E72868C2
:1009F0008003F5D50DE0FFF7E5FD064606E0FFF7BD
:100A0000E1FD801B642801D90320B8E72868800332
:100A1000F5D42078AF4F80074FF0000849D5AC4897
:100A20000830016811F00C0F09D00068C0F3810094
:100A3000022814D1A648001D006840020FD428687F
:100A4000800704D5E068012801D0012097E72868D5
:100A5000216920F0F80040EAC100286029E0E06840
:100A6000B8B101203860FFF7ADFD064606E0FFF79C
:100A7000A9FD801B022801D9032080E72868800790
:100A8000F5D52868216920F0F80040EAC100286007
:100A90000FE0C7F80080FFF795FD064606E0FFF778
:100AA00091FD801B022801D9032068E72868800790
:100AB000F5D42078000729D5DFF8149286486169BB
:100AC00009F1740989B101210160FFF77BFD064638
:100AD00006E0FFF777FD801B022801D903204EE7CF
:100AE000D9F800008007F4D510E0C0F80080FFF7C7
:100AF00069FD064606E0FFF765FD801B022801D967
:100B000003203CE7D9F800008007F4D420784007A0
:100B100072D50026DFF8B8A10AF1400ADAF8000021
:100B2000C0000BD4DAF8000040F08050CAF8000092
:100B3000DAF8000000F0805000900126DFF89CB148
:100B4000DBF80000C00515D4DBF8000040F480702D
:100B5000CBF80000FFF736FD814607E0FFF732FDD6
:100B6000A0EB0900022801D9032008E7DBF8000008
:100B7000C005F3D5DFF858B1A0680BF1700B012860
:100B800013D0052818D0DBF8000020F00100CBF8C6
:100B90000000DBF8000020F00400CBF80000A068A3
:100BA00030B3FFF70FFD81461DE0DBF8000040F099
:100BB0000100CBF80000F2E7DBF8000040F0040091
:100BC000CBF80000DBF8000040F00100CBF800009B
:100BD000E5E7FFF7F7FCA0EB090141F2883081421D
:100BE00001D90320CBE6DBF800008007F1D512E045
:100BF000FFF7E8FC81460AE015E0FFF7E3FCA0EB15
:100C0000090141F28830814201D90320B7E6DBF8BF
:100C100000008007F1D4012E05D1DAF8000020F0A1
:100C20008050CAF80000A069C0B32949083109689A
:100C3000C1F38101022949D0022805D0C7F860809C
:100C4000FFF7C0FC04463CE0C7F86080FFF7BAFC41
:100C5000064606E0FFF7B6FC801B022801D90320F8
:100C60008DE628688001F5D4D4E907010843616A5C
:100C7000A26A4FF0FF33890103EB520241EA0241BD
:100C8000084394F82C1040EA01611148001D0160EE
:100C900001203866FFF796FC044607E014E0FFF7F2
:100CA00091FC001B022801D9032068E62868800116
:100CB000F5D509E0FFF786FC001B022801D90320C7
:100CC0005DE628688001F5D4002058E6012056E64C
:100CD0000038024000004742800E4742007000404A
:100CE0007047704710B50446002C03D094F83900C3
:100CF00010B107E0012010BD002084F83800204624
:100D000000F00CF8022084F83900211D206800F062
:100D1000C9FA012084F83900002010BD704701682D
:100D2000CA6842F00102CA600068016841F001012E
:100D3000016000207047704770B504462068016963
:100D40004FF00005C943890716D4C168C943890714
:100D500012D4E91E01610120207620688069800795
:100D600003D02046FFF7E7FF05E0204600F09BF8A0
:100D7000204600F099F8257620680169C9434907A3
:100D800018D4C168C943490714D46FF00401016144
:100D9000022020762068806910F4407F03D020462E
:100DA000FFF7C9FF05E0204600F07DF8204600F07F
:100DB0007BF8257620680169C943090717D4C16803
:100DC000C943090713D46FF008010161042020769C
:100DD0002068C069800703D02046FFF7ACFF05E01C
:100DE000204600F060F8204600F05EF82576206886
:100DF0000169C943C90618D4C168C943C90614D4D6
:100E00006FF010010161082020762068C06910F49D
:100E1000407F03D02046FFF78EFF05E0204600F01C
:100E200042F8204600F040F8257620680169C94361
:100E3000C90708D1C168C943C90704D1891E016126
:100E4000204600F033F820680169C943090609D437
:100E5000C168C943090605D46FF0800101612046CD
:100E6000FFF73EFF20680169C943490609D4C168FC
:100E7000C943490605D46FF040010161204600F0E6
:100E80001FF820680169C94389060BD4C168C943AA
:100E9000890607D46FF0200101612046BDE870404B
:100EA000FFF71FBF70BD704770470000006803491F
:100EB000884201D1FFF78CBB704700000000014061
:100EC0007047000008B52B4F4FF480480022414680
:100ED0003846FFF770FB284D6E000624009502E0AF
:100EE0000098401E009000980028F9D141463846ED
:100EF000FFF75DFB641E002CF0D1009602E0009825
:100F0000401E009000980028F9D10624009602E0C7
:100F10000098401E009000980028F9D141463846BC
:100F2000FFF745FB641E002CF0D1009602E000980C
:100F3000401E009000980028F9D10624009502E098
:100F40000098401E009000980028F9D1414638468C
:100F5000FFF72DFB641E002CF0D10620009602E066
:100F60000099491E009100990029F9D1401E0028DE
:100F7000F4D1B2E7000C024040420F00F0B587B058
:100F8000142102A8FFF7C4F900241D48016841F0AC
:100F900080010160016801F080010191016841F068
:100FA00001010160016801F001010191016841F056
:100FB00008010160016801F008010191016841F038
:100FC00002010160006800F0020001900D4F4FF433
:100FD0007045002229463846FFF7EDFA01260296B1
:100FE0000394049402A90848FFF7F8F902950396C0
:100FF0000494059402A93846FFF7F0F907B0F0BD54
:1010000030380240000C024000000240FEE770470A
:101010000907090E002806DA00F00F0000F1E020B1
:1010200080F8141D704700F1E02080F8001470472C
:1010300086B00A4D0A4C4FF47A76281D00F06CFBFE
:101040001422084901A8FFF74AF9044901A800F051
:101050004CFBE061304600F03BFBEEE79C000020DB
:1010600004000020B8240008054D4FF480542146A8
:101070002846FFF79CFA642000F02AFBF7E70000FF
:10108000000C0240054D4FF4804421462846FFF7EE
:101090008EFA962000F01CFBF7E70000000C0240DF
:1010A000054D4FF4004421462846FFF780FAD22030
:1010B00000F00EFBF7E70000000C0240064D4FF475
:1010C00000544FF49B7621462846FFF770FA3046CD
:1010D00000F0FEFAF7E70000000C024086B0144D65
:1010E000144C01212846FFF75BFA58B120880128EB
:1010F00019D001202080E06800F013FB0EA000F062
:1011000035F910E0208870B10020208014220F49AA
:1011100001A8FFF7E4F8002101A800F0E6FAE0607A
:101120000BA000F023F9642000F0D2FAD9E7000008
:1011300000000240040000205461736B20332064DF
:10114000656C657465640D0A00000000CC2400081D
:101150005461736B203320637265617465640D0A9A
:10116000000000000446054D201D00F0FFF804A01B
:1011700000F0FCF8E86900F0D4FAF5E7040000207C
:101180000A00000010B5502080F31188BFF34F8F84
:10119000BFF36F8F01F088F818B104494FF0805009
:1011A0000860002080F3118810BD000004ED00E00D
:1011B00030B593B0302107A8FFF7AAF8142102A890
:1011C000FFF7A6F800251D48016841F08051016035
:1011D000006800F0805001901948016841F4804196
:1011E0000160006800F48040019001200790000435
:1011F000089002240D9480010E9004200F90A821E5
:1012000010911194129007A8FFF7A2FB08B1FFF705
:10121000E3F80F200290039404954FF4A05005903A
:101220004FF480500690052102A8FFF787FA0028A6
:1012300001D0FFF7D1F813B030BD000040380240B4
:10124000007000401048016841F4700101600F48CF
:10125000016841F0010101600C4A0021083211606F
:1012600002680B4B1A400260031D0A4A1A600268AA
:1012700022F48022026005480C30016002495806C1
:10128000803908607047000088ED00E000380240B7
:10129000FFFFF6FE103000240148FFF74DBD0000AF
:1012A000CC0100202DE9F0410268244D244E254F49
:1012B000DFF894C0254B4FF08048A84209D0404544
:1012C00007D0B04205D0B84203D0604501D0984263
:1012D00003D122F070044A682243A8421BD0404543
:1012E00019D0B04217D0B84215D0604513D09842FB
:1012F00011D0174CA0420ED0164CA0420BD0164C69
:10130000A04208D0154CA04205D0154CA04202D0F6
:10131000144CA04203D122F44074CA6822430260F4
:101320008A68C2620A688262A84201D0984201D1EA
:101330000969016301214161BDE8F08100000140BC
:101340000004004000080040000C00400004014080
:1013500000400140004401400048014000180040A6
:10136000001C004000200040FEE700000FB4054BC9
:1013700010B503A9044A029800F02CF810BC5DF8DF
:1013800014FB000005160008000000200FB4084BF5
:1013900010B504A902AA039800F01CF8044602A99B
:1013A000002000F0F3F8204610BC5DF814FB0000AC
:1013B0008D15000802E008C8121F08C1002AFAD1E2
:1013C00070477047002001E001C1121F002AFBD1C5
:1013D000704700002DE9FF4F8BB09A460F46054637
:1013E000002606E025280BD052460D9990476D1C2B
:1013F000761C28780028F5D10FB03046BDE8F08F74
:101400000024A0460122604900E0044315F8013F92
:10141000203B02FA03F00842F7D128782E2817D192
:1014200015F8010F44F004042A280ED06FF02F02A3
:101430002878A0F1300109290AD808EB880102EBCD
:10144000410100EB01086D1CF2E757F8048B6D1C9D
:10145000287869283ED006DC0028CDD063280BD040
:10146000642804D136E0732810D075284BD052463A
:101470000D999047761C85E017F8040B8DF8000055
:1014800000208DF80100E946012003E057F8049B95
:101490004FF0FF3061074FF0000401D40AE0641CF4
:1014A00044450DDA8442FADB19F804100029F6D11C
:1014B00006E0641C8442FCDB19F804100029F8D112
:1014C000264404E019F8010B52460D999047641E1A
:1014D000F8D257E001CF4FF00A0B002802DA404261
:1014E0002D2102E0210504D52B218DF824100121A6
:1014F00003E0E10705D02021F7E70DF1200908916D
:101500000CE00021F9E701CF4FF00A0BF9E759464B
:10151000FEF719FF01F1300209F8012D0028F6D17C
:10152000ADEB090000F1200B600701D44FF001087A
:10153000D84502DDA8EB0B0000E000208046002427
:1015400006E009A85246005D0D999047641C761C80
:1015500008988442F5DB04E0302052460D9990470C
:10156000761CB8F10001A8F10108F5DC05E019F8D6
:10157000010B52460D999047761CBBF10001ABF16F
:10158000010BF4DC6D1C34E7092801000A68531CC8
:101590000B6010707047704770B50546002D05D080
:1015A000164E3068854209D1002070BD502080F36E
:1015B0001188BFF34F8FBFF36F8FFEE700F0CEFBB4
:1015C0006C6900F0EBFBF06B844202D0306C84421B
:1015D00001D1022070BD0A48844205D1A86A08B131
:1015E000022070BD032070BD05481438844202D02B
:1015F0000CB1012070BD042070BD0000340000203B
:10160000E402002005490968C90105D54FF0604191
:101610000A68002AFCD0087070470000FCED00E06A
:10162000002070479EB0FEF7DBFFFFF7C1FDFFF71C
:10163000A5FC1422214919A8FEF751FE002119A882
:1016400000F053F81E4C606014221C49143114A899
:10165000FEF745FE002114A800F047F8A060142210
:10166000164928310FA8FEF73AFE00210FA800F016
:101670003CF8E060142211493C310AA8FEF72FFE25
:1016800000210AA800F031F8206114220B495031E2
:1016900005A8FEF724FE002105A800F026F86061E9
:1016A0001422064964316846FEF719FE0021684697
:1016B00000F01BF8A06100F013F8FEE740240008DA
:1016C0000400002001460020842900D0C81C704777
:1016D00010B5002800D1012000F0B4FB002010BD9F
:1016E00010B500F0C7FC002010BD3EB504460D4605
:1016F000B4F90800FFF7E6FF02A9CDE90001208A4E
:101700002B4682B2D4E9001000F09EFD012801D0E2
:1017100000203EBD02983EBD10B500F04DFC0020FB
:1017200010BD10B500F0B6FB002010BD2DE9F04152
:1017300004460F46174EF5683068001D00F074FA35
:1017400038B9306890F82C10012088403169814305
:101750003161601C07D137B13168BDE8F041091D26
:101760000D4800F0EFBA2C4430684460AC4206D219
:101770003168306C091DBDE8F04100F0CBBA31682A
:10178000F06B091D00F0C6FAB06A844200D2B46260
:10179000BDE8F08134000020E402002070B504466A
:1017A00000F0DCFA1D4DA868401CA860286810B144
:1017B000686938B10CE02C60A868012808D100F0F5
:1017C000EFF805E02868E16AC06A884200D82C601A
:1017D000686A401C68626064E06A01212A6981408D
:1017E000114329610E4900EB800001EB8000211DAF
:1017F00000F0A8FA00F0D2FA686900280CD0286836
:10180000E16AC06A884207D206494FF080500860FA
:10181000BFF34F8FBFF36F8F70BD00003400002007
:101820000802002004ED00E070B5124E124D1CE0DD
:1018300000F056FC306820B1002400F09BFDA4B9F4
:1018400001E00124F9E700F089FAF068C468201D7E
:1018500000F0EAF9A868401EA8606868401E686049
:1018600000F09CFA204600F009F868680028DFD1F3
:1018700070BD0000D00200203400002010B50446E6
:10188000206B00F0A1FA2046BDE8104000F09CBAA1
:101890004FF470510F48420706D0C01D20F00700DA
:1018A0000C49411AC1F570510B4A10600023536076
:1018B0000144083921F00701103A11604B600B60B8
:1018C0000B1A436001604068906050604FF0004028
:1018D000D0607047F802002088000020074E4FF0CB
:1018E0008054074DFFF7A0FF30680128FAD92C601B
:1018F000BFF34F8FBFF36F8FF4E7000008020020A3
:1019000004ED00E02DE9F0478146DDE908580A9C26
:101910000E4617469A46B900A522206BFEF7F1FC49
:10192000206B7F1E00EB870020F00707780707D0A9
:10193000502080F31188BFF34F8FBFF36F8FFEE706
:1019400000202218315C82F83410315C11B1401C47
:101950001028F6D3002684F84360072D00D306250F
:10196000E562E5642665201D00F0D1F904F1180058
:1019700000F0CDF92461C5F10700A06164626665DD
:10198000A66584F85C6052464946384600F03AF94C
:101990002060B8F1000F01D0C8F80040BDE8F08722
:1019A00070B50024124D04EB840005EB800000F0BC
:1019B000A3F9641C072CF6D30D488C3000F09CF979
:1019C0000B48A03000F098F90948B43000F094F9C1
:1019D0000748C83000F090F90548DC3000F08CF979
:1019E000034904488C31C1631431016470BD0000A7
:1019F000080200203400002030B5134900E01146F1
:101A00000A688242FBD34B685C18844203D1406869
:101A10001844486008460D6844682318AB420DD14D
:101A2000094B103B1B689A4206D052682244426020
:101A30000A681268026002E0036000E0026081420E
:101A400000D0086030BD0000880000202DE9F0477C
:101A500080460C46914600262068002821D0214669
:101A600048684068486001F10807B84201D1406801
:101A700048604868D0F80CA0606845686560BD4261
:101A800001D1696861606068C56806EBC60008EB53
:101A900080014B460122284600F052FA761C55453B
:101AA000EAD13046BDE8F0870748C16B09680029D4
:101AB00005D0C16BC968C9684968816270474FF039
:101AC000FF3181627047000034000020002101E0F6
:101AD000401C491C0278A52AFAD0880880B27047B9
:101AE00009484068401C07D0502080F31188BFF39C
:101AF0004F8FBFF36F8FFEE7502080F31188BFF345
:101B00004F8FBFF36F8FFEE79000002010B50446A3
:101B10002046FEF70FFC2046FEF705FC202101E0E1
:101B20002154401C0F28FBD300212154204410BD18
:101B30002DE9F0410546002600F0D2FA304F386812
:101B400008B9FFF7A5FEF86805424AD18DB10835FE
:101B500068070ED005F00700C0F1080005446807CB
:101B600007D0502080F31188BFF34F8FBFF36F8FE2
:101B7000FEE7B5B37868854233D82149103108466D
:101B8000046801E0214604466068A84202D2206849
:101B90000028F7D13868844223D00E6808362068C0
:101BA00008606068411B10290ED96019420707D0F0
:101BB000502080F31188BFF34F8FBFF36F8FFEE784
:101BC00041606560FFF718FF61687868401A7860C7
:101BD000BA68904200D2B860F868014361600020A2
:101BE000206000F0C7FB700707D0502080F31188F9
:101BF000BFF34F8FBFF36F8FFEE73046BDE8F08134
:101C00007800002024384FF08073036221F0010136
:101C1000C1610449816142606FF0020140F82019FE
:101C200070470000E11A00080169D0E901329A60AA
:101C3000D0E901235A604A68824201D182684A6031
:101C4000002202610868401E086070472DE9F047D5
:101C500006460B4617460024072500F041FADFF838
:101C60009080D8F8080083423CD3DFF888906D1E3E
:101C700005EB850009EB800104EBC40006EB800056
:101C80000122FFF7E3FE0444002DF0D104EBC40071
:101C900006EB80000222D8F83C10FFF7D7FE044480
:101CA00004EBC40006EB80000222D8F84010FFF7D6
:101CB000CDFE04440F4904EBC40006EB800004226F
:101CC000C831FFF7C3FE04440A4904EBC40006EB25
:101CD00080000322DC31FFF7B9FE044417B1FFF79F
:101CE0009FFC386000F046FB2046BDE8F08700000E
:101CF000340000200802002000F1080141604FF08C
:101D0000FF328260C16001610021016070470021E3
:101D10000161704730B50C68621C02D000F1080206
:101D200002E0026904E01A4653681D68A542FAD928
:101D300053684B6099608A60516008610168491C72
:101D4000016030BD42684A6093688B609368596057
:101D5000916008610168491C01607047502080F360
:101D60001188BFF34F8FBFF36F8F0A494868401C3B
:101D7000486001280CD10848006810F0FF0F07D018
:101D8000502080F31188BFF34F8FBFF36F8FFEE7B2
:101D9000704700009000002004ED00E00949486809
:101DA000002806D0401E4860002801D180F3118829
:101DB0007047502080F31188BFF34F8FBFF36F8FB0
:101DC000FEE700009000002070B5002827D00838FA
:101DD0000446134D6068E968084207D1502080F33B
:101DE0001188BFF34F8FBFF36F8FFEE722683AB1C0
:101DF000502080F31188BFF34F8FBFF36F8FFEE742
:101E00008843606000F06CF9606869680844686045
:101E10002046FFF7F1FDBDE8704000F0ABBA70BDA1
:101E20007800002006484FF47A710068B0FBF1F1A9
:101E30004FF0E020491E4161072101617047000019
:101E40003000002010B502460020002A12D00F48B2
:101E5000006B38B1502080F31188BFF34F8FBFF370
:101E60006F8FFEE700F03CF900211046FFF75EFCA3
:101E700000F080FA002807D105494FF08050086033
:101E8000BFF34F8FBFF36F8F10BD000034000020F1
:101E900004ED00E070B50446FFF760FF254D04B97E
:101EA0002C68201DFFF7C0FE58B9E06A224A00EBFB
:101EB000800152F8211021B901218140286988430D
:101EC0002861A06A18B104F11800FFF7ADFE686A36
:101ED000401C68622868844208D11748211DC83018
:101EE000FFF730FF6868401C686007E0A868401E84
:101EF000A8602046FFF7C2FCFFF7D6FDFFF74EFFB4
:101F00006869002814D02868844211D1286B38B140
:101F1000502080F31188BFF34F8FBFF36F8FFEE720
:101F200006494FF080500860BFF34F8FBFF36F8FAB
:101F300070BD0000340000200802002004ED00E025
:101F40002DE9F04107460C4690461E46002F0ED064
:101F50003D46256005F134006060E86A2061286B29
:101F6000E061686CA060207B032803D00AE0114880
:101F70000568EEE700F0B4F8A86A08B10220207303
:101F800000F0F8F9E86C6061686DA061052E01D081
:101F9000267303E03846FFF7FFFA2073B8F1000F0D
:101FA00005D0286BFFF792FD2084BDE8F08100206A
:101FB0002084FAE7340000207FB506460024347000
:101FC000274881680391806800EBC0008000FFF71C
:101FD000AFFD0546280042D000220399FFF736FEE8
:101FE0000390029429E0029800EBC00005EB80000A
:101FF000017B01292BD002292BD003292BD00429C6
:102000002BD0002441683046FFF780FD0646029839
:1020100000EBC00005EB80008168028CCDE9002157
:10202000036922460FA13046FFF7B0F93046FEF7AC
:102030007AF906440298401C0290DDE902018842C8
:10204000D1D304B02846BDE87040FFF7BDBE52248E
:10205000D8E74224D6E75324D4E74424D2E77FBD0F
:1020600034000020092563092575092575092575A2
:102070000D0A00001CB516480024CDE90040234697
:10208000802214A1154800F0DFF8012809D0401C77
:102090001CD1502080F31188BFF34F8FBFF36F8F97
:1020A000FEE7502080F31188BFF34F8FBFF36F8F8F
:1020B00007484FF0FF312C38816201214161C46033
:1020C000FFF769FABDE81C4000F04EB81CBD0000E7
:1020D0006000002049444C4500000000DD18000865
:1020E0000248016B491C0163704700003400002066
:1020F00010B51B4C206B002802D00120E06110BD00
:102100000020E061FFF78CFAA063626B904204D973
:102110002168821A4B6D1A444A6560632069B0FADF
:1021200080F0C0F11F000F4900EB800051F8202023
:1021300072B101EB800041684968416000F108021A
:10214000914201D1496841604068C068206010BD7B
:10215000502080F31188BFF34F8FBFF36F8FFEE7DE
:1021600034000020080200201CB532480168324AC1
:10217000914207D1502080F31188BFF34F8FBFF3F6
:102180006F8FFEE700682C49491E884207D1502016
:1021900080F31188BFF34F8FBFF36F8FFEE727499E
:1021A00008780190FF200870087800909DF80000E2
:1021B0009DF8002000F0F000904207D0502080F3FE
:1021C0001188BFF34F8FBFF36F8FFEE79DF80000BC
:1021D0001B4A00F0500010700720906006E09068E5
:1021E000401E90609DF80000400000909DF80000A7
:1021F0000006F4D4107A000200F4E06090600198C8
:1022000008700C482030016841F4700101600168D9
:1022100041F070410160FFF705FE00205060FDF7BE
:10222000DDFF0848016841F040410160FDF7C6FF4D
:1022300000201CBD00ED00E071C20F4100E400E091
:102240009000002034EF00E02DE9FF5F8146DDE9DA
:102250000E788A4616469B46B000FFF769FC054695
:1022600028000AD06020FFF763FC04460CB1256308
:1022700004E02846FFF7A8FD00E000248CB1002010
:10228000CDE90240CDE900785B46324651464846EA
:10229000FFF738FB2046FFF781FA012004B0BDE8C4
:1022A000F09F4FF0FF30F9E72DE9F04100262F4F66
:1022B000386B002808D0B869401CB861F86900B1D3
:1022C00001263046BDE8F081FD686D1CFD609DB9BA
:1022D000F86B006838B1502080F31188BFF34F8F3E
:1022E000BFF36F8FFEE7F86B396CF9633864386AB7
:1022F000401C3862FFF7D8FBB86ADFF8748085426B
:102300000DD3F86B006838B1F86BC068C4686068BA
:1023100085420ED2B86202E04FF0FF30B8623868F2
:10232000C06A00EB800058F820000128C6D90126B9
:10233000C4E7201DFFF778FCA06A18B104F118006B
:10234000FFF772FCE06A01213A698140114339616B
:1023500000EB800008EB8000211DFFF7F3FCE06A32
:102360003968C96A8842CCD30126CAE73400002004
:10237000080200202DE9F041002400272D4D286B94
:10238000002807D0FFF7EAFC286B401E2863286B63
:1023900040B14AE0502080F31188BFF34F8FBFF364
:1023A0006F8FFEE7A868E8B3DFF88C8001261EE097
:1023B000D8F80C00C46804F11800FFF735FC201DA4
:1023C000FFF732FCE06A2A6906FA00F1114329613D
:1023D000194900EB8000B43901EB8000211DFFF7A3
:1023E000B1FCE06A2968C96A884200D3EE61D8F876
:1023F00000000028DCD10CB1FFF756FBAC6944B1FA
:10240000FFF752FF00B1EE61641E002CF8D10020EE
:10241000A861E86930B10127084938070860BFF3AF
:102420004F8F00E001E0BFF36F8FFFF7B7FC384636
:10243000BDE8F08134000020BC02002004ED00E083
:1024400044250008311000080000000000000000D2
:1024500080000000F824000869100008FDFF00005B
:10246000000000008000000004250008851000081E
:10247000FDFF0000000000008000000010250008A3
:10248000A1100008FDFF0000000000008000000017
:102490001C250008BD100008FDFF00000000000022
:1024A0008000000028250008DD100008FDFF000066
:1024B00000000000800000003425000865110008BD
:1024C000000000000000000080000000042500085B
:1024D00085100008FDFF00000000000080000000E3
:1024E00000000000000000000102030406070809C4
:1024F00000000000010203046D795461736B3032F7
:10250000000000006D795461736B303300000000EF
:102510006D795461736B3034000000006D79546143
:10252000736B3035000000006D795461736B303689
:1025300000000000735072696E74665F5441534B23
:102540003700000064656661756C745461736B00DC
:1025500070250008000000209C000000B413000853
:102560000C2600089C0000205C5E0000C4130008DC
:10257000000000000000000000000000000000005B
:10258000000000000000000000000000000000004B
:10259000000000000100000010000000000000002A
:1025A0000024F40000000000000000000000000013
:1025B000000000000000000000000000000000001B
:1025C000000000000000000000000000000000000B
:1025D00000000000000000000000000000000000FB
:1025E00000000000000000000000000000000000EB
:1025F00000000000000000000000000000000000DB
:0C26000000000000AAAAAAAA0000000026
:040000050800018965
:00000001FF
