:020000040800F2
:10000000206000205D020008FB0E0008CD0D0008F6
:10001000F90E00088D0300085D11000800000000C3
:100020000000000000000000000000009D0100082A
:100030008F03000800000000F9010008850F000888
:1000400077020008770200087702000877020008AC
:10005000770200087702000877020008770200089C
:10006000770200087702000877020008770200088C
:10007000770200087702000877020008770200087C
:10008000770200087702000877020008770200086C
:10009000770200087702000877020008770200085C
:1000A000770200088910000877020008770200082C
:1000B000770200087702000877020008770200083C
:1000C000770200087702000877020008770200082C
:1000D000770200087702000877020008770200081C
:1000E000770200087702000877020008770200080C
:1000F00077020008770200087702000877020008FC
:1001000077020008770200087702000877020008EB
:1001100077020008770200087702000877020008DB
:1001200077020008770200087702000877020008CB
:1001300077020008770200087702000877020008BB
:1001400077020008770200087702000877020008AB
:10015000770200087702000877020008770200089B
:10016000770200087702000877020008770200088B
:1001700077020008770200087702000800000000FC
:100180007702000877020008DFF80CD000F0ECF8E6
:1001900000480047A5110008206000202C4B19687A
:1001A0000868B0E8F04F80F30988BFF36F8F4FF015
:1001B000000080F3118870470000000008480068C4
:1001C000006880F308884FF0000080F3148862B65E
:1001D00061B6BFF34F8FBFF36F8F00DF00BF00BF6B
:1001E00008ED00E0DFF80C00016841F470010160E7
:1001F000704700BF88ED00E0EFF30980BFF36F8F19
:10020000134B1A681EF0100F08BF20ED108A20E96A
:10021000F04F106009B44FF0500080F31188BFF325
:100220004F8FBFF36F8F01F09DFB4FF0000080F305
:10023000118809BC19680868B0E8F04F1EF0100F6B
:1002400008BFB0EC108A80F30988BFF36F8F704746
:1002500028000020EFF30580704700000648804723
:1002600006480047FEE7FEE7FEE7FEE7FEE7FEE79B
:10027000FEE7FEE7FEE7FEE735100008890100080B
:100280002DE9F05F0546002092469B4688460646CB
:10029000814640241BE0284641464746224600F05E
:1002A00053F853465A46C01A914110D31146184686
:1002B000224600F03AF82D1A67EB01084F46224615
:1002C0000120002100F031F817EB00094E41201EFB
:1002D000A4F10104DFDC484631462A464346BDE826
:1002E000F09F40EA01039B0703D009E008C9121FF1
:1002F00008C0042AFAD203E011F8013B00F8013BE0
:10030000521EF9D27047D2B201E000F8012B491E0B
:10031000FBD270470022F6E710B513460A460446A2
:100320001946FFF7F0FF204610BD202A04DB203AD3
:1003300000FA02F1002070479140C2F1200320FA38
:1003400003F3194390407047202A04DB203A21FA36
:1003500002F00021704721FA02F3D040C2F12002DE
:100360009140084319467047064C074D06E0E06887
:1003700040F0010394E8070098471034AC42F6D3EC
:10038000FFF706FF141E0008341E0008FEE7704742
:100390002DE9F84FDFF88C91002209F1040A0AF1E7
:1003A000040B4FF00F080BF1040E01260B6896406A
:1003B0003340B34271D14C68022C01D0122C11D1C0
:1003C000D40800EB84073D6A5407E40E08FA04FCE5
:1003D00025EA0C05D1F810C00CFA04FC4CEA050C17
:1003E000C7F820C007685400032591F804C0A54051
:1003F0000CF0030CAF430CFA04FC4CEA070CC0F8F9
:1004000000C04F68012F05D0022F03D0112F01D05B
:10041000122F11D18768D1F80CC0AF430CFA04FC3D
:100420004CEA070CC0F808C04768B7430E79C6F31A
:10043000001696403E434660C668AE438D68A540B0
:100440003543C5604C68E40065D5374C256845F4F4
:1004500080452560246822F0030504F4804400945C
:10046000324C2E19D6F808789407250F08FA05F4AF
:10047000A7432F4CA04201D1002424E02D4CA042E0
:1004800001D101241FE02C4CA04201D102241AE02A
:100490002A4CA04202D1032415E03CE0284CA042A3
:1004A00001D104240FE0274CA04201D105240AE029
:1004B000254CA04201D1062405E0244CA04201D1E4
:1004C000072400E00824AC403C43C6F80848D9F8AB
:1004D00000404D464E689C43F60300D51C432C60FB
:1004E000DAF8004055464E689C43B60300D51C43DD
:1004F0002C60DBF800405D464E689C43F60200D558
:100500001C432C60DEF8004075464E689C43B602E2
:1005100000D51C432C60521C102AFFF446AFBDE8E6
:10052000F88F0000003C0140443802400030014098
:10053000000002400004024000080240000C02409B
:10054000001002400014024000180240001C02404B
:10055000426931EA020200D10904816170470AB19F
:10056000816170470904FBE701488068704700001B
:1005700018000020024881680278114481607047A9
:10058000180000200B4810B5016841F400710160AB
:10059000016841F480610160016841F4807101608B
:1005A000032000F08DF8002000F006F800F03EF87F
:1005B000002010BD003C024010B5014688B000226A
:1005C000192000F05DF8192000F04CF813480024C1
:1005D000016841F001010160006805A900F0010017
:1005E0000690684600F016F900F034F90C49400016
:1005F000B0FBF1F10C480B4A491E026040F2E732B1
:10060000C0E90324C0E9011400F0F0FA10B10120A0
:1006100008B010BD044800F005FBF9E7443802407B
:1006200040420F0000000140F00200200C4882B060
:10063000016841F480410160006800F4804000904E
:100640000748001F016841F08051016000680022E6
:1006500000F0805000900F21901E02B000F010B802
:1006600044380240002809DB00F01F0201219140BC
:100670004009800000F1E020C0F800117047000040
:10068000F0B40E4B1B68C3F30223C3F10704042C20
:1006900000D904241D1D072D01D2002300E0DB1E1C
:1006A000012606FA04F56D1E0D409D409E40761E03
:1006B000164045EA0601F0BC00F051BD0CED00E02B
:1006C000064A00F0070110684FF6FF03184040EAA1
:1006D0000120034908431060704700000CED00E062
:1006E0000000FA052DE9F0470D46040065D0DFF85B
:1006F0001491D9F80000EFB200F00F00A84207D221
:1007000089F80070D9F8000000F00F00A84254D119
:1007100020683D4E810712D5400703D5306840F46C
:10072000E05030602078000703D5306840F4604026
:1007300030603068A16820F0F00008433060207815
:10074000C0072DD0304960680839012812D002282E
:1007500013D0032811D00968890700292DDA3168E0
:1007600021F0030101433160FFF7FEFE804641F2B4
:10077000883A0EE009688903EFE709688901ECE728
:10078000FFF7F2FEA0EB0801514502D90320BDE8B6
:10079000F0873068616800F00C00B0EB810FEFD19A
:1007A000D9F80010484601F00F01A94207D9077097
:1007B000006800F00F00A84201D00120E7E7207890
:1007C000400705D53068E16820F4E0500843306008
:1007D0002078000706D53068216920F4604040EA9F
:1007E000C100306000F046F83168084AC1F30311D7
:1007F000515CC840064908600020FFF7DDFE00207C
:10080000C5E70000003C024008380240B41D000863
:10081000240000200F2202600C4A136803F0030337
:100820004360136803F0F0038360136803F4E0533C
:10083000C36012684FF4E05303EAD2020261044835
:10084000006800F00F0008607047000008380240A0
:10085000003C02400448054900680968044AC1F3A5
:100860004231515CC84070472400002008380240E3
:10087000C41D0008154810B5006810F00C0114489C
:1008800013D0431004290FD008290ED10F4C241F78
:10089000216801F03F022168490207D52068C0F3B2
:1008A0008810A0FB030106E0184610BD2168C1F3C3
:1008B0008811A1FB00010023FFF7E2FC2168C1F3CE
:1008C0000141491C4900B0FBF1F010BD083802405D
:1008D0000024F4002DE9F84F040073D02078BD4DBA
:1008E000C00748D0BB4808300168C1F38101012925
:1008F00008D00068C0F3810002280AD1281D0068D2
:10090000400206D52868800335D560680028E4D009
:1009100031E06068B0F5803F10D0B0F5A02F2868B6
:1009200010D020F480302860286820F480202860CF
:100930006068A0B1FFF718FE06460CE0286840F496
:100940008030F4E740F480202860F7E7FFF70CFEE2
:10095000801B642872D828688003F7D50BE0FFF766
:1009600003FE064604E0FFF7FFFD801B6428F1D874
:1009700028688003F7D42078DFF85C9280074FF076
:10098000000A3ED593480830016811F00C0F09D0D9
:100990000068C0F3810002280BD18E48001D00685A
:1009A000400206D42868800715D5E068012809D1DF
:1009B00011E0E068B8B10120C9F80000FFF7D4FDEC
:1009C000064605E003E1FFF7CFFD801B0228C1D8F2
:1009D00028688007F7D52868216920F0F80040EAE8
:1009E000C10028600DE0C9F800A0FFF7BDFD064674
:1009F00004E0FFF7B9FD801B02281FD82868800794
:100A0000F7D42078000722D5724F74496069743793
:100A100070B101200860FFF7A7FD064604E0FFF76C
:100A2000A3FD801B022809D838688007F7D50EE09F
:100A3000C1F800A0FFF798FD064605E081E0FFF74A
:100A400093FD801B02287CD838688007F7D4207873
:100A5000400769D5DFF87CB14FF000080BF1400B7F
:100A6000DBF80000C0000CD4DBF8001041F080512E
:100A7000CBF80010DBF800004FF0010800F08050C8
:100A80000090574F3868C0050FD4386840F4807024
:100A90003860FFF769FD064604E0FFF765FD801B3F
:100AA00002284ED83868C005F7D54A4FA06870377D
:100AB00001280FD00528386810D020F001003860D8
:100AC000386820F004003860A068B0B1FFF74CFD32
:100AD00006460EE0386840F00100F4E740F00400FC
:100AE0003860F7E7FFF740FD811B41F28830814213
:100AF00065D838688007F5D50DE0FFF735FD064667
:100B000006E0FFF731FD811B41F28830814256D863
:100B100038688007F5D4B8F1000F05D0DBF8001075
:100B200021F08051CBF80010A069C8B329490831E1
:100B30000968C1F38101022949D00228504607D033
:100B400000E03CE0C9F86000FFF70EFD044639E024
:100B50004F46C9F86000FFF707FD064604E0FFF7BF
:100B600003FD801B02282AD828688001F7D4D4E925
:100B700007010843A16A1B4A490802EB0141626A66
:100B800041EA8211084394F82C1040EA01611148AF
:100B9000001D016001203866FFF7E6FC044605E011
:100BA00013E0FFF7E1FC001B022808D82868800149
:100BB000F7D50AE0FFF7D8FC001B022802D9032072
:100BC000BDE8F88F28688001F4D40020F8E7012000
:100BD000F6E700000038024000004742800E47421E
:100BE000007000400000FFFF7047704710B5040020
:100BF00003D094F83D0010B107E0012010BD0020A3
:100C000084F83C00204600F00CF8022084F83D00F7
:100C1000211D206800F03EFA012084F83D000020EC
:100C200010BD70470168CA6842F00102CA600068DE
:100C3000816801F00701062903D0016841F0010134
:100C4000016000207047704770B504460068016974
:100C50004FF00005C943890715D4C168C943890706
:100C600011D4E91E01610120207720688069800786
:100C7000204602D0FFF7E7FF04E000F098F8204696
:100C800000F096F8257720680169C943490717D411
:100C9000C168C943490713D46FF004010161022000
:100CA00020772068806910F4407F204602D0FFF74B
:100CB000CAFF04E000F07BF8204600F079F82577C1
:100CC00020680169C943090716D4C168C9430907E7
:100CD00012D46FF008010161042020772068C069F8
:100CE0008007204602D0FFF7AEFF04E000F05FF877
:100CF000204600F05DF8257720680169C943C906E0
:100D000017D4C168C943C90613D46FF0100101613B
:100D1000082020772068C06910F4407F204602D068
:100D2000FFF791FF04E000F042F8204600F040F8A1
:100D3000257720680169C943C90708D1C168C9433B
:100D4000C90704D1891E0161204600F033F82068EC
:100D50000169C943090609D4C168C943090605D414
:100D60006FF0800101612046FFF73EFF20680169B6
:100D7000C943490609D4C168C943490605D46FF07F
:100D800040010161204600F01FF820680169C94355
:100D900089060BD4C168C943890607D46FF02001C6
:100DA00001612046BDE87040FFF71FBF70BD70476E
:100DB0007047000000680349884201D1FFF7DABBA1
:100DC000704700000000014070470000244F08B544
:100DD0004FF48049002249463846FFF7C0FB214DB9
:100DE0004FEA450806244E4628460095401E0090CE
:100DF000FCD131463846FFF7ABFB641EF4D14046C8
:100E0000CDF80080401E0090FCD106244046CDF86D
:100E10000080401E0090FCD131463846FFF798FB19
:100E2000641EF3D14046CDF80080401E0090FCD1F6
:100E3000B14606243E4628460095401E0090FCD14F
:100E400049463046FFF784FB641EF4D10620414634
:100E5000CDF80080491E0091FCD1401EF7D1C1E7BA
:100E6000000C024040420F00F0B587B014216846E4
:100E7000FFF750FA1D480024016841F0800101602D
:100E8000016801F080010591016841F001010160F4
:100E9000016801F001010591016841F0080101605C
:100EA000016801F008010591016841F0020101604B
:100EB00000680F4F00F002004FF4704605900022CA
:100EC00031463846FFF74BFB0125CDE90054694612
:100ED00008480294FFF75CFA0096CDE90154694690
:100EE00038460394FFF754FA07B0F0BD303802409B
:100EF000000C024000000240FEE770474FF47A7495
:100F0000204600F0A5F9FBE7054D4FF4805421463B
:100F10002846FFF71DFB642000F09AF9F7E7000070
:100F2000000C0240054D4FF4804421462846FFF74F
:100F30000FFB962000F08CF9F7E70000000C024050
:100F4000054D4FF4004421462846FFF701FBFA20E7
:100F500000F07EF9F7E70000000C0240064D4FF468
:100F600000544FF4AF7621462846FFF7F1FA304699
:100F700000F06EF9F7E70000000C0240642000F07A
:100F800067F9FBE710B5502080F31188BFF34F8F4E
:100F9000BFF36F8F00F0F4FD18B104494FF080509B
:100FA0000860002080F3118810BD000004ED00E00F
:100FB00030B593B030216846FFF7ACF914210CA886
:100FC000FFF7A8F919480025016841F08051016038
:100FD000006800F0805011901548016841F480418C
:100FE00001600068022400F480401190012000900C
:100FF000000401908001CDE9064008AA0420A82140
:1010000082E813000B906846FFF764FC0CA90F20E0
:1010100081E831004FF4A0500F90E00210900521BC
:101020000CA8FFF75FFB13B030BD00004038024052
:10103000007000401048016841F4700101600F48E1
:10104000016841F0010101600C4A00210832116081
:1010500002680B4B1A400260031D0A4A1A600268BC
:1010600022F48022026005480C30016002495806D3
:10107000803908607047000088ED00E000380240C9
:10108000FFFFF6FE103000240148FFF7DDBD000031
:10109000F0020020F0B50268254D264E264FDFF8FD
:1010A0009CC0274B4FF0804EA84209D0704507D016
:1010B000B04205D0B84203D0604501D0984203D178
:1010C00022F070044A682243A8421BD0704519D010
:1010D000B04217D0B84215D0604513D0984211D015
:1010E000184CA0420ED0184CA0420BD0174CA04276
:1010F00008D0174CA04205D0164CA04202D0164C86
:10110000A04203D122F44074CA6822434C6922F001
:101110008002224302608A68C2620A688262A84230
:1011200001D0984201D10969016301214161F0BDFB
:10113000000001400004004000080040000C004096
:1011400000040140004001400044014000480140CB
:1011500000180040001C004000200040FEE7090786
:10116000090E002804DB00F1E02080F8001470472D
:1011700000F00F0000F1E02080F8141D704702E03D
:1011800008C8121F08C1002AFAD170477047002012
:1011900001E001C1121F002AFBD1704770470020F7
:1011A00070470000AAB0FFF7EDF9FFF701FFFFF766
:1011B0005BFE1C2221496846FFF793F80021684630
:1011C00000F052F81E4C1D491C2220601C3107A85B
:1011D000FFF787F8002107A800F046F8174960607C
:1011E0001C2238310EA8FFF77CF800210EA800F071
:1011F0003BF81249A0601C22543115A8FFF771F882
:10120000002115A800F030F80C49E0601C22703174
:101210001CA8FFF766F800211CA800F025F8074974
:1012200020611C228C3123A8FFF75BF8002123A842
:1012300000F01AF8606100F012F8FEE70C1D0008DB
:101240000000002001460020842900D0C81C7047FF
:1012500010B500B9012000F01FFB002010BD10B533
:1012600000F040FB002010BD7FB50D4604464169EB
:10127000B0F9080081B1A16971B1FFF7E3FFD4E9CA
:1012800005128DE80700D4E900102B46226900F012
:101290004AFC039004B070BDFFF7D4FF03A9CDE969
:1012A0000001208A2B4682B2D4E9001000F00EFC27
:1012B000012801D00020EDE70398EBE72DE9F0418C
:1012C000184E0F46044675693068001D00F020FA7C
:1012D00038B9306890F82C1001208840B1698143FA
:1012E000B161601C07D137B13168BDE8F0410E48EB
:1012F000091D00F051BA30682C44AC42446031689A
:1013000005D2B068BDE8F041091D00F02DBA706843
:10131000091D00F029FA306B844200D23463BDE825
:10132000F0810000280000200C0400202DE9F0418D
:10133000054600F03DFA2E4E3069401C30613068A1
:101340002C4F10B1F06940B32DE0356030690128B1
:1013500029D1002404EB840007EB800000F0F6F9AB
:10136000641C072CF6D323488C3000F0EFF9214899
:10137000A03000F0EBF91F48B43000F0E7F91D4849
:10138000C83000F0E3F91B48DC3000F0DFF9194801
:101390008C3070601430B06005E03068E96AC06A73
:1013A000884200D83560F06A0121401CF062686410
:1013B000E86AB26981401143B16100EB800007EB3C
:1013C0008000291D00F0E8F900F012FAF069002809
:1013D0000CD03068E96AC06A884207D206494FF0EB
:1013E00080500860BFF34F8FBFF36F8FBDE8F0816F
:1013F000280000203003002004ED00E010B5044672
:1014000090F85D0058B101280CD002280FD0502070
:1014100080F31188BFF34F8FBFF36F8FFEE7206B10
:1014200000F0FAF92046BDE8104000F0F5B910BD13
:1014300010484FF47051420706D0C01D0D4920F0EE
:101440000700411AC1F570510B4A00230144C2E95B
:1014500000030839103A21F0070111604B600B605E
:101460000B1AC0E9001393604FF000405360D06046
:1014700070470000200400207C000020134E144D13
:10148000A6F1C8074FF08058DFF8489011E000F04F
:101490008FF9F068C468201D00F03AF92869401EF1
:1014A0002861E868401EE86000F0A2F92046FFF7D6
:1014B000A5FFE8680028EAD138680128F9D9C9F8F9
:1014C0000080BFF34F8FBFF36F8FF2E7F803002068
:1014D0002800002004ED00E02DE9F0470E46DDE98C
:1014E00009841746824691009946089DA522206BE3
:1014F000FEF709FF6FF00301206B01EB8701084441
:1015000020F00707780707D0502080F31188BFF339
:101510004F8FBFF36F8FFEE72218315C82F83410D3
:10152000315C11B1401C1028F6D3002684F84360CA
:10153000072D00D30625E562C4E91356201D00F0EF
:1015400010F904F1180000F00CF92461C5F107004E
:101550006462A0616665A66584F85C604A4651468F
:10156000384600F0BFF82060B8F1000F01D0C8F88D
:101570000040BDE8F087000030B5114900E0114699
:101580000A688242FBD34B685C18844203D14068EE
:1015900018444860084643681C18944209D1084C16
:1015A000103C2468A24209D052681A4442600A687A
:1015B00012680260814200D0086030BD0460F9E723
:1015C0007C00002006484168096829B14168C96863
:1015D000C9684968016370474FF0FF31FAE70000BE
:1015E0002800002008484068401C4FF0500080F35D
:1015F000118804D0BFF34F8FBFF36F8FFEE7BFF3A7
:101600004F8FBFF36F8FFEE7840000202DE9F0417C
:101610000546002600F09EF9314F386808B9FFF7FB
:1016200007FFF86805424BD1C5B3083568070ED0EF
:1016300005F00700C0F108000544680707D05020F6
:1016400080F31188BFF34F8FBFF36F8FFEE72DB389
:101650007868854234D8224910310846046801E090
:10166000214604466068A84202D220680028F7D1CB
:101670003868844224D00E682068086060680836A4
:10168000411B10290FD96019420708D0502080F360
:101690001188BFF34F8FBFF36F8FFEE710E04160FB
:1016A0006560FFF769FF61687868401A7860BA681A
:1016B000904200D2B860F86801430020C4E90001FC
:1016C00000F0C2FA700707D0502080F31188BFF3F2
:1016D0004F8FBFF36F8FFEE73046BDE8F08100000B
:1016E0006C00002010B5031F4FF080741C601B1F9E
:1016F00021F001011960191F044B0B6014390A60B5
:10170000091F6FF0020244380A6010BDE515000899
:10171000D0E9013201699A60D0E901235A604A6830
:10172000824201D182684A60002202610868401E3C
:101730000860086870470000034B036003F1600015
:1017400008608020106070479000002000F10801C0
:101750004FF0FF32C0E90112C16001610021016058
:10176000704700210161704730B50C68621C02D0DF
:1017700000F1080202E0026904E01A4653681D689D
:10178000A542FAD953684B6099608A60516008613C
:101790000168491C016030BD42684A6093688B60F3
:1017A00093685960916008610168491C0160704745
:1017B000502080F31188BFF34F8FBFF36F8F0A491A
:1017C0004868401C486001280CD10848006810F0A7
:1017D000FF0F07D0502080F31188BFF34F8FBFF366
:1017E0006F8FFEE7704700008400002004ED00E0EA
:1017F0000849486828B1401E486001D180F311882B
:101800007047502080F31188BFF34F8FBFF36F8F65
:10181000FEE700008400002070B5002827D0144D9A
:10182000A0F108046068E968084207D1502080F3FD
:101830001188BFF34F8FBFF36F8FFEE722683AB175
:10184000502080F31188BFF34F8FBFF36F8FFEE7F7
:101850008843606000F07EF86068696808446860EA
:101860002046FFF789FEBDE8704000F0EDB970BD7D
:101870006C0000204FF0E0200021016181610549EA
:101880004FF47A720968B1FBF2F1491E41610721F8
:10189000016170472400002010B5020014D00F48E9
:1018A000806B38B1502080F31188BFF34F8FBFF3A6
:1018B0006F8FFEE700F04EF800211046FFF7FEFCA8
:1018C00000F0C2F9002807D105494FF080500860A8
:1018D000BFF34F8FBFF36F8F10BD000028000020B3
:1018E00004ED00E010B586B00024039405AA04A915
:1018F00003A80494FFF720FFDDE903010094CDE97C
:10190000011000230FA11148059A00F00CF91049AD
:101910000028486313D0502080F31188BFF34F8F05
:10192000BFF36F8F4FF0FF3008630120C8614C6137
:10193000FFF734FC06B0BDE8104000F04DB806B02B
:1019400010BD000049444C45000000007D14000813
:10195000280000200248816B491C81637047000009
:101960002800002010B51A4CA06B10B10120606255
:1019700010BD00206062FFF712FC2064E26B904211
:1019800004D92168821A4B6D1A444A65E063A06944
:101990001049B0FA80F0C0F11F0000EB800051F850
:1019A00020206AB101EB800000F10802416849681B
:1019B0004160914201D149684160C868206010BD12
:1019C000502080F31188BFF34F8FBFF36F8FFEE776
:1019D00028000020300300201CB537480168374A32
:1019E000914207D1502080F31188BFF34F8FBFF38E
:1019F0006F8FFEE700683149491E884207D15020A9
:101A000080F31188BFF34F8FBFF36F8FFEE72C4930
:101A100008780190FF20087008788DF800009DF884
:101A200000009DF8002000F0F000904207D0502008
:101A300080F31188BFF34F8FBFF36F8FFEE79DF8E0
:101A40000000204B00F0500018700720986006E05E
:101A5000401E98609DF8000040008DF800009DF841
:101A6000000000069868F3D4032807D0502080F3C4
:101A70001188BFF34F8FBFF36F8FFEE74FF44070B5
:101A80009860019808700C482030016841F470019A
:101A90000160016841F070410160FFF7EBFE00203A
:101AA0005860FEF79FFB0848016841F04041016023
:101AB000FEF784FB00201CBD00ED00E071C20F4169
:101AC00000E400E08400002034EF00E02DE9FF5F37
:101AD0008346DDE90E87994616468A469000FFF751
:101AE00095FD05001CD06020FFF790FD040014D088
:101AF0000020256384F85D00CDE90240CDE9008730
:101B00004B46324651465846FFF7E6FC2046FFF763
:101B10000DFC012004B0BDE8F09F2846FFF77CFED5
:101B20004FF0FF30F6E7F0B585B00546DDE90B0470
:101B30000A9EA8B1E4B1602700972063022084F8D0
:101B40005D000020CDE9024004AF2846CDE90067E2
:101B5000FFF7C2FC2046FFF7E9FB049805B0F0BD93
:101B6000502080F31188BFF34F8FBFF36F8FFEE7D4
:101B7000502080F31188BFF34F8FBFF36F8FFEE7C4
:101B80002DE9F0412E4F0026B86B40B1386A401C59
:101B90003862786A00B101263046BDE8F0817D697F
:101BA0006D1C7D6113D17868006838B1502080F3D6
:101BB0001188BFF34F8FBFF36F8FFEE77868B96866
:101BC0007960B860B86A401CB862FFF7FBFC386BFC
:101BD000DFF87080854209D37868006880B1786842
:101BE000C068C468606885420DD238633868C06ACE
:101BF00000EB800158F821000128CAD90126C8E766
:101C00004FF0FF30F1E7201DFFF782FDA06A18B109
:101C100004F11800FFF77CFDE06A0121BA698140F8
:101C20001143B96100EB800108EB8100211DFFF732
:101C3000B3FDE06A3968C96A8842CDD30126CBE793
:101C400028000020300300202DE9F0472C4D00240F
:101C50002746A86B38B1FFF7ABFDA86B401EA86301
:101C6000A86B40B146E0502080F31188BFF34F8F3E
:101C7000BFF36F8FFEE7286922490126D0B3A1F197
:101C8000B4098846D8F80010E9B1D8F80C00C46847
:101C900004F11800FFF73CFD201DFFF739FDE06A55
:101CA000AA6906FA00F11143A96100EB800109EB72
:101CB0008100211DFFF770FDE06A2968C96A88422A
:101CC000E0D36E62DEE70CB1FFF77CFC2C6A3CB11E
:101CD000FFF756FF00B16E62641EF9D10020286242
:101CE000686A38B10849012738070860BFF34F8F89
:101CF000BFF36F8FFFF77CFD3846BDE8F08700002B
:101D000028000020E403002004ED00E0081E000885
:101D1000FD0E000800000000000000008000000030
:101D20000000000000000000CC1D0008090F0008A2
:101D3000FDFF000000000000800000000000000027
:101D400000000000D81D0008250F0008FDFF00005E
:101D50000000000080000000000000000000000003
:101D6000E41D0008410F0008FDFF00000000000016
:101D7000800000000000000000000000F01D0008CE
:101D80005D0F0008FDFF0000000000008000000063
:101D90000000000000000000FC1D00087D0F00088E
:101DA000FDFF0000000000008000000000000000B7
:101DB0000000000000000000000000000102030419
:101DC0000607080900000000010203046D79546150
:101DD000736B3032000000006D795461736B3033E7
:101DE000000000006D795461736B30340000000016
:101DF0006D795461736B3035000000006D7954616A
:101E0000736B30360000000064656661756C745455
:101E100061736B00341E0008000000209000000079
:101E20007E110008C41E000890000020905F000092
:101E30008E110008000000000000000000000000FB
:101E40000000000000000000000000000100000091
:101E500010000000000000000024F400000000005A
:101E60000000000000000000000000000000000072
:101E70000000000000000000000000000000000062
:101E80000000000000000000000000000000000052
:101E90000000000000000000000000000000000042
:101EA0000000000000000000000000000000000032
:101EB000000000000000000000000000AAAAAAAA7A
:041EC000000000001E
:040000050800018965
:00000001FF
